Component: ARM Compiler 5.06 update 2 (build 183) Tool: armlink [4d35b7]

==============================================================================

Section Cross References

    stm32f429i_discovery.o(i.BSP_LED_Init) refers to stm32f4xx_hal_gpio.o(i.HAL_GPIO_Init) for HAL_GPIO_Init
    stm32f429i_discovery.o(i.BSP_LED_Init) refers to stm32f4xx_hal_gpio.o(i.HAL_GPIO_WritePin) for HAL_GPIO_WritePin
    stm32f429i_discovery.o(i.BSP_LED_Init) refers to stm32f429i_discovery.o(.constdata) for .constdata
    stm32f429i_discovery.o(i.BSP_LED_Init) refers to stm32f429i_discovery.o(.data) for .data
    stm32f429i_discovery.o(i.BSP_LED_Off) refers to stm32f4xx_hal_gpio.o(i.HAL_GPIO_WritePin) for HAL_GPIO_WritePin
    stm32f429i_discovery.o(i.BSP_LED_Off) refers to stm32f429i_discovery.o(.constdata) for .constdata
    stm32f429i_discovery.o(i.BSP_LED_Off) refers to stm32f429i_discovery.o(.data) for .data
    stm32f429i_discovery.o(i.BSP_LED_On) refers to stm32f4xx_hal_gpio.o(i.HAL_GPIO_WritePin) for HAL_GPIO_WritePin
    stm32f429i_discovery.o(i.BSP_LED_On) refers to stm32f429i_discovery.o(.constdata) for .constdata
    stm32f429i_discovery.o(i.BSP_LED_On) refers to stm32f429i_discovery.o(.data) for .data
    stm32f429i_discovery.o(i.BSP_LED_Toggle) refers to stm32f4xx_hal_gpio.o(i.HAL_GPIO_TogglePin) for HAL_GPIO_TogglePin
    stm32f429i_discovery.o(i.BSP_LED_Toggle) refers to stm32f429i_discovery.o(.constdata) for .constdata
    stm32f429i_discovery.o(i.BSP_LED_Toggle) refers to stm32f429i_discovery.o(.data) for .data
    stm32f429i_discovery.o(i.BSP_PB_GetState) refers to stm32f4xx_hal_gpio.o(i.HAL_GPIO_ReadPin) for HAL_GPIO_ReadPin
    stm32f429i_discovery.o(i.BSP_PB_GetState) refers to stm32f429i_discovery.o(.constdata) for .constdata
    stm32f429i_discovery.o(i.BSP_PB_GetState) refers to stm32f429i_discovery.o(.data) for .data
    stm32f429i_discovery.o(i.BSP_PB_Init) refers to stm32f4xx_hal_gpio.o(i.HAL_GPIO_Init) for HAL_GPIO_Init
    stm32f429i_discovery.o(i.BSP_PB_Init) refers to stm32f4xx_hal_cortex.o(i.HAL_NVIC_SetPriority) for HAL_NVIC_SetPriority
==============================================================================

Removing Unused input sections from the image.

    Removing stm32f429i_discovery.o(.rev16_text), (4 bytes).
    Removing stm32f429i_discovery.o(.revsh_text), (4 bytes).
    Removing stm32f429i_discovery.o(.rrx_text), (6 bytes).
    Removing stm32f429i_discovery.o(i.BSP_GetVersion), (8 bytes).
    Removing stm32f429i_discovery.o(i.BSP_LED_Off), (28 bytes).
    Removing stm32f429i_discovery.o(i.BSP_LED_On), (28 bytes).
    Removing stm32f429i_discovery.o(i.BSP_LED_Toggle), (24 bytes).
    Removing stm32f429i_discovery.o(i.BSP_PB_GetState), (24 bytes).
    Removing stm32f429i_discovery.o(i.BSP_PB_Init), (136 bytes).
    Removing stm32f429i_discovery.o(i.GYRO_IO_Init), (112 bytes).
    Removing stm32f429i_discovery.o(i.GYRO_IO_Read), (160 bytes).
    Removing stm32f429i_discovery.o(i.GYRO_IO_Write), (156 bytes).
    Removing stm32f429i_discovery.o(i.IOE_WriteMultiple), (64 bytes).
    Removing stm32f429i_discovery.o(i.LCD_Delay), (4 bytes).
    Removing stm32f429i_discovery.o(i.LCD_IO_Init), (168 bytes).
    Removing stm32f429i_discovery.o(i.LCD_IO_ReadData), (128 bytes).
    Removing stm32f429i_discovery.o(i.LCD_IO_WriteData), (88 bytes).
    Removing stm32f429i_discovery.o(i.LCD_IO_WriteReg), (88 bytes).
==============================================================================

Image Symbol Table

    Local Symbols

    Symbol Name                              Value     Ov Type        Size  Object(Section)

    ../clib/../cmprslib/zerorunl2.c          0x00000000   Number         0  __dczerorl2.o ABSOLUTE
    ../clib/microlib/division.c              0x00000000   Number         0  uldiv.o ABSOLUTE
    ../clib/microlib/errno.c                 0x00000000   Number         0  errno.o ABSOLUTE
    ../clib/microlib/init/entry.s            0x00000000   Number         0  entry11a.o ABSOLUTE
    ../clib/microlib/init/entry.s            0x00000000   Number         0  entry11b.o ABSOLUTE
    ../clib/microlib/init/entry.s            0x00000000   Number         0  entry2.o ABSOLUTE
    ../clib/microlib/init/entry.s            0x00000000   Number         0  entry9a.o ABSOLUTE
    ../clib/microlib/init/entry.s            0x00000000   Number         0  entry10b.o ABSOLUTE
    ../clib/microlib/init/entry.s            0x00000000   Number         0  entry.o ABSOLUTE
    ../clib/microlib/init/entry.s            0x00000000   Number         0  entry10a.o ABSOLUTE
    ../clib/microlib/init/entry.s            0x00000000   Number         0  entry9b.o ABSOLUTE
    ../clib/microlib/init/entry.s            0x00000000   Number         0  entry5.o ABSOLUTE
    ../clib/microlib/init/entry.s            0x00000000   Number         0  entry7a.o ABSOLUTE
    ../clib/microlib/init/entry.s            0x00000000   Number         0  entry7b.o ABSOLUTE
    ../clib/microlib/init/entry.s            0x00000000   Number         0  entry8b.o ABSOLUTE
    ../clib/microlib/init/entry.s            0x00000000   Number         0  entry8a.o ABSOLUTE
    ../clib/microlib/longlong.c              0x00000000   Number         0  llushr.o ABSOLUTE
    ../clib/microlib/longlong.c              0x00000000   Number         0  llshl.o ABSOLUTE
    ../clib/microlib/longlong.c              0x00000000   Number         0  llsshr.o ABSOLUTE
    ../clib/microlib/string/memcmp.c         0x00000000   Number         0  memcmp.o ABSOLUTE
    ../clib/microlib/string/memcpy.c         0x00000000   Number         0  memcpya.o ABSOLUTE
    ../clib/microlib/string/memcpy.c         0x00000000   Number         0  memmovea.o ABSOLUTE
    ../clib/microlib/string/memcpy.c         0x00000000   Number         0  memcpyb.o ABSOLUTE
    ../clib/microlib/string/memcpy.c         0x00000000   Number         0  memmoveb.o ABSOLUTE
    ../clib/microlib/string/memset.c         0x00000000   Number         0  memseta.o ABSOLUTE
    ../clib/microlib/stubs.s                 0x00000000   Number         0  iusefp.o ABSOLUTE
    ../fplib/microlib/d2f.c                  0x00000000   Number         0  d2f.o ABSOLUTE
    ../fplib/microlib/f2d.c                  0x00000000   Number         0  f2d.o ABSOLUTE
    ../fplib/microlib/fpadd.c                0x00000000   Number         0  dadd.o ABSOLUTE
    ../fplib/microlib/fpdiv.c                0x00000000   Number         0  ddiv.o ABSOLUTE
    ../fplib/microlib/fpepilogue.c           0x00000000   Number         0  depilogue.o ABSOLUTE
    ../fplib/microlib/fpepilogue.c           0x00000000   Number         0  fepilogue.o ABSOLUTE
    ../fplib/microlib/fpflt.c                0x00000000   Number         0  dflti.o ABSOLUTE
    ../fplib/microlib/fpmul.c                0x00000000   Number         0  dmul.o ABSOLUTE
    ../fplib/microlib/fpneg.c                0x00000000   Number         0  dneg.o ABSOLUTE
    ../fplib/microlib/fpscalb.c              0x00000000   Number         0  dscalb.o ABSOLUTE
    ../fplib/microlib/fpsqrt.c               0x00000000   Number         0  dsqrt.o ABSOLUTE
    ../mathlib/dunder.c                      0x00000000   Number         0  dunder.o ABSOLUTE
    ../mathlib/fabs.c                        0x00000000   Number         0  fabs.o ABSOLUTE
    ../mathlib/fpclassify.c                  0x00000000   Number         0  fpclassify.o ABSOLUTE
    ../mathlib/poly.c                        0x00000000   Number         0  poly.o ABSOLUTE
    ../mathlib/pow.c                         0x00000000   Number         0  pow.o ABSOLUTE
    ../mathlib/pow.c                         0x00000000   Number         0  pow_x.o ABSOLUTE
    ../mathlib/qnan.c                        0x00000000   Number         0  qnan.o ABSOLUTE
    ../mathlib/sqrt.c                        0x00000000   Number         0  sqrt_x.o ABSOLUTE
    ../mathlib/sqrt.c                        0x00000000   Number         0  sqrt.o ABSOLUTE
    ..\..\..\Utilities\Third_Party\STemWin528_20150626\GUI\ConvertColor\GUICC_16.c 0x00000000   Number         0  guicc_16.o ABSOLUTE
    ..\..\..\Utilities\Third_Party\STemWin528_20150626\GUI\ConvertColor\GUICC_1616I.c 0x00000000   Number         0  guicc_1616i.o ABSOLUTE
    ..\..\..\Utilities\Third_Party\STemWin528_20150626\GUI\ConvertColor\GUICC_8666.c 0x00000000   Number         0  guicc_8666.o ABSOLUTE
    ..\..\..\Utilities\Third_Party\STemWin528_20150626\GUI\ConvertColor\GUICC_88666I.c 0x00000000   Number         0  guicc_88666i.o ABSOLUTE
    ..\..\..\Utilities\Third_Party\STemWin528_20150626\GUI\ConvertColor\GUICC_M1555I.c 0x00000000   Number         0  guicc_m1555i.o ABSOLUTE
    ..\..\..\Utilities\Third_Party\STemWin528_20150626\GUI\ConvertColor\GUICC_M4444I.c 0x00000000   Number         0  guicc_m4444i.o ABSOLUTE
    ..\..\..\Utilities\Third_Party\STemWin528_20150626\GUI\ConvertColor\GUICC_M8888I.c 0x00000000   Number         0  guicc_m8888i.o ABSOLUTE
    ..\..\..\Utilities\Third_Party\STemWin528_20150626\GUI\Core\GUICC_0.c 0x00000000   Number         0  guicc_0.o ABSOLUTE
    ..\..\..\Utilities\Third_Party\STemWin528_20150626\GUI\Core\GUICC_8888.c 0x00000000   Number         0  guicc_8888.o ABSOLUTE
    ..\..\..\Utilities\Third_Party\STemWin528_20150626\GUI\Core\GUICC_8888_Index2Color.c 0x00000000   Number         0  guicc_8888_index2color.o ABSOLUTE
    ..\..\..\Utilities\Third_Party\STemWin528_20150626\GUI\Core\GUICC_888_Index2Color.c 0x00000000   Number         0  guicc_888_index2color.o ABSOLUTE
    ..\..\..\Utilities\Third_Party\STemWin528_20150626\GUI\Core\GUICC_M565.c 0x00000000   Number         0  guicc_m565.o ABSOLUTE
    ..\..\..\Utilities\Third_Party\STemWin528_20150626\GUI\Core\GUICC_M888.c 0x00000000   Number         0  guicc_m888.o ABSOLUTE
    ..\..\..\Utilities\Third_Party\STemWin528_20150626\GUI\Core\GUICC_M888_Index2Color.c 0x00000000   Number         0  guicc_m888_index2color.o ABSOLUTE
    ..\..\..\Utilities\Third_Party\STemWin528_20150626\GUI\Core\GUI_ALLOC_AllocZero.c 0x00000000   Number         0  gui_alloc_alloczero.o ABSOLUTE
    ..\..\..\Utilities\Third_Party\STemWin528_20150626\GUI\Core\GUI_Alloc.c 0x00000000   Number         0  gui_alloc.o ABSOLUTE
    ..\..\..\Utilities\Third_Party\STemWin528_20150626\GUI\Core\GUI_CalcColorDist.c 0x00000000   Number         0  gui_calccolordist.o ABSOLUTE
    ..\..\..\Utilities\Third_Party\STemWin528_20150626\GUI\Core\GUI_Char.c 0x00000000   Number         0  gui_char.o ABSOLUTE
    ..\..\..\Utilities\Third_Party\STemWin528_20150626\GUI\Core\GUI_CharLine.c 0x00000000   Number         0  gui_charline.o ABSOLUTE
    ..\..\..\Utilities\Third_Party\STemWin528_20150626\GUI\Core\GUI_CharM.c 0x00000000   Number         0  gui_charm.o ABSOLUTE
    ..\..\..\Utilities\Third_Party\STemWin528_20150626\GUI\Core\GUI_CharP.c 0x00000000   Number         0  gui_charp.o ABSOLUTE
    ..\..\..\Utilities\Third_Party\STemWin528_20150626\GUI\Core\GUI_Core.c 0x00000000   Number         0  gui_core.o ABSOLUTE
    ..\..\..\Utilities\Third_Party\STemWin528_20150626\GUI\Core\GUI_Curs1.c 0x00000000   Number         0  gui_curs1.o ABSOLUTE
    ..\..\..\Utilities\Third_Party\STemWin528_20150626\GUI\Core\GUI_CursorArrowM.c 0x00000000   Number         0  gui_cursorarrowm.o ABSOLUTE
    ..\..\..\Utilities\Third_Party\STemWin528_20150626\GUI\Core\GUI_CursorArrowMPx.c 0x00000000   Number         0  gui_cursorarrowmpx.o ABSOLUTE
    ..\..\..\Utilities\Third_Party\STemWin528_20150626\GUI\Core\GUI_CursorPal.c 0x00000000   Number         0  gui_cursorpal.o ABSOLUTE
    ..\..\..\Utilities\Third_Party\STemWin528_20150626\GUI\Core\GUI_Device.c 0x00000000   Number         0  gui_device.o ABSOLUTE
    ..\..\..\Utilities\Third_Party\STemWin528_20150626\GUI\Core\GUI_DispString.c 0x00000000   Number         0  gui_dispstring.o ABSOLUTE
    ..\..\..\Utilities\Third_Party\STemWin528_20150626\GUI\Core\GUI_DispStringAt.c 0x00000000   Number         0  gui_dispstringat.o ABSOLUTE
    ..\..\..\Utilities\Third_Party\STemWin528_20150626\GUI\Core\GUI_DrawBitmap.c 0x00000000   Number         0  gui_drawbitmap.o ABSOLUTE
    ..\..\..\Utilities\Third_Party\STemWin528_20150626\GUI\Core\GUI_Exec.c 0x00000000   Number         0  gui_exec.o ABSOLUTE
    ..\..\..\Utilities\Third_Party\STemWin528_20150626\GUI\Core\GUI_GetBitmapPixelIndex.c 0x00000000   Number         0  gui_getbitmappixelindex.o ABSOLUTE
    ..\..\..\Utilities\Third_Party\STemWin528_20150626\GUI\Core\GUI_GetColor.c 0x00000000   Number         0  gui_getcolor.o ABSOLUTE
    ..\..\..\Utilities\Third_Party\STemWin528_20150626\GUI\Core\GUI_GetDrawMode.c 0x00000000   Number         0  gui_getdrawmode.o ABSOLUTE
    ..\..\..\Utilities\Third_Party\STemWin528_20150626\GUI\Core\GUI_GetOrg.c 0x00000000   Number         0  gui_getorg.o ABSOLUTE
    ..\..\..\Utilities\Third_Party\STemWin528_20150626\GUI\Core\GUI_Goto.c 0x00000000   Number         0  gui_goto.o ABSOLUTE
    ..\..\..\Utilities\Third_Party\STemWin528_20150626\GUI\Core\GUI_MULTIBUF.c 0x00000000   Number         0  gui_multibuf.o ABSOLUTE
    ..\..\..\Utilities\Third_Party\STemWin528_20150626\GUI\Core\GUI_MergeRect.c 0x00000000   Number         0  gui_mergerect.o ABSOLUTE
    ..\..\..\Utilities\Third_Party\STemWin528_20150626\GUI\Core\GUI_MoveRect.c 0x00000000   Number         0  gui_moverect.o ABSOLUTE
    ..\..\..\Utilities\Third_Party\STemWin528_20150626\GUI\Core\GUI_OnKey.c 0x00000000   Number         0  gui_onkey.o ABSOLUTE
    ..\..\..\Utilities\Third_Party\STemWin528_20150626\GUI\Core\GUI_PID.c 0x00000000   Number         0  gui_pid.o ABSOLUTE
    ..\..\..\Utilities\Third_Party\STemWin528_20150626\GUI\Core\GUI_Pen.c 0x00000000   Number         0  gui_pen.o ABSOLUTE
    ..\..\..\Utilities\Third_Party\STemWin528_20150626\GUI\Core\GUI_RectsIntersect.c 0x00000000   Number         0  gui_rectsintersect.o ABSOLUTE
    ..\..\..\Utilities\Third_Party\STemWin528_20150626\GUI\Core\GUI_SPRITE.c 0x00000000   Number         0  gui_sprite.o ABSOLUTE
    ..\..\..\Utilities\Third_Party\STemWin528_20150626\GUI\Core\GUI_SaveContext.c 0x00000000   Number         0  gui_savecontext.o ABSOLUTE
    ..\..\..\Utilities\Third_Party\STemWin528_20150626\GUI\Core\GUI_SelectLCD.c 0x00000000   Number         0  gui_selectlcd.o ABSOLUTE
    ..\..\..\Utilities\Third_Party\STemWin528_20150626\GUI\Core\GUI_SelectLayer.c 0x00000000   Number         0  gui_selectlayer.o ABSOLUTE
    ..\..\..\Utilities\Third_Party\STemWin528_20150626\GUI\Core\GUI_SetAlpha.c 0x00000000   Number         0  gui_setalpha.o ABSOLUTE
    ..\..\..\Utilities\Third_Party\STemWin528_20150626\GUI\Core\GUI_SetColor.c 0x00000000   Number         0  gui_setcolor.o ABSOLUTE
    ..\..\..\Utilities\Third_Party\STemWin528_20150626\GUI\Core\GUI_SetDefault.c 0x00000000   Number         0  gui_setdefault.o ABSOLUTE
    ..\..\..\Utilities\Third_Party\STemWin528_20150626\GUI\Core\GUI_SetDrawMode.c 0x00000000   Number         0  gui_setdrawmode.o ABSOLUTE
    ..\..\..\Utilities\Third_Party\STemWin528_20150626\GUI\Core\GUI_SetFont.c 0x00000000   Number         0  gui_setfont.o ABSOLUTE
    ..\..\..\Utilities\Third_Party\STemWin528_20150626\GUI\Core\GUI_SetLineStyle.c 0x00000000   Number         0  gui_setlinestyle.o ABSOLUTE
    ..\..\..\Utilities\Third_Party\STemWin528_20150626\GUI\Core\GUI_SetOrg.c 0x00000000   Number         0  gui_setorg.o ABSOLUTE
    ..\..\..\Utilities\Third_Party\STemWin528_20150626\GUI\Core\GUI_SetTextAlign.c 0x00000000   Number         0  gui_settextalign.o ABSOLUTE
    ..\..\..\Utilities\Third_Party\STemWin528_20150626\GUI\Core\GUI_SetTextMode.c 0x00000000   Number         0  gui_settextmode.o ABSOLUTE
    ..\..\..\Utilities\Third_Party\STemWin528_20150626\GUI\Core\GUI_TOUCH.c 0x00000000   Number         0  gui_touch.o ABSOLUTE
    ..\..\..\Utilities\Third_Party\STemWin528_20150626\GUI\Core\GUI_Time.c 0x00000000   Number         0  gui_time.o ABSOLUTE
    ..\..\..\Utilities\Third_Party\STemWin528_20150626\GUI\Core\GUI_Timer.c 0x00000000   Number         0  gui_timer.o ABSOLUTE
    ..\..\..\Utilities\Third_Party\STemWin528_20150626\GUI\Core\GUI_UC.c 0x00000000   Number         0  gui_uc.o ABSOLUTE
    ..\..\..\Utilities\Third_Party\STemWin528_20150626\GUI\Core\GUI_UC_EncodeNone.c 0x00000000   Number         0  gui_uc_encodenone.o ABSOLUTE
    ..\..\..\Utilities\Third_Party\STemWin528_20150626\GUI\Core\GUI_WaitEvent.c 0x00000000   Number         0  gui_waitevent.o ABSOLUTE
    ..\..\..\Utilities\Third_Party\STemWin528_20150626\GUI\Core\GUI__Alpha.c 0x00000000   Number         0  gui__alpha.o ABSOLUTE
    ..\..\..\Utilities\Third_Party\STemWin528_20150626\GUI\Core\GUI__CompactPixelIndices.c 0x00000000   Number         0  gui__compactpixelindices.o ABSOLUTE
    ..\..\..\Utilities\Third_Party\STemWin528_20150626\GUI\Core\GUI__DivTbl_15_255.c 0x00000000   Number         0  gui__divtbl_15_255.o ABSOLUTE
    ..\..\..\Utilities\Third_Party\STemWin528_20150626\GUI\Core\GUI__DivTbl_255_15.c 0x00000000   Number         0  gui__divtbl_255_15.o ABSOLUTE
    ..\..\..\Utilities\Third_Party\STemWin528_20150626\GUI\Core\GUI__DivTbl_255_31.c 0x00000000   Number         0  gui__divtbl_255_31.o ABSOLUTE
    ..\..\..\Utilities\Third_Party\STemWin528_20150626\GUI\Core\GUI__DivTbl_255_63.c 0x00000000   Number         0  gui__divtbl_255_63.o ABSOLUTE
    ..\..\..\Utilities\Third_Party\STemWin528_20150626\GUI\Core\GUI__DivTbl_31_255.c 0x00000000   Number         0  gui__divtbl_31_255.o ABSOLUTE
    ..\..\..\Utilities\Third_Party\STemWin528_20150626\GUI\Core\GUI__DivTbl_63_255.c 0x00000000   Number         0  gui__divtbl_63_255.o ABSOLUTE
    ..\..\..\Utilities\Third_Party\STemWin528_20150626\GUI\Core\GUI__ExpandPixelIndices.c 0x00000000   Number         0  gui__expandpixelindices.o ABSOLUTE
    ..\..\..\Utilities\Third_Party\STemWin528_20150626\GUI\Core\GUI__IntersectRect.c 0x00000000   Number         0  gui__intersectrect.o ABSOLUTE
    ..\..\..\Utilities\Third_Party\STemWin528_20150626\GUI\Core\GUI__IntersectRects.c 0x00000000   Number         0  gui__intersectrects.o ABSOLUTE
    ..\..\..\Utilities\Third_Party\STemWin528_20150626\GUI\Core\GUI__ManageCache.c 0x00000000   Number         0  gui__managecache.o ABSOLUTE
    ..\..\..\Utilities\Third_Party\STemWin528_20150626\GUI\Core\GUI__memset.c 0x00000000   Number         0  gui__memset.o ABSOLUTE
    ..\..\..\Utilities\Third_Party\STemWin528_20150626\GUI\Core\LCD.c 0x00000000   Number         0  lcd.o ABSOLUTE
    ..\..\..\Utilities\Third_Party\STemWin528_20150626\GUI\Core\LCD_AA.c 0x00000000   Number         0  lcd_aa.o ABSOLUTE
    ..\..\..\Utilities\Third_Party\STemWin528_20150626\GUI\Core\LCD_Color.c 0x00000000   Number         0  lcd_color.o ABSOLUTE
    ..\..\..\Utilities\Third_Party\STemWin528_20150626\GUI\Core\LCD_GetColorIndex.c 0x00000000   Number         0  lcd_getcolorindex.o ABSOLUTE
    ..\..\..\Utilities\Third_Party\STemWin528_20150626\GUI\Core\LCD_GetEx.c 0x00000000   Number         0  lcd_getex.o ABSOLUTE
    ..\..\..\Utilities\Third_Party\STemWin528_20150626\GUI\Core\LCD_GetNumDisplays.c 0x00000000   Number         0  lcd_getnumdisplays.o ABSOLUTE
    ..\..\..\Utilities\Third_Party\STemWin528_20150626\GUI\Core\LCD_GetP.c 0x00000000   Number         0  lcd_getp.o ABSOLUTE
    ..\..\..\Utilities\Third_Party\STemWin528_20150626\GUI\Core\LCD_GetPixelColor.c 0x00000000   Number         0  lcd_getpixelcolor.o ABSOLUTE
    ..\..\..\Utilities\Third_Party\STemWin528_20150626\GUI\Core\LCD_Mirror.c 0x00000000   Number         0  lcd_mirror.o ABSOLUTE
    ..\..\..\Utilities\Third_Party\STemWin528_20150626\GUI\Core\LCD_ReadRect.c 0x00000000   Number         0  lcd_readrect.o ABSOLUTE
    ..\..\..\Utilities\Third_Party\STemWin528_20150626\GUI\Core\LCD_SelectLCD.c 0x00000000   Number         0  lcd_selectlcd.o ABSOLUTE
    ..\..\..\Utilities\Third_Party\STemWin528_20150626\GUI\Core\LCD_Set.c 0x00000000   Number         0  lcd_set.o ABSOLUTE
    ..\..\..\Utilities\Third_Party\STemWin528_20150626\GUI\Core\LCD_SetClipRectEx.c 0x00000000   Number         0  lcd_setcliprectex.o ABSOLUTE
    ..\..\..\Utilities\Third_Party\STemWin528_20150626\GUI\Core\LCD_UpdateColorIndices.c 0x00000000   Number         0  lcd_updatecolorindices.o ABSOLUTE
    ..\..\..\Utilities\Third_Party\STemWin528_20150626\GUI\DisplayDriver\GUIDRV_Lin_32.c 0x00000000   Number         0  guidrv_lin_32.o ABSOLUTE
    ..\..\..\Utilities\Third_Party\STemWin528_20150626\GUI\Font\F20_1.c 0x00000000   Number         0  f20_1.o ABSOLUTE
    ..\..\..\Utilities\Third_Party\STemWin528_20150626\GUI\Font\F20_ASCII.c 0x00000000   Number         0  f20_ascii.o ABSOLUTE
    ..\..\..\Utilities\Third_Party\STemWin528_20150626\GUI\Font\F6x8.c 0x00000000   Number         0  f6x8.o ABSOLUTE
    ..\..\..\Utilities\Third_Party\STemWin528_20150626\GUI\MemDev\GUIDEV.c 0x00000000   Number         0  guidev.o ABSOLUTE
    ..\..\..\Utilities\Third_Party\STemWin528_20150626\GUI\MemDev\GUIDEV_32.c 0x00000000   Number         0  guidev_32.o ABSOLUTE
    ..\..\..\Utilities\Third_Party\STemWin528_20150626\GUI\MemDev\GUIDEV_Banding.c 0x00000000   Number         0  guidev_banding.o ABSOLUTE
    ..\..\..\Utilities\Third_Party\STemWin528_20150626\GUI\MemDev\GUIDEV_Clear.c 0x00000000   Number         0  guidev_clear.o ABSOLUTE
    ..\..\..\Utilities\Third_Party\STemWin528_20150626\GUI\MemDev\GUIDEV_CreateFixed.c 0x00000000   Number         0  guidev_createfixed.o ABSOLUTE
    ..\..\..\Utilities\Third_Party\STemWin528_20150626\GUI\MemDev\GUIDEV_GetDataPtr.c 0x00000000   Number         0  guidev_getdataptr.o ABSOLUTE
    ..\..\..\Utilities\Third_Party\STemWin528_20150626\GUI\MemDev\GUIDEV_GetPos.c 0x00000000   Number         0  guidev_getpos.o ABSOLUTE
    ..\..\..\Utilities\Third_Party\STemWin528_20150626\GUI\MemDev\GUIDEV_GetXSize.c 0x00000000   Number         0  guidev_getxsize.o ABSOLUTE
    ..\..\..\Utilities\Third_Party\STemWin528_20150626\GUI\MemDev\GUIDEV_GetYSize.c 0x00000000   Number         0  guidev_getysize.o ABSOLUTE
    ..\..\..\Utilities\Third_Party\STemWin528_20150626\GUI\MemDev\GUIDEV_ReduceYSize.c 0x00000000   Number         0  guidev_reduceysize.o ABSOLUTE
    ..\..\..\Utilities\Third_Party\STemWin528_20150626\GUI\MemDev\GUIDEV_SetOrg.c 0x00000000   Number         0  guidev_setorg.o ABSOLUTE
    ..\..\..\Utilities\Third_Party\STemWin528_20150626\GUI\MemDev\GUIDEV_StaticDevices.c 0x00000000   Number         0  guidev_staticdevices.o ABSOLUTE
    ..\..\..\Utilities\Third_Party\STemWin528_20150626\GUI\MemDev\GUIDEV_Usage.c 0x00000000   Number         0  guidev_usage.o ABSOLUTE
    ..\..\..\Utilities\Third_Party\STemWin528_20150626\GUI\MemDev\GUIDEV_UsageBM.c 0x00000000   Number         0  guidev_usagebm.o ABSOLUTE
    ..\..\..\Utilities\Third_Party\STemWin528_20150626\GUI\MemDev\GUIDEV_Write.c 0x00000000   Number         0  guidev_write.o ABSOLUTE
    ..\..\..\Utilities\Third_Party\STemWin528_20150626\GUI\MemDev\GUIDEV_WriteToActiveAlpha.c 0x00000000   Number         0  guidev_writetoactivealpha.o ABSOLUTE
    ..\..\..\Utilities\Third_Party\STemWin528_20150626\GUI\MemDev\GUIDEV_WriteToActiveOpaque.c 0x00000000   Number         0  guidev_writetoactiveopaque.o ABSOLUTE
    ..\..\..\Utilities\Third_Party\STemWin528_20150626\GUI\WM\WM.c 0x00000000   Number         0  wm.o ABSOLUTE
    ..\..\..\Utilities\Third_Party\STemWin528_20150626\GUI\WM\WM_BringToBottom.c 0x00000000   Number         0  wm_bringtobottom.o ABSOLUTE
    ..\..\..\Utilities\Third_Party\STemWin528_20150626\GUI\WM\WM_CriticalHandle.c 0x00000000   Number         0  wm_criticalhandle.o ABSOLUTE
    ..\..\..\Utilities\Third_Party\STemWin528_20150626\GUI\WM\WM_GetClientRect.c 0x00000000   Number         0  wm_getclientrect.o ABSOLUTE
    ..\..\..\Utilities\Third_Party\STemWin528_20150626\GUI\WM\WM_GetDesktopWindow.c 0x00000000   Number         0  wm_getdesktopwindow.o ABSOLUTE
    ..\..\..\Utilities\Third_Party\STemWin528_20150626\GUI\WM\WM_GetDesktopWindowEx.c 0x00000000   Number         0  wm_getdesktopwindowex.o ABSOLUTE
    ..\..\..\Utilities\Third_Party\STemWin528_20150626\GUI\WM\WM_GetFirstChild.c 0x00000000   Number         0  wm_getfirstchild.o ABSOLUTE
    ..\..\..\Utilities\Third_Party\STemWin528_20150626\GUI\WM\WM_GetOrg.c 0x00000000   Number         0  wm_getorg.o ABSOLUTE
    ..\..\..\Utilities\Third_Party\STemWin528_20150626\GUI\WM\WM_GetParent.c 0x00000000   Number         0  wm_getparent.o ABSOLUTE
    ..\..\..\Utilities\Third_Party\STemWin528_20150626\GUI\WM\WM_GetWindowRect.c 0x00000000   Number         0  wm_getwindowrect.o ABSOLUTE
    ..\..\..\Utilities\Third_Party\STemWin528_20150626\GUI\WM\WM_IsWindow.c 0x00000000   Number         0  wm_iswindow.o ABSOLUTE
    ..\..\..\Utilities\Third_Party\STemWin528_20150626\GUI\WM\WM_Move.c 0x00000000   Number         0  wm_move.o ABSOLUTE
    ..\..\..\Utilities\Third_Party\STemWin528_20150626\GUI\WM\WM_NotifyParent.c 0x00000000   Number         0  wm_notifyparent.o ABSOLUTE
    ..\..\..\Utilities\Third_Party\STemWin528_20150626\GUI\WM\WM_OnKey.c 0x00000000   Number         0  wm_onkey.o ABSOLUTE
    ..\..\..\Utilities\Third_Party\STemWin528_20150626\GUI\WM\WM_PID__GetPrevState.c 0x00000000   Number         0  wm_pid__getprevstate.o ABSOLUTE
    ..\..\..\Utilities\Third_Party\STemWin528_20150626\GUI\WM\WM_ResizeWindow.c 0x00000000   Number         0  wm_resizewindow.o ABSOLUTE
    ..\..\..\Utilities\Third_Party\STemWin528_20150626\GUI\WM\WM_Screen2Win.c 0x00000000   Number         0  wm_screen2win.o ABSOLUTE
    ..\..\..\Utilities\Third_Party\STemWin528_20150626\GUI\WM\WM_SendMessageNoPara.c 0x00000000   Number         0  wm_sendmessagenopara.o ABSOLUTE
    ..\..\..\Utilities\Third_Party\STemWin528_20150626\GUI\WM\WM_SendToParent.c 0x00000000   Number         0  wm_sendtoparent.o ABSOLUTE
    ..\..\..\Utilities\Third_Party\STemWin528_20150626\GUI\WM\WM_SetCapture.c 0x00000000   Number         0  wm_setcapture.o ABSOLUTE
    ..\..\..\Utilities\Third_Party\STemWin528_20150626\GUI\WM\WM_SetSize.c 0x00000000   Number         0  wm_setsize.o ABSOLUTE
    ..\..\..\Utilities\Third_Party\STemWin528_20150626\GUI\WM\WM_Timer.c 0x00000000   Number         0  wm_timer.o ABSOLUTE
    ..\..\..\Utilities\Third_Party\STemWin528_20150626\GUI\WM\WM_Touch.c 0x00000000   Number         0  wm_touch.o ABSOLUTE
    ..\..\..\Utilities\Third_Party\STemWin528_20150626\GUI\WM\WM__GetFirstSibling.c 0x00000000   Number         0  wm__getfirstsibling.o ABSOLUTE
    ..\..\..\Utilities\Third_Party\STemWin528_20150626\GUI\WM\WM__GetPrevSibling.c 0x00000000   Number         0  wm__getprevsibling.o ABSOLUTE
    ..\..\..\Utilities\Third_Party\STemWin528_20150626\GUI\WM\WM__IsAncestor.c 0x00000000   Number         0  wm__isancestor.o ABSOLUTE
    ..\..\..\Utilities\Third_Party\STemWin528_20150626\GUI\WM\WM__IsEnabled.c 0x00000000   Number         0  wm__isenabled.o ABSOLUTE
    ..\..\..\Utilities\Third_Party\STemWin528_20150626\GUI\WM\WM__SendMessage.c 0x00000000   Number         0  wm__sendmessage.o ABSOLUTE
    ..\..\..\Utilities\Third_Party\STemWin528_20150626\GUI\WM\WM__SendMessageIfEnabled.c 0x00000000   Number         0  wm__sendmessageifenabled.o ABSOLUTE
    ..\..\..\Utilities\Third_Party\STemWin528_20150626\GUI\WM\WM__SendMessageNoPara.c 0x00000000   Number         0  wm__sendmessagenopara.o ABSOLUTE
    ..\..\..\Utilities\Third_Party\STemWin528_20150626\GUI\WM\WM__UpdateChildPositions.c 0x00000000   Number         0  wm__updatechildpositions.o ABSOLUTE
    ..\Src\BASIC_HelloWorld.c                0x00000000   Number         0  basic_helloworld.o ABSOLUTE
    ..\Src\GUIConf.c                         0x00000000   Number         0  guiconf.o ABSOLUTE
    ..\Src\LCDConf_stm32f429i_disco_MB1075.c 0x00000000   Number         0  lcdconf_stm32f429i_disco_mb1075.o ABSOLUTE
    ..\Src\delay.c                           0x00000000   Number         0  delay.o ABSOLUTE
    ..\Src\hub75.c                           0x00000000   Number         0  hub75.o ABSOLUTE
    ..\Src\main.c                            0x00000000   Number         0  main.o ABSOLUTE
    ..\Src\main_entry.c                      0x00000000   Number         0  main_entry.o ABSOLUTE
    ..\Src\mstimer.c                         0x00000000   Number         0  mstimer.o ABSOLUTE
    ..\Src\stm32f4xx_it.c                    0x00000000   Number         0  stm32f4xx_it.o ABSOLUTE
    ..\Src\system_stm32f4xx.c                0x00000000   Number         0  system_stm32f4xx.o ABSOLUTE
    ..\\Src\\LCDConf_stm32f429i_disco_MB1075.c 0x00000000   Number         0  lcdconf_stm32f429i_disco_mb1075.o ABSOLUTE
    ..\\Src\\delay.c                         0x00000000   Number         0  delay.o ABSOLUTE
    ..\\Src\\hub75.c                         0x00000000   Number         0  hub75.o ABSOLUTE
    ..\\Src\\main.c                          0x00000000   Number         0  main.o ABSOLUTE
    ..\\Src\\main_entry.c                    0x00000000   Number         0  main_entry.o ABSOLUTE
    ..\\Src\\mstimer.c                       0x00000000   Number         0  mstimer.o ABSOLUTE
    ..\\Src\\stm32f4xx_it.c                  0x00000000   Number         0  stm32f4xx_it.o ABSOLUTE
    ..\\Src\\system_stm32f4xx.c              0x00000000   Number         0  system_stm32f4xx.o ABSOLUTE
    D:\STM32Cube\Repository\STM32Cube_FW_F4_V1.11.0\Drivers\BSP\Components\ili9341\ili9341.c 0x00000000   Number         0  ili9341.o ABSOLUTE
    D:\STM32Cube\Repository\STM32Cube_FW_F4_V1.11.0\Drivers\BSP\Components\stmpe811\stmpe811.c 0x00000000   Number         0  stmpe811.o ABSOLUTE
    D:\STM32Cube\Repository\STM32Cube_FW_F4_V1.11.0\Drivers\BSP\STM32F429I-Discovery\stm32f429i_discovery.c 0x00000000   Number         0  stm32f429i_discovery.o ABSOLUTE
    D:\STM32Cube\Repository\STM32Cube_FW_F4_V1.11.0\Drivers\BSP\STM32F429I-Discovery\stm32f429i_discovery_io.c 0x00000000   Number         0  stm32f429i_discovery_io.o ABSOLUTE
    D:\STM32Cube\Repository\STM32Cube_FW_F4_V1.11.0\Drivers\BSP\STM32F429I-Discovery\stm32f429i_discovery_lcd.c 0x00000000   Number         0  stm32f429i_discovery_lcd.o ABSOLUTE
    D:\STM32Cube\Repository\STM32Cube_FW_F4_V1.11.0\Drivers\BSP\STM32F429I-Discovery\stm32f429i_discovery_sdram.c 0x00000000   Number         0  stm32f429i_discovery_sdram.o ABSOLUTE
    D:\STM32Cube\Repository\STM32Cube_FW_F4_V1.11.0\Drivers\BSP\STM32F429I-Discovery\stm32f429i_discovery_ts.c 0x00000000   Number         0  stm32f429i_discovery_ts.o ABSOLUTE
    D:\STM32Cube\Repository\STM32Cube_FW_F4_V1.11.0\Drivers\STM32F4xx_HAL_Driver\Src\stm32f4xx_hal.c 0x00000000   Number         0  stm32f4xx_hal.o ABSOLUTE
    D:\STM32Cube\Repository\STM32Cube_FW_F4_V1.11.0\Drivers\STM32F4xx_HAL_Driver\Src\stm32f4xx_hal_cortex.c 0x00000000   Number         0  stm32f4xx_hal_cortex.o ABSOLUTE
    D:\STM32Cube\Repository\STM32Cube_FW_F4_V1.11.0\Drivers\STM32F4xx_HAL_Driver\Src\stm32f4xx_hal_crc.c 0x00000000   Number         0  stm32f4xx_hal_crc.o ABSOLUTE
    D:\STM32Cube\Repository\STM32Cube_FW_F4_V1.11.0\Drivers\STM32F4xx_HAL_Driver\Src\stm32f4xx_hal_dma.c 0x00000000   Number         0  stm32f4xx_hal_dma.o ABSOLUTE
    D:\STM32Cube\Repository\STM32Cube_FW_F4_V1.11.0\Drivers\STM32F4xx_HAL_Driver\Src\stm32f4xx_hal_dma2d.c 0x00000000   Number         0  stm32f4xx_hal_dma2d.o ABSOLUTE
    D:\STM32Cube\Repository\STM32Cube_FW_F4_V1.11.0\Drivers\STM32F4xx_HAL_Driver\Src\stm32f4xx_hal_flash.c 0x00000000   Number         0  stm32f4xx_hal_flash.o ABSOLUTE
    D:\STM32Cube\Repository\STM32Cube_FW_F4_V1.11.0\Drivers\STM32F4xx_HAL_Driver\Src\stm32f4xx_hal_flash_ex.c 0x00000000   Number         0  stm32f4xx_hal_flash_ex.o ABSOLUTE
    D:\STM32Cube\Repository\STM32Cube_FW_F4_V1.11.0\Drivers\STM32F4xx_HAL_Driver\Src\stm32f4xx_hal_gpio.c 0x00000000   Number         0  stm32f4xx_hal_gpio.o ABSOLUTE
    D:\STM32Cube\Repository\STM32Cube_FW_F4_V1.11.0\Drivers\STM32F4xx_HAL_Driver\Src\stm32f4xx_hal_i2c.c 0x00000000   Number         0  stm32f4xx_hal_i2c.o ABSOLUTE
    D:\STM32Cube\Repository\STM32Cube_FW_F4_V1.11.0\Drivers\STM32F4xx_HAL_Driver\Src\stm32f4xx_hal_i2c_ex.c 0x00000000   Number         0  stm32f4xx_hal_i2c_ex.o ABSOLUTE
    D:\STM32Cube\Repository\STM32Cube_FW_F4_V1.11.0\Drivers\STM32F4xx_HAL_Driver\Src\stm32f4xx_hal_i2s.c 0x00000000   Number         0  stm32f4xx_hal_i2s.o ABSOLUTE
    D:\STM32Cube\Repository\STM32Cube_FW_F4_V1.11.0\Drivers\STM32F4xx_HAL_Driver\Src\stm32f4xx_hal_i2s_ex.c 0x00000000   Number         0  stm32f4xx_hal_i2s_ex.o ABSOLUTE
    D:\STM32Cube\Repository\STM32Cube_FW_F4_V1.11.0\Drivers\STM32F4xx_HAL_Driver\Src\stm32f4xx_hal_ltdc.c 0x00000000   Number         0  stm32f4xx_hal_ltdc.o ABSOLUTE
    D:\STM32Cube\Repository\STM32Cube_FW_F4_V1.11.0\Drivers\STM32F4xx_HAL_Driver\Src\stm32f4xx_hal_pwr.c 0x00000000   Number         0  stm32f4xx_hal_pwr.o ABSOLUTE
    D:\STM32Cube\Repository\STM32Cube_FW_F4_V1.11.0\Drivers\STM32F4xx_HAL_Driver\Src\stm32f4xx_hal_pwr_ex.c 0x00000000   Number         0  stm32f4xx_hal_pwr_ex.o ABSOLUTE
    D:\STM32Cube\Repository\STM32Cube_FW_F4_V1.11.0\Drivers\STM32F4xx_HAL_Driver\Src\stm32f4xx_hal_rcc.c 0x00000000   Number         0  stm32f4xx_hal_rcc.o ABSOLUTE
    D:\STM32Cube\Repository\STM32Cube_FW_F4_V1.11.0\Drivers\STM32F4xx_HAL_Driver\Src\stm32f4xx_hal_rcc_ex.c 0x00000000   Number         0  stm32f4xx_hal_rcc_ex.o ABSOLUTE
    D:\STM32Cube\Repository\STM32Cube_FW_F4_V1.11.0\Drivers\STM32F4xx_HAL_Driver\Src\stm32f4xx_hal_sdram.c 0x00000000   Number         0  stm32f4xx_hal_sdram.o ABSOLUTE
    D:\STM32Cube\Repository\STM32Cube_FW_F4_V1.11.0\Drivers\STM32F4xx_HAL_Driver\Src\stm32f4xx_hal_spi.c 0x00000000   Number         0  stm32f4xx_hal_spi.o ABSOLUTE
    D:\STM32Cube\Repository\STM32Cube_FW_F4_V1.11.0\Drivers\STM32F4xx_HAL_Driver\Src\stm32f4xx_hal_tim.c 0x00000000   Number         0  stm32f4xx_hal_tim.o ABSOLUTE
    D:\STM32Cube\Repository\STM32Cube_FW_F4_V1.11.0\Drivers\STM32F4xx_HAL_Driver\Src\stm32f4xx_hal_tim_ex.c 0x00000000   Number         0  stm32f4xx_hal_tim_ex.o ABSOLUTE
    D:\STM32Cube\Repository\STM32Cube_FW_F4_V1.11.0\Drivers\STM32F4xx_HAL_Driver\Src\stm32f4xx_hal_uart.c 0x00000000   Number         0  stm32f4xx_hal_uart.o ABSOLUTE
    D:\STM32Cube\Repository\STM32Cube_FW_F4_V1.11.0\Drivers\STM32F4xx_HAL_Driver\Src\stm32f4xx_ll_fmc.c 0x00000000   Number         0  stm32f4xx_ll_fmc.o ABSOLUTE
    D:\STM32Cube\Repository\STM32Cube_FW_F4_V1.11.0\Middlewares\ST\STemWin\OS\GUI_X.c 0x00000000   Number         0  gui_x.o ABSOLUTE
    D:\\STM32Cube\\Repository\\STM32Cube_FW_F4_V1.11.0\\Drivers\\BSP\\STM32F429I-Discovery\\stm32f429i_discovery.c 0x00000000   Number         0  stm32f429i_discovery.o ABSOLUTE
    D:\\STM32Cube\\Repository\\STM32Cube_FW_F4_V1.11.0\\Drivers\\BSP\\STM32F429I-Discovery\\stm32f429i_discovery_io.c 0x00000000   Number         0  stm32f429i_discovery_io.o ABSOLUTE
    D:\\STM32Cube\\Repository\\STM32Cube_FW_F4_V1.11.0\\Drivers\\BSP\\STM32F429I-Discovery\\stm32f429i_discovery_lcd.c 0x00000000   Number         0  stm32f429i_discovery_lcd.o ABSOLUTE
    D:\\STM32Cube\\Repository\\STM32Cube_FW_F4_V1.11.0\\Drivers\\BSP\\STM32F429I-Discovery\\stm32f429i_discovery_sdram.c 0x00000000   Number         0  stm32f429i_discovery_sdram.o ABSOLUTE
    D:\\STM32Cube\\Repository\\STM32Cube_FW_F4_V1.11.0\\Drivers\\BSP\\STM32F429I-Discovery\\stm32f429i_discovery_ts.c 0x00000000   Number         0  stm32f429i_discovery_ts.o ABSOLUTE
    D:\\STM32Cube\\Repository\\STM32Cube_FW_F4_V1.11.0\\Drivers\\STM32F4xx_HAL_Driver\\Src\\stm32f4xx_hal.c 0x00000000   Number         0  stm32f4xx_hal.o ABSOLUTE
    D:\\STM32Cube\\Repository\\STM32Cube_FW_F4_V1.11.0\\Drivers\\STM32F4xx_HAL_Driver\\Src\\stm32f4xx_hal_cortex.c 0x00000000   Number         0  stm32f4xx_hal_cortex.o ABSOLUTE
    D:\\STM32Cube\\Repository\\STM32Cube_FW_F4_V1.11.0\\Drivers\\STM32F4xx_HAL_Driver\\Src\\stm32f4xx_hal_crc.c 0x00000000   Number         0  stm32f4xx_hal_crc.o ABSOLUTE
    D:\\STM32Cube\\Repository\\STM32Cube_FW_F4_V1.11.0\\Drivers\\STM32F4xx_HAL_Driver\\Src\\stm32f4xx_hal_dma.c 0x00000000   Number         0  stm32f4xx_hal_dma.o ABSOLUTE
    D:\\STM32Cube\\Repository\\STM32Cube_FW_F4_V1.11.0\\Drivers\\STM32F4xx_HAL_Driver\\Src\\stm32f4xx_hal_dma2d.c 0x00000000   Number         0  stm32f4xx_hal_dma2d.o ABSOLUTE
    D:\\STM32Cube\\Repository\\STM32Cube_FW_F4_V1.11.0\\Drivers\\STM32F4xx_HAL_Driver\\Src\\stm32f4xx_hal_flash.c 0x00000000   Number         0  stm32f4xx_hal_flash.o ABSOLUTE
    D:\\STM32Cube\\Repository\\STM32Cube_FW_F4_V1.11.0\\Drivers\\STM32F4xx_HAL_Driver\\Src\\stm32f4xx_hal_flash_ex.c 0x00000000   Number         0  stm32f4xx_hal_flash_ex.o ABSOLUTE
    D:\\STM32Cube\\Repository\\STM32Cube_FW_F4_V1.11.0\\Drivers\\STM32F4xx_HAL_Driver\\Src\\stm32f4xx_hal_gpio.c 0x00000000   Number         0  stm32f4xx_hal_gpio.o ABSOLUTE
    D:\\STM32Cube\\Repository\\STM32Cube_FW_F4_V1.11.0\\Drivers\\STM32F4xx_HAL_Driver\\Src\\stm32f4xx_hal_i2c.c 0x00000000   Number         0  stm32f4xx_hal_i2c.o ABSOLUTE
    D:\\STM32Cube\\Repository\\STM32Cube_FW_F4_V1.11.0\\Drivers\\STM32F4xx_HAL_Driver\\Src\\stm32f4xx_hal_i2c_ex.c 0x00000000   Number         0  stm32f4xx_hal_i2c_ex.o ABSOLUTE
    D:\\STM32Cube\\Repository\\STM32Cube_FW_F4_V1.11.0\\Drivers\\STM32F4xx_HAL_Driver\\Src\\stm32f4xx_hal_i2s.c 0x00000000   Number         0  stm32f4xx_hal_i2s.o ABSOLUTE
    D:\\STM32Cube\\Repository\\STM32Cube_FW_F4_V1.11.0\\Drivers\\STM32F4xx_HAL_Driver\\Src\\stm32f4xx_hal_i2s_ex.c 0x00000000   Number         0  stm32f4xx_hal_i2s_ex.o ABSOLUTE
    D:\\STM32Cube\\Repository\\STM32Cube_FW_F4_V1.11.0\\Drivers\\STM32F4xx_HAL_Driver\\Src\\stm32f4xx_hal_ltdc.c 0x00000000   Number         0  stm32f4xx_hal_ltdc.o ABSOLUTE
    D:\\STM32Cube\\Repository\\STM32Cube_FW_F4_V1.11.0\\Drivers\\STM32F4xx_HAL_Driver\\Src\\stm32f4xx_hal_pwr.c 0x00000000   Number         0  stm32f4xx_hal_pwr.o ABSOLUTE
    D:\\STM32Cube\\Repository\\STM32Cube_FW_F4_V1.11.0\\Drivers\\STM32F4xx_HAL_Driver\\Src\\stm32f4xx_hal_pwr_ex.c 0x00000000   Number         0  stm32f4xx_hal_pwr_ex.o ABSOLUTE
    D:\\STM32Cube\\Repository\\STM32Cube_FW_F4_V1.11.0\\Drivers\\STM32F4xx_HAL_Driver\\Src\\stm32f4xx_hal_rcc.c 0x00000000   Number         0  stm32f4xx_hal_rcc.o ABSOLUTE
    D:\\STM32Cube\\Repository\\STM32Cube_FW_F4_V1.11.0\\Drivers\\STM32F4xx_HAL_Driver\\Src\\stm32f4xx_hal_rcc_ex.c 0x00000000   Number         0  stm32f4xx_hal_rcc_ex.o ABSOLUTE
    D:\\STM32Cube\\Repository\\STM32Cube_FW_F4_V1.11.0\\Drivers\\STM32F4xx_HAL_Driver\\Src\\stm32f4xx_hal_sdram.c 0x00000000   Number         0  stm32f4xx_hal_sdram.o ABSOLUTE
    D:\\STM32Cube\\Repository\\STM32Cube_FW_F4_V1.11.0\\Drivers\\STM32F4xx_HAL_Driver\\Src\\stm32f4xx_hal_spi.c 0x00000000   Number         0  stm32f4xx_hal_spi.o ABSOLUTE
    D:\\STM32Cube\\Repository\\STM32Cube_FW_F4_V1.11.0\\Drivers\\STM32F4xx_HAL_Driver\\Src\\stm32f4xx_hal_tim.c 0x00000000   Number         0  stm32f4xx_hal_tim.o ABSOLUTE
    D:\\STM32Cube\\Repository\\STM32Cube_FW_F4_V1.11.0\\Drivers\\STM32F4xx_HAL_Driver\\Src\\stm32f4xx_hal_tim_ex.c 0x00000000   Number         0  stm32f4xx_hal_tim_ex.o ABSOLUTE
    D:\\STM32Cube\\Repository\\STM32Cube_FW_F4_V1.11.0\\Drivers\\STM32F4xx_HAL_Driver\\Src\\stm32f4xx_hal_uart.c 0x00000000   Number         0  stm32f4xx_hal_uart.o ABSOLUTE
    D:\\STM32Cube\\Repository\\STM32Cube_FW_F4_V1.11.0\\Drivers\\STM32F4xx_HAL_Driver\\Src\\stm32f4xx_ll_fmc.c 0x00000000   Number         0  stm32f4xx_ll_fmc.o ABSOLUTE
    cdcmple.s                                0x00000000   Number         0  cdcmple.o ABSOLUTE
    cdrcmple.s                               0x00000000   Number         0  cdrcmple.o ABSOLUTE
    dc.s                                     0x00000000   Number         0  dc.o ABSOLUTE
    handlers.s                               0x00000000   Number         0  handlers.o ABSOLUTE
    init.s                                   0x00000000   Number         0  init.o ABSOLUTE
    startup_stm32f429xx.s                    0x00000000   Number         0  startup_stm32f429xx.o ABSOLUTE
    RESET                                    0x08000000   Section      428  startup_stm32f429xx.o(RESET)
    .ARM.Collect$$$$00000000                 0x080001ac   Section        0  entry.o(.ARM.Collect$$$$00000000)
    .ARM.Collect$$$$00000001                 0x080001ac   Section        4  entry2.o(.ARM.Collect$$$$00000001)
    .ARM.Collect$$$$00000004                 0x080001b0   Section        4  entry5.o(.ARM.Collect$$$$00000004)
    .ARM.Collect$$$$00000008                 0x080001b4   Section        0  entry7b.o(.ARM.Collect$$$$00000008)
    .ARM.Collect$$$$0000000A                 0x080001b4   Section        0  entry8b.o(.ARM.Collect$$$$0000000A)
    .ARM.Collect$$$$0000000B                 0x080001b4   Section        8  entry9a.o(.ARM.Collect$$$$0000000B)
    .ARM.Collect$$$$0000000D                 0x080001bc   Section        0  entry10a.o(.ARM.Collect$$$$0000000D)
    .ARM.Collect$$$$0000000F                 0x080001bc   Section        0  entry11a.o(.ARM.Collect$$$$0000000F)
    .ARM.Collect$$$$00002712                 0x080001bc   Section        4  entry2.o(.ARM.Collect$$$$00002712)
    __lit__00000000                          0x080001bc   Data           4  entry2.o(.ARM.Collect$$$$00002712)
    .text                                    0x080001c0   Section       36  startup_stm32f429xx.o(.text)
    $v0                                      0x080001c0   Number         0  startup_stm32f429xx.o(.text)
    .text                                    0x080001e4   Section        0  uldiv.o(.text)
    .text                                    0x08000246   Section        0  memmovea.o(.text)
    .text                                    0x08000286   Section        0  memseta.o(.text)
    .text                                    0x080002aa   Section        0  memcmp.o(.text)
    .text                                    0x080002c4   Section        0  dadd.o(.text)
    .text                                    0x08000412   Section        0  dmul.o(.text)
    .text                                    0x080004f6   Section        0  f2d.o(.text)
    .text                                    0x0800051c   Section        0  d2f.o(.text)
    .text                                    0x08000554   Section        0  llshl.o(.text)
    .text                                    0x08000572   Section        0  llushr.o(.text)
    .text                                    0x08000592   Section        0  llsshr.o(.text)
    .text                                    0x080005b6   Section        0  iusefp.o(.text)
    .text                                    0x080005b6   Section        0  fepilogue.o(.text)
    .text                                    0x08000624   Section        0  depilogue.o(.text)
    .text                                    0x080006de   Section        0  ddiv.o(.text)
    .text                                    0x080007bc   Section        0  dscalb.o(.text)
    .text                                    0x080007ea   Section        0  dflti.o(.text)
    .text                                    0x0800080c   Section       48  cdrcmple.o(.text)
    .text                                    0x0800083c   Section       36  init.o(.text)
    .text                                    0x08000860   Section        0  dsqrt.o(.text)
    .text                                    0x08000902   Section        0  __dczerorl2.o(.text)
    i.BSP_LED_Init                           0x08000958   Section        0  stm32f429i_discovery.o(i.BSP_LED_Init)
    i.BSP_Pointer_Update                     0x080009b4   Section        0  main.o(i.BSP_Pointer_Update)
    i.BSP_SDRAM_Init                         0x08000a30   Section        0  stm32f429i_discovery_sdram.o(i.BSP_SDRAM_Init)
    i.BSP_SDRAM_Initialization_sequence      0x08000bec   Section        0  stm32f429i_discovery_sdram.o(i.BSP_SDRAM_Initialization_sequence)
    i.BSP_TS_GetState                        0x08000c7c   Section        0  stm32f429i_discovery_ts.o(i.BSP_TS_GetState)
    i.BSP_TS_Init                            0x08000d30   Section        0  stm32f429i_discovery_ts.o(i.BSP_TS_Init)
    i.BusFault_Handler                       0x08000d68   Section        0  stm32f4xx_it.o(i.BusFault_Handler)
    i.DebugMon_Handler                       0x08000d6a   Section        0  stm32f4xx_it.o(i.DebugMon_Handler)
    i.FMC_SDRAM_Init                         0x08000d6c   Section        0  stm32f4xx_ll_fmc.o(i.FMC_SDRAM_Init)
    i.FMC_SDRAM_ProgramRefreshRate           0x08000dc2   Section        0  stm32f4xx_ll_fmc.o(i.FMC_SDRAM_ProgramRefreshRate)
    i.FMC_SDRAM_SendCommand                  0x08000dce   Section        0  stm32f4xx_ll_fmc.o(i.FMC_SDRAM_SendCommand)
    i.FMC_SDRAM_Timing_Init                  0x08000e20   Section        0  stm32f4xx_ll_fmc.o(i.FMC_SDRAM_Timing_Init)
    i.GUIMONO_DispChar                       0x08000eb0   Section        0  gui_charm.o(i.GUIMONO_DispChar)
    i.GUIMONO_GetCharDistX                   0x08000fe4   Section        0  gui_charm.o(i.GUIMONO_GetCharDistX)
    i.GUIMONO_GetFontInfo                    0x08000ffc   Section        0  gui_charm.o(i.GUIMONO_GetFontInfo)
    i.GUIMONO_IsInFont                       0x08001002   Section        0  gui_charm.o(i.GUIMONO_IsInFont)
    i.GUI_ALLOC_AllocNoInit                  0x0800103a   Section        0  gui_alloc.o(i.GUI_ALLOC_AllocNoInit)
    i.GUI_ALLOC_Free                         0x08001044   Section        0  gui_alloc.o(i.GUI_ALLOC_Free)
    i.GUI_ALLOC_FreeFixedBlock               0x0800107c   Section        0  gui_alloc.o(i.GUI_ALLOC_FreeFixedBlock)
    i.GUI_ALLOC_GetMaxSize                   0x08001094   Section        0  gui_alloc.o(i.GUI_ALLOC_GetMaxSize)
    i.GUI_ALLOC_LockH                        0x080010d4   Section        0  gui_alloc.o(i.GUI_ALLOC_LockH)
    i.GUI_ALLOC_UnlockH                      0x080010f0   Section        0  gui_alloc.o(i.GUI_ALLOC_UnlockH)
    i.GUI_ALLOC_h2p                          0x08001120   Section        0  gui_alloc.o(i.GUI_ALLOC_h2p)
    i.GUI_CURSOR_SetPositionEx               0x08001138   Section        0  gui_curs1.o(i.GUI_CURSOR_SetPositionEx)
    i.GUI_DEVICE_Delete                      0x080011a8   Section        0  gui_device.o(i.GUI_DEVICE_Delete)
    i.GUI_DEVICE_Link                        0x080011ac   Section        0  gui_device.o(i.GUI_DEVICE_Link)
    i.GUI_DEVICE_Unlink                      0x08001234   Section        0  gui_device.o(i.GUI_DEVICE_Unlink)
    i.GUI_DEVICE__GetpDriver                 0x08001238   Section        0  gui_device.o(i.GUI_DEVICE__GetpDriver)
    i.GUI_GetBitmapPixelIndex                0x0800125c   Section        0  gui_getbitmappixelindex.o(i.GUI_GetBitmapPixelIndex)
    i.GUI_GetBitmapPixelIndexEx              0x08001272   Section        0  gui_getbitmappixelindex.o(i.GUI_GetBitmapPixelIndexEx)
    i.GUI_GetCursorLayer                     0x080012fc   Section        0  gui_selectlayer.o(i.GUI_GetCursorLayer)
    i.GUI_GetLayerPosEx                      0x08001310   Section        0  gui_selectlayer.o(i.GUI_GetLayerPosEx)
    i.GUI_MEMDEV_Delete                      0x08001328   Section        0  guidev.o(i.GUI_MEMDEV_Delete)
    i.GUI_MEMDEV_Select                      0x08001368   Section        0  guidev.o(i.GUI_MEMDEV_Select)
    i.GUI_MULTIBUF_ConfirmEx                 0x080013ac   Section        0  gui_multibuf.o(i.GUI_MULTIBUF_ConfirmEx)
    i.GUI_MergeRect                          0x080013d8   Section        0  gui_mergerect.o(i.GUI_MergeRect)
    i.GUI_MoveRect                           0x08001430   Section        0  gui_moverect.o(i.GUI_MoveRect)
    i.GUI_PID_GetState                       0x08001450   Section        0  gui_pid.o(i.GUI_PID_GetState)
    i.GUI_PID_IsEmpty                        0x08001494   Section        0  gui_pid.o(i.GUI_PID_IsEmpty)
    i.GUI_PID_StoreState                     0x080014ac   Section        0  gui_pid.o(i.GUI_PID_StoreState)
    i.GUI_SPRITE_SetPosition                 0x080014c8   Section        0  gui_sprite.o(i.GUI_SPRITE_SetPosition)
    i.GUI_SelectLCD                          0x080014d2   Section        0  gui_selectlcd.o(i.GUI_SelectLCD)
    i.GUI_SetLayerPosEx                      0x080014e4   Section        0  gui_selectlayer.o(i.GUI_SetLayerPosEx)
    i.GUI_SignalEvent                        0x080014e8   Section        0  gui_waitevent.o(i.GUI_SignalEvent)
    i.GUI_TOUCH_StoreStateEx                 0x080014f8   Section        0  gui_touch.o(i.GUI_TOUCH_StoreStateEx)
    i.GUI_USAGE_DecUseCnt                    0x08001524   Section        0  guidev_usage.o(i.GUI_USAGE_DecUseCnt)
    i.GUI_X_ExecIdle                         0x08001548   Section        0  gui_x.o(i.GUI_X_ExecIdle)
    i.GUI__CompactPixelIndices               0x0800154c   Section        0  gui__compactpixelindices.o(i.GUI__CompactPixelIndices)
    i.GUI__IntersectRect                     0x08001670   Section        0  gui__intersectrect.o(i.GUI__IntersectRect)
    i.GUI__IntersectRects                    0x080016aa   Section        0  gui__intersectrects.o(i.GUI__IntersectRects)
    i.GUI__MixColors                         0x080016fc   Section        0  gui__alpha.o(i.GUI__MixColors)
    i.GUI__RegisterExit                      0x08001764   Section        0  gui_core.o(i.GUI__RegisterExit)
    i.GUI__memset                            0x08001774   Section        0  gui__memset.o(i.GUI__memset)
    i.HAL_DMA_DeInit                         0x080017c0   Section        0  stm32f4xx_hal_dma.o(i.HAL_DMA_DeInit)
    i.HAL_DMA_Init                           0x08001840   Section        0  stm32f4xx_hal_dma.o(i.HAL_DMA_Init)
    i.HAL_Delay                              0x080018f0   Section        0  stm32f4xx_hal.o(i.HAL_Delay)
    i.HAL_GPIO_Init                          0x08001908   Section        0  stm32f4xx_hal_gpio.o(i.HAL_GPIO_Init)
    i.HAL_GPIO_WritePin                      0x08001b3c   Section        0  stm32f4xx_hal_gpio.o(i.HAL_GPIO_WritePin)
    i.HAL_GetTick                            0x08001b48   Section        0  stm32f4xx_hal.o(i.HAL_GetTick)
    i.HAL_I2C_DeInit                         0x08001b54   Section        0  stm32f4xx_hal_i2c.o(i.HAL_I2C_DeInit)
    i.HAL_I2C_GetState                       0x08001b8a   Section        0  stm32f4xx_hal_i2c.o(i.HAL_I2C_GetState)
    i.HAL_I2C_Init                           0x08001b90   Section        0  stm32f4xx_hal_i2c.o(i.HAL_I2C_Init)
    i.HAL_I2C_Mem_Read                       0x08001c98   Section        0  stm32f4xx_hal_i2c.o(i.HAL_I2C_Mem_Read)
    i.HAL_I2C_Mem_Write                      0x08001e88   Section        0  stm32f4xx_hal_i2c.o(i.HAL_I2C_Mem_Write)
    i.HAL_I2C_MspDeInit                      0x08001f94   Section        0  stm32f4xx_hal_i2c.o(i.HAL_I2C_MspDeInit)
    i.HAL_I2C_MspInit                        0x08001f96   Section        0  stm32f4xx_hal_i2c.o(i.HAL_I2C_MspInit)
    i.HAL_IncTick                            0x08001f98   Section        0  stm32f4xx_hal.o(i.HAL_IncTick)
    i.HAL_Init                               0x08001fa8   Section        0  stm32f4xx_hal.o(i.HAL_Init)
    i.HAL_InitTick                           0x08001fdc   Section        0  stm32f4xx_hal.o(i.HAL_InitTick)
    i.HAL_LTDC_ErrorCallback                 0x08001ffe   Section        0  stm32f4xx_hal_ltdc.o(i.HAL_LTDC_ErrorCallback)
    i.HAL_LTDC_IRQHandler                    0x08002000   Section        0  stm32f4xx_hal_ltdc.o(i.HAL_LTDC_IRQHandler)
    i.HAL_LTDC_LineEventCallback             0x080020b0   Section        0  lcdconf_stm32f429i_disco_mb1075.o(i.HAL_LTDC_LineEventCallback)
    i.HAL_LTDC_ProgramLineEvent              0x08002114   Section        0  stm32f4xx_hal_ltdc.o(i.HAL_LTDC_ProgramLineEvent)
    i.HAL_LTDC_SetAddress                    0x08002150   Section        0  stm32f4xx_hal_ltdc.o(i.HAL_LTDC_SetAddress)
    i.HAL_MspInit                            0x08002196   Section        0  stm32f4xx_hal.o(i.HAL_MspInit)
    i.HAL_NVIC_ClearPendingIRQ               0x08002198   Section        0  stm32f4xx_hal_cortex.o(i.HAL_NVIC_ClearPendingIRQ)
    i.HAL_NVIC_EnableIRQ                     0x080021b0   Section        0  stm32f4xx_hal_cortex.o(i.HAL_NVIC_EnableIRQ)
    i.HAL_NVIC_SetPriority                   0x080021c8   Section        0  stm32f4xx_hal_cortex.o(i.HAL_NVIC_SetPriority)
    i.HAL_NVIC_SetPriorityGrouping           0x0800222c   Section        0  stm32f4xx_hal_cortex.o(i.HAL_NVIC_SetPriorityGrouping)
    i.HAL_PWREx_EnableOverDrive              0x08002250   Section        0  stm32f4xx_hal_pwr_ex.o(i.HAL_PWREx_EnableOverDrive)
    i.HAL_RCC_ClockConfig                    0x080022ec   Section        0  stm32f4xx_hal_rcc.o(i.HAL_RCC_ClockConfig)
    i.HAL_RCC_GetHCLKFreq                    0x08002474   Section        0  stm32f4xx_hal_rcc.o(i.HAL_RCC_GetHCLKFreq)
    i.HAL_RCC_GetPCLK1Freq                   0x080024a8   Section        0  stm32f4xx_hal_rcc.o(i.HAL_RCC_GetPCLK1Freq)
    i.HAL_RCC_GetSysClockFreq                0x080024f4   Section        0  stm32f4xx_hal_rcc.o(i.HAL_RCC_GetSysClockFreq)
    i.HAL_RCC_OscConfig                      0x08002584   Section        0  stm32f4xx_hal_rcc.o(i.HAL_RCC_OscConfig)
    i.HAL_SDRAM_Init                         0x080028e8   Section        0  stm32f4xx_hal_sdram.o(i.HAL_SDRAM_Init)
    i.HAL_SDRAM_MspInit                      0x0800292a   Section        0  stm32f4xx_hal_sdram.o(i.HAL_SDRAM_MspInit)
    i.HAL_SDRAM_ProgramRefreshRate           0x0800292c   Section        0  stm32f4xx_hal_sdram.o(i.HAL_SDRAM_ProgramRefreshRate)
    i.HAL_SDRAM_SendCommand                  0x08002950   Section        0  stm32f4xx_hal_sdram.o(i.HAL_SDRAM_SendCommand)
    i.HAL_SYSTICK_Config                     0x08002980   Section        0  stm32f4xx_hal_cortex.o(i.HAL_SYSTICK_Config)
    i.HAL_TIMEx_BreakCallback                0x080029ac   Section        0  stm32f4xx_hal_tim_ex.o(i.HAL_TIMEx_BreakCallback)
    i.HAL_TIMEx_CommutationCallback          0x080029ae   Section        0  stm32f4xx_hal_tim_ex.o(i.HAL_TIMEx_CommutationCallback)
    i.HAL_TIM_Base_Init                      0x080029b0   Section        0  stm32f4xx_hal_tim.o(i.HAL_TIM_Base_Init)
    i.HAL_TIM_Base_MspInit                   0x080029e8   Section        0  main.o(i.HAL_TIM_Base_MspInit)
    i.HAL_TIM_Base_Start                     0x08002a14   Section        0  stm32f4xx_hal_tim.o(i.HAL_TIM_Base_Start)
    i.HAL_TIM_Base_Start_IT                  0x08002a2e   Section        0  stm32f4xx_hal_tim.o(i.HAL_TIM_Base_Start_IT)
    i.HAL_TIM_ConfigClockSource              0x08002a46   Section        0  stm32f4xx_hal_tim.o(i.HAL_TIM_ConfigClockSource)
    i.HAL_TIM_IC_CaptureCallback             0x08002bfe   Section        0  stm32f4xx_hal_tim.o(i.HAL_TIM_IC_CaptureCallback)
    i.HAL_TIM_IRQHandler                     0x08002c00   Section        0  stm32f4xx_hal_tim.o(i.HAL_TIM_IRQHandler)
    i.HAL_TIM_OC_ConfigChannel               0x08002d6c   Section        0  stm32f4xx_hal_tim.o(i.HAL_TIM_OC_ConfigChannel)
    i.HAL_TIM_OC_DelayElapsedCallback        0x08002e6c   Section        0  stm32f4xx_hal_tim.o(i.HAL_TIM_OC_DelayElapsedCallback)
    i.HAL_TIM_OC_Init                        0x08002e6e   Section        0  stm32f4xx_hal_tim.o(i.HAL_TIM_OC_Init)
    i.HAL_TIM_OC_MspInit                     0x08002ea4   Section        0  stm32f4xx_hal_tim.o(i.HAL_TIM_OC_MspInit)
    i.HAL_TIM_PWM_PulseFinishedCallback      0x08002ea6   Section        0  stm32f4xx_hal_tim.o(i.HAL_TIM_PWM_PulseFinishedCallback)
    i.HAL_TIM_PWM_Start                      0x08002ea8   Section        0  stm32f4xx_hal_tim.o(i.HAL_TIM_PWM_Start)
    i.HAL_TIM_PeriodElapsedCallback          0x08002ee0   Section        0  main.o(i.HAL_TIM_PeriodElapsedCallback)
    i.HAL_TIM_TriggerCallback                0x08002ef4   Section        0  stm32f4xx_hal_tim.o(i.HAL_TIM_TriggerCallback)
    i.HardFault_Handler                      0x08002ef6   Section        0  stm32f4xx_it.o(i.HardFault_Handler)
    i.I2C_RequestMemoryRead                  0x08002ef8   Section        0  stm32f4xx_hal_i2c.o(i.I2C_RequestMemoryRead)
    I2C_RequestMemoryRead                    0x08002ef9   Thumb Code   252  stm32f4xx_hal_i2c.o(i.I2C_RequestMemoryRead)
    i.I2C_RequestMemoryWrite                 0x08002ff8   Section        0  stm32f4xx_hal_i2c.o(i.I2C_RequestMemoryWrite)
    I2C_RequestMemoryWrite                   0x08002ff9   Thumb Code   164  stm32f4xx_hal_i2c.o(i.I2C_RequestMemoryWrite)
    i.I2C_WaitOnFlagUntilTimeout             0x080030a0   Section        0  stm32f4xx_hal_i2c.o(i.I2C_WaitOnFlagUntilTimeout)
    I2C_WaitOnFlagUntilTimeout               0x080030a1   Thumb Code   230  stm32f4xx_hal_i2c.o(i.I2C_WaitOnFlagUntilTimeout)
    i.I2C_WaitOnMasterAddressFlagUntilTimeout 0x08003186   Section        0  stm32f4xx_hal_i2c.o(i.I2C_WaitOnMasterAddressFlagUntilTimeout)
    I2C_WaitOnMasterAddressFlagUntilTimeout  0x08003187   Thumb Code   188  stm32f4xx_hal_i2c.o(i.I2C_WaitOnMasterAddressFlagUntilTimeout)
    i.I2C_WaitOnRXNEFlagUntilTimeout         0x08003242   Section        0  stm32f4xx_hal_i2c.o(i.I2C_WaitOnRXNEFlagUntilTimeout)
    I2C_WaitOnRXNEFlagUntilTimeout           0x08003243   Thumb Code   118  stm32f4xx_hal_i2c.o(i.I2C_WaitOnRXNEFlagUntilTimeout)
    i.I2C_WaitOnTXEFlagUntilTimeout          0x080032b8   Section        0  stm32f4xx_hal_i2c.o(i.I2C_WaitOnTXEFlagUntilTimeout)
    I2C_WaitOnTXEFlagUntilTimeout            0x080032b9   Thumb Code   128  stm32f4xx_hal_i2c.o(i.I2C_WaitOnTXEFlagUntilTimeout)
    i.I2Cx_Init                              0x08003338   Section        0  stm32f429i_discovery.o(i.I2Cx_Init)
    I2Cx_Init                                0x08003339   Thumb Code   204  stm32f429i_discovery.o(i.I2Cx_Init)
    i.IOE_Delay                              0x08003424   Section        0  stm32f429i_discovery.o(i.IOE_Delay)
    i.IOE_ITConfig                           0x08003428   Section        0  stm32f429i_discovery.o(i.IOE_ITConfig)
    i.IOE_Init                               0x08003478   Section        0  stm32f429i_discovery.o(i.IOE_Init)
    i.IOE_Read                               0x0800347c   Section        0  stm32f429i_discovery.o(i.IOE_Read)
    i.IOE_ReadMultiple                       0x080034c4   Section        0  stm32f429i_discovery.o(i.IOE_ReadMultiple)
    i.IOE_Write                              0x08003504   Section        0  stm32f429i_discovery.o(i.IOE_Write)
    i.LCD_Color2Index                        0x08003548   Section        0  lcd.o(i.LCD_Color2Index)
    i.LCD_DrawBitmap                         0x08003564   Section        0  lcd.o(i.LCD_DrawBitmap)
    i.LCD_FillRect                           0x08003768   Section        0  lcd.o(i.LCD_FillRect)
    i.LCD_GetPosEx                           0x080037c0   Section        0  lcd_set.o(i.LCD_GetPosEx)
    i.LCD_GetXSizeEx                         0x080037ec   Section        0  lcd_getex.o(i.LCD_GetXSizeEx)
    i.LCD_GetYSizeEx                         0x080037f2   Section        0  lcd_getex.o(i.LCD_GetYSizeEx)
    i.LCD_GetpPalConvTableBM                 0x080037f8   Section        0  lcd_color.o(i.LCD_GetpPalConvTableBM)
    i.LCD_GetpPalConvTableUncached           0x080037fc   Section        0  lcd_color.o(i.LCD_GetpPalConvTableUncached)
    i.LCD_SelectLCD                          0x08003844   Section        0  lcd_selectlcd.o(i.LCD_SelectLCD)
    i.LCD_SetBkColorIndex                    0x08003884   Section        0  lcd.o(i.LCD_SetBkColorIndex)
    i.LCD_SetClipRectMax                     0x0800389c   Section        0  lcd.o(i.LCD_SetClipRectMax)
    i.LCD_SetColorIndex                      0x080038b8   Section        0  lcd.o(i.LCD_SetColorIndex)
    i.LCD_SetDrawMode                        0x080038d0   Section        0  lcd.o(i.LCD_SetDrawMode)
    i.LCD_SetPosEx                           0x080038dc   Section        0  lcd_set.o(i.LCD_SetPosEx)
    i.LCD_UpdateColorIndices                 0x08003908   Section        0  lcd_updatecolorindices.o(i.LCD_UpdateColorIndices)
    i.LTDC_IRQHandler                        0x0800392c   Section        0  stm32f4xx_it.o(i.LTDC_IRQHandler)
    i.LTDC_SetConfig                         0x08003938   Section        0  stm32f4xx_hal_ltdc.o(i.LTDC_SetConfig)
    LTDC_SetConfig                           0x08003939   Thumb Code   448  stm32f4xx_hal_ltdc.o(i.LTDC_SetConfig)
    i.MemManage_Handler                      0x08003af8   Section        0  stm32f4xx_it.o(i.MemManage_Handler)
    i.NMI_Handler                            0x08003afa   Section        0  stm32f4xx_it.o(i.NMI_Handler)
    i.SysTick_Handler                        0x08003afc   Section        0  stm32f4xx_it.o(i.SysTick_Handler)
    i.SystemInit                             0x08003b10   Section        0  system_stm32f4xx.o(i.SystemInit)
    i.TIM1_BRK_TIM9_IRQHandler               0x08003b68   Section        0  hub75.o(i.TIM1_BRK_TIM9_IRQHandler)
    i.TIM2_IRQHandler                        0x08003b90   Section        0  mstimer.o(i.TIM2_IRQHandler)
    i.TIM3_IRQHandler                        0x08003c08   Section        0  stm32f4xx_it.o(i.TIM3_IRQHandler)
    i.TIM4_IRQHandler                        0x08003c14   Section        0  mstimer.o(i.TIM4_IRQHandler)
    i.TIM_Base_SetConfig                     0x08003c3c   Section        0  stm32f4xx_hal_tim.o(i.TIM_Base_SetConfig)
    i.TIM_CCxChannelCmd                      0x08003d00   Section        0  stm32f4xx_hal_tim.o(i.TIM_CCxChannelCmd)
    i.TIM_OC1_SetConfig                      0x08003d1a   Section        0  stm32f4xx_hal_tim.o(i.TIM_OC1_SetConfig)
    TIM_OC1_SetConfig                        0x08003d1b   Thumb Code    96  stm32f4xx_hal_tim.o(i.TIM_OC1_SetConfig)
    i.TIM_OC2_SetConfig                      0x08003d7a   Section        0  stm32f4xx_hal_tim.o(i.TIM_OC2_SetConfig)
    i.UART5_IRQHandler                       0x08003de2   Section        0  stm32f4xx_it.o(i.UART5_IRQHandler)
    i.UsageFault_Handler                     0x08003de4   Section        0  stm32f4xx_it.o(i.UsageFault_Handler)
    i.WM_Activate                            0x08003de8   Section        0  wm.o(i.WM_Activate)
    i.WM_Deactivate                          0x08003df8   Section        0  wm.o(i.WM_Deactivate)
    i.WM_DefaultProc                         0x08003e0c   Section        0  wm.o(i.WM_DefaultProc)
    i.WM_GetDesktopWindowEx                  0x08003e54   Section        0  wm_getdesktopwindowex.o(i.WM_GetDesktopWindowEx)
    i.WM_GetFirstChild                       0x08003e68   Section        0  wm_getfirstchild.o(i.WM_GetFirstChild)
    i.WM_GetParent                           0x08003e76   Section        0  wm_getparent.o(i.WM_GetParent)
    i.WM_HandlePID                           0x08003e84   Section        0  wm_touch.o(i.WM_HandlePID)
    i.WM_InvalidateRect                      0x080041f4   Section        0  wm.o(i.WM_InvalidateRect)
    i.WM_InvalidateWindow                    0x0800426a   Section        0  wm.o(i.WM_InvalidateWindow)
    i.WM_InvalidateWindowAndDescsEx          0x08004270   Section        0  wm.o(i.WM_InvalidateWindowAndDescsEx)
    i.WM_IsWindow                            0x080042ce   Section        0  wm_iswindow.o(i.WM_IsWindow)
    i.WM_PID__SetPrevState                   0x080042d4   Section        0  wm_pid__getprevstate.o(i.WM_PID__SetPrevState)
    i.WM_ReleaseCapture                      0x080042ec   Section        0  wm_setcapture.o(i.WM_ReleaseCapture)
    i.WM_Screen2hWin                         0x080042f0   Section        0  wm_screen2win.o(i.WM_Screen2hWin)
    i.WM_SendToParent                        0x080042fa   Section        0  wm_sendtoparent.o(i.WM_SendToParent)
    i.WM__AddCriticalHandle                  0x08004318   Section        0  wm_criticalhandle.o(i.WM__AddCriticalHandle)
    i.WM__Client2Screen                      0x08004328   Section        0  wm.o(i.WM__Client2Screen)
    i.WM__ClipAtParentBorders                0x08004338   Section        0  wm.o(i.WM__ClipAtParentBorders)
    i.WM__GetClientRectEx                    0x08004386   Section        0  wm_getclientrect.o(i.WM__GetClientRectEx)
    i.WM__GetClientRectWin                   0x080043a6   Section        0  wm.o(i.WM__GetClientRectWin)
    i.WM__Invalidate1Abs                     0x080043be   Section        0  wm.o(i.WM__Invalidate1Abs)
    i.WM__InvalidateDrawAndDescs             0x080043c4   Section        0  wm.o(i.WM__InvalidateDrawAndDescs)
    i.WM__InvalidateRect                     0x08004418   Section        0  wm.o(i.WM__InvalidateRect)
    i.WM__InvalidateRectEx                   0x0800448e   Section        0  wm.o(i.WM__InvalidateRectEx)
    i.WM__IsAncestor                         0x08004494   Section        0  wm__isancestor.o(i.WM__IsAncestor)
    i.WM__IsEnabled                          0x080044b6   Section        0  wm__isenabled.o(i.WM__IsEnabled)
    i.WM__IsInModalArea                      0x080044cc   Section        0  wm_touch.o(i.WM__IsInModalArea)
    i.WM__IsInWindow                         0x08004534   Section        0  wm_screen2win.o(i.WM__IsInWindow)
    i.WM__IsWindow                           0x08004564   Section        0  wm.o(i.WM__IsWindow)
    i.WM__RectIsNZ                           0x08004588   Section        0  wm.o(i.WM__RectIsNZ)
    i.WM__ReleaseCapture                     0x080045a8   Section        0  wm_setcapture.o(i.WM__ReleaseCapture)
    WM__ReleaseCapture                       0x080045a9   Thumb Code    36  wm_setcapture.o(i.WM__ReleaseCapture)
    i.WM__RemoveCriticalHandle               0x080045d4   Section        0  wm_criticalhandle.o(i.WM__RemoveCriticalHandle)
    i.WM__SendMessage                        0x08004600   Section        0  wm__sendmessage.o(i.WM__SendMessage)
    i.WM__SendMessageIfEnabled               0x0800463c   Section        0  wm__sendmessageifenabled.o(i.WM__SendMessageIfEnabled)
    i.WM__SendPIDMessage                     0x08004658   Section        0  wm_touch.o(i.WM__SendPIDMessage)
    i.WM__SendTouchMessage                   0x08004696   Section        0  wm_touch.o(i.WM__SendTouchMessage)
    i._AddFreeMemory                         0x080046cc   Section        0  gui_alloc.o(i._AddFreeMemory)
    _AddFreeMemory                           0x080046cd   Thumb Code   134  gui_alloc.o(i._AddFreeMemory)
    i._Alloc                                 0x08004758   Section        0  gui_alloc.o(i._Alloc)
    _Alloc                                   0x08004759   Thumb Code   184  gui_alloc.o(i._Alloc)
    i._CreateBuffer                          0x08004814   Section        0  gui_sprite.o(i._CreateBuffer)
    _CreateBuffer                            0x08004815   Thumb Code   162  gui_sprite.o(i._CreateBuffer)
    i._DecPointer                            0x080048b8   Section        0  gui_pid.o(i._DecPointer)
    _DecPointer                              0x080048b9   Thumb Code    16  gui_pid.o(i._DecPointer)
    i._DesktopHandle2Index                   0x080048cc   Section        0  wm.o(i._DesktopHandle2Index)
    _DesktopHandle2Index                     0x080048cd   Thumb Code    28  wm.o(i._DesktopHandle2Index)
    i._EnlargeBlocks                         0x080048ec   Section        0  gui_alloc.o(i._EnlargeBlocks)
    _EnlargeBlocks                           0x080048ed   Thumb Code   146  gui_alloc.o(i._EnlargeBlocks)
    i._FlushBuffer                           0x08004984   Section        0  gui_sprite.o(i._FlushBuffer)
    _FlushBuffer                             0x08004985   Thumb Code   116  gui_sprite.o(i._FlushBuffer)
    i._GetBkIndex                            0x080049f8   Section        0  gui_sprite.o(i._GetBkIndex)
    _GetBkIndex                              0x080049f9   Thumb Code   108  gui_sprite.o(i._GetBkIndex)
    i._GetBkIndexAlpha                       0x08004a64   Section        0  gui_sprite.o(i._GetBkIndexAlpha)
    _GetBkIndexAlpha                         0x08004a65   Thumb Code   128  gui_sprite.o(i._GetBkIndexAlpha)
    i._GetDevProp                            0x08004ae4   Section        0  lcd_getex.o(i._GetDevProp)
    _GetDevProp                              0x08004ae5   Thumb Code    30  lcd_getex.o(i._GetDevProp)
    i._GetDeviceRect                         0x08004b04   Section        0  gui_sprite.o(i._GetDeviceRect)
    _GetDeviceRect                           0x08004b05   Thumb Code    58  gui_sprite.o(i._GetDeviceRect)
    i._GetMinIndex                           0x08004b44   Section        0  gui_alloc.o(i._GetMinIndex)
    _GetMinIndex                             0x08004b45   Thumb Code    24  gui_alloc.o(i._GetMinIndex)
    i._IncPointer                            0x08004b60   Section        0  gui_pid.o(i._IncPointer)
    _IncPointer                              0x08004b61   Thumb Code    16  gui_pid.o(i._IncPointer)
    i._InitOnce                              0x08004b74   Section        0  gui_alloc.o(i._InitOnce)
    _InitOnce                                0x08004b75   Thumb Code   156  gui_alloc.o(i._InitOnce)
    i._Invalidate1Abs                        0x08004c1c   Section        0  wm.o(i._Invalidate1Abs)
    _Invalidate1Abs                          0x08004c1d   Thumb Code   122  wm.o(i._Invalidate1Abs)
    i._OnExit                                0x08004c9c   Section        0  gui_alloc.o(i._OnExit)
    _OnExit                                  0x08004c9d   Thumb Code    48  gui_alloc.o(i._OnExit)
    i._PopFreeBlock                          0x08004cd0   Section        0  gui_alloc.o(i._PopFreeBlock)
    _PopFreeBlock                            0x08004cd1   Thumb Code    60  gui_alloc.o(i._PopFreeBlock)
    i._PushFreeBlock                         0x08004d10   Section        0  gui_alloc.o(i._PushFreeBlock)
    _PushFreeBlock                           0x08004d11   Thumb Code    34  gui_alloc.o(i._PushFreeBlock)
    i._ReleaseBuffer                         0x08004d38   Section        0  gui_sprite.o(i._ReleaseBuffer)
    _ReleaseBuffer                           0x08004d39   Thumb Code    28  gui_sprite.o(i._ReleaseBuffer)
    i._RemoveFreeBlock                       0x08004d54   Section        0  gui_alloc.o(i._RemoveFreeBlock)
    _RemoveFreeBlock                         0x08004d55   Thumb Code    46  gui_alloc.o(i._RemoveFreeBlock)
    i._RemoveHoles                           0x08004d88   Section        0  gui_alloc.o(i._RemoveHoles)
    _RemoveHoles                             0x08004d89   Thumb Code   156  gui_alloc.o(i._RemoveHoles)
    i._Screen2hWin                           0x08004e28   Section        0  wm_screen2win.o(i._Screen2hWin)
    _Screen2hWin                             0x08004e29   Thumb Code    90  wm_screen2win.o(i._Screen2hWin)
    i._Screen2hWinStop                       0x08004e84   Section        0  wm_screen2win.o(i._Screen2hWinStop)
    _Screen2hWinStop                         0x08004e85   Thumb Code    30  wm_screen2win.o(i._Screen2hWinStop)
    i._SetBkColor                            0x08004ea8   Section        0  lcd.o(i._SetBkColor)
    _SetBkColor                              0x08004ea9   Thumb Code    28  lcd.o(i._SetBkColor)
    i._SetBkIndexBuffered                    0x08004ec8   Section        0  gui_sprite.o(i._SetBkIndexBuffered)
    _SetBkIndexBuffered                      0x08004ec9   Thumb Code    74  gui_sprite.o(i._SetBkIndexBuffered)
    i._SetColor                              0x08004f14   Section        0  lcd.o(i._SetColor)
    _SetColor                                0x08004f15   Thumb Code    28  lcd.o(i._SetColor)
    i._SetDrawMode                           0x08004f34   Section        0  lcd.o(i._SetDrawMode)
    _SetDrawMode                             0x08004f35   Thumb Code    40  lcd.o(i._SetDrawMode)
    i._SetPosition                           0x08004f60   Section        0  gui_sprite.o(i._SetPosition)
    _SetPosition                             0x08004f61   Thumb Code  1110  gui_sprite.o(i._SetPosition)
    i._StoreState                            0x080053bc   Section        0  gui_pid.o(i._StoreState)
    _StoreState                              0x080053bd   Thumb Code    98  gui_pid.o(i._StoreState)
    i._TestRAM                               0x08005424   Section        0  gui_alloc.o(i._TestRAM)
    _TestRAM                                 0x08005425   Thumb Code   234  gui_alloc.o(i._TestRAM)
    i._UnlinkDevice                          0x08005510   Section        0  gui_device.o(i._UnlinkDevice)
    _UnlinkDevice                            0x08005511   Thumb Code    42  gui_device.o(i._UnlinkDevice)
    i._WriteTagData                          0x08005540   Section        0  gui_alloc.o(i._WriteTagData)
    _WriteTagData                            0x08005541   Thumb Code    14  gui_alloc.o(i._WriteTagData)
    i.__ARM_fpclassify                       0x0800554e   Section        0  fpclassify.o(i.__ARM_fpclassify)
    i.__hardfp_pow                           0x08005580   Section        0  pow.o(i.__hardfp_pow)
    i.__kernel_poly                          0x080061d0   Section        0  poly.o(i.__kernel_poly)
    i.__mathlib_dbl_divzero                  0x080062c8   Section        0  dunder.o(i.__mathlib_dbl_divzero)
    i.__mathlib_dbl_infnan2                  0x080062f8   Section        0  dunder.o(i.__mathlib_dbl_infnan2)
    i.__mathlib_dbl_invalid                  0x08006310   Section        0  dunder.o(i.__mathlib_dbl_invalid)
    i.__mathlib_dbl_overflow                 0x08006330   Section        0  dunder.o(i.__mathlib_dbl_overflow)
    i.__mathlib_dbl_underflow                0x08006350   Section        0  dunder.o(i.__mathlib_dbl_underflow)
    i.__scatterload_copy                     0x08006370   Section       14  handlers.o(i.__scatterload_copy)
    i.__scatterload_null                     0x0800637e   Section        2  handlers.o(i.__scatterload_null)
    i.__scatterload_zeroinit                 0x08006380   Section       14  handlers.o(i.__scatterload_zeroinit)
    i.__set_errno                            0x08006390   Section        0  errno.o(i.__set_errno)
    i.delayInit                              0x0800639c   Section        0  delay.o(i.delayInit)
    i.delayMS                                0x080063e4   Section        0  delay.o(i.delayMS)
    i.fabs                                   0x08006408   Section        0  fabs.o(i.fabs)
    i.hiMSTick                               0x08006420   Section        0  main_entry.o(i.hiMSTick)
    i.hubInit                                0x080064a4   Section        0  hub75.o(i.hubInit)
    i.hubLUTInit                             0x080066f0   Section        0  hub75.o(i.hubLUTInit)
    i.hubSetOrient                           0x080067e4   Section        0  hub75.o(i.hubSetOrient)
    i.hubTask                                0x08006808   Section        0  hub75.o(i.hubTask)
    hubTask                                  0x08006809   Thumb Code   742  hub75.o(i.hubTask)
    i.loMSTick                               0x08006b24   Section        0  main_entry.o(i.loMSTick)
    i.main                                   0x08006b28   Section        0  main.o(i.main)
    i.mainEntry                              0x08006bd4   Section        0  main_entry.o(i.mainEntry)
    i.msInit                                 0x08006c80   Section        0  mstimer.o(i.msInit)
    i.msSetMSecPerDay                        0x08006d64   Section        0  mstimer.o(i.msSetMSecPerDay)
    i.setBrightness                          0x08006dc8   Section        0  hub75.o(i.setBrightness)
    setBrightness                            0x08006dc9   Thumb Code   172  hub75.o(i.setBrightness)
    i.sqrt                                   0x08006e88   Section        0  sqrt.o(i.sqrt)
    i.startCountUS                           0x08006ef8   Section        0  delay.o(i.startCountUS)
    i.stmpe811_Init                          0x08006f04   Section        0  stmpe811.o(i.stmpe811_Init)
    i.stmpe811_ReadID                        0x08006f74   Section        0  stmpe811.o(i.stmpe811_ReadID)
    i.stmpe811_Reset                         0x08006f94   Section        0  stmpe811.o(i.stmpe811_Reset)
    i.stmpe811_TS_ClearIT                    0x08006fbc   Section        0  stmpe811.o(i.stmpe811_TS_ClearIT)
    i.stmpe811_TS_DetectTouch                0x08006fc6   Section        0  stmpe811.o(i.stmpe811_TS_DetectTouch)
    i.stmpe811_TS_DisableIT                  0x08006ffe   Section        0  stmpe811.o(i.stmpe811_TS_DisableIT)
    i.stmpe811_TS_EnableIT                   0x0800702e   Section        0  stmpe811.o(i.stmpe811_TS_EnableIT)
    i.stmpe811_TS_GetXY                      0x08007062   Section        0  stmpe811.o(i.stmpe811_TS_GetXY)
    i.stmpe811_TS_ITStatus                   0x080070a0   Section        0  stmpe811.o(i.stmpe811_TS_ITStatus)
    i.stmpe811_TS_Start                      0x080070b0   Section        0  stmpe811.o(i.stmpe811_TS_Start)
    .constdata                               0x0800715e   Section        8  stm32f429i_discovery.o(.constdata)
    .constdata                               0x08007168   Section     8192  hub75.o(.constdata)
    .constdata                               0x08009168   Section       16  stm32f4xx_hal_rcc.o(.constdata)
    .constdata                               0x08009178   Section        8  stm32f4xx_hal_dma.o(.constdata)
    flagBitshiftOffset                       0x08009178   Data           8  stm32f4xx_hal_dma.o(.constdata)
    .constdata                               0x08009180   Section       12  lcd.o(.constdata)
    _SetColorAPI                             0x08009180   Data          12  lcd.o(.constdata)
    .constdata                               0x0800918c   Section     1304  f6x8.o(.constdata)
    GUI_acFont6x8                            0x0800918c   Data        1304  f6x8.o(.constdata)
    .constdata                               0x080096a4   Section      448  f6x8.o(.constdata)
    GUI_F6x8_TL8859_1                        0x080096a4   Data         448  f6x8.o(.constdata)
    .constdata                               0x08009864   Section        8  f6x8.o(.constdata)
    GUI_F6x8_TI8859_1                        0x08009864   Data           8  f6x8.o(.constdata)
    .constdata                               0x0800986c   Section       20  f6x8.o(.constdata)
    GUI_F6x8_Mono                            0x0800986c   Data          20  f6x8.o(.constdata)
    .constdata                               0x08009880   Section       36  f6x8.o(.constdata)
    .constdata                               0x080098a8   Section      136  pow.o(.constdata)
    bp                                       0x080098a8   Data          16  pow.o(.constdata)
    dp_h                                     0x080098b8   Data          16  pow.o(.constdata)
    dp_l                                     0x080098c8   Data          16  pow.o(.constdata)
    L                                        0x080098d8   Data          48  pow.o(.constdata)
    P                                        0x08009908   Data          40  pow.o(.constdata)
    .constdata                               0x08009930   Section        8  qnan.o(.constdata)
    .data                                    0x20000000   Section       24  stm32f429i_discovery.o(.data)
    Is_LCD_IO_Initialized                    0x20000000   Data           1  stm32f429i_discovery.o(.data)
    .data                                    0x20000018   Section       16  stm32f429i_discovery_ts.o(.data)
    TsXBoundary                              0x20000018   Data           2  stm32f429i_discovery_ts.o(.data)
    TsYBoundary                              0x2000001a   Data           2  stm32f429i_discovery_ts.o(.data)
    _x                                       0x2000001c   Data           4  stm32f429i_discovery_ts.o(.data)
    _y                                       0x20000020   Data           4  stm32f429i_discovery_ts.o(.data)
    TsDrv                                    0x20000024   Data           4  stm32f429i_discovery_ts.o(.data)
    .data                                    0x20000028   Section       40  stmpe811.o(.data)
    .data                                    0x20000050   Section        2  stmpe811.o(.data)
    .data                                    0x20000054   Section        4  gui_x.o(.data)
    .data                                    0x20000058   Section       20  system_stm32f4xx.o(.data)
    .data                                    0x2000006c   Section       10  main.o(.data)
    prev_state                               0x2000006e   Data           8  main.o(.data)
    .data                                    0x20000078   Section        4  delay.o(.data)
    .data                                    0x2000007c   Section       40  mstimer.o(.data)
    period                                   0x20000090   Data           4  mstimer.o(.data)
    deltaT                                   0x20000094   Data           4  mstimer.o(.data)
    msecSign                                 0x20000098   Data           4  mstimer.o(.data)
    deltaTI                                  0x2000009c   Data           4  mstimer.o(.data)
    deltaTmod                                0x200000a0   Data           4  mstimer.o(.data)
    .data                                    0x200000a4   Section       20  main_entry.o(.data)
    phase                                    0x200000b0   Data           4  main_entry.o(.data)
    counter                                  0x200000b4   Data           4  main_entry.o(.data)
    .data                                    0x200000b8   Section      100  hub75.o(.data)
    currentOrient                            0x200000ba   Data           1  hub75.o(.data)
    state                                    0x200000bb   Data           1  hub75.o(.data)
    period0                                  0x200000d0   Data           4  hub75.o(.data)
    period1                                  0x200000d4   Data           4  hub75.o(.data)
    periodDark                               0x200000d8   Data           4  hub75.o(.data)
    prescaler2n                              0x200000dc   Data           4  hub75.o(.data)
    period1n                                 0x200000e0   Data           4  hub75.o(.data)
    period2Min                               0x200000e4   Data           4  hub75.o(.data)
    period2Max                               0x200000e8   Data           4  hub75.o(.data)
    row                                      0x200000ec   Data           4  hub75.o(.data)
    colorBit                                 0x200000f0   Data           4  hub75.o(.data)
    colorI                                   0x200000f4   Data           4  hub75.o(.data)
    screen_dx                                0x20000100   Data           4  hub75.o(.data)
    screen_dy                                0x20000104   Data           4  hub75.o(.data)
    screen0                                  0x20000108   Data           4  hub75.o(.data)
    buf                                      0x2000010c   Data           4  hub75.o(.data)
    buf2                                     0x20000110   Data           4  hub75.o(.data)
    bufLine                                  0x20000114   Data           4  hub75.o(.data)
    bufLine2                                 0x20000118   Data           4  hub75.o(.data)
    .data                                    0x2000011c   Section        4  stm32f4xx_hal.o(.data)
    .data                                    0x20000120   Section        8  gui_alloc.o(.data)
    RegisterExit                             0x20000120   Data           8  gui_alloc.o(.data)
    .data                                    0x20000128   Section       44  gui_core.o(.data)
    _pFirstExit                              0x2000013c   Data           4  gui_core.o(.data)
    _IsInitialized                           0x20000140   Data           4  gui_core.o(.data)
    RegisterExit                             0x20000144   Data           8  gui_core.o(.data)
    .data                                    0x20000154   Section        4  gui_core.o(.data)
    .data                                    0x20000158   Section        2  gui_core.o(.data)
    .data                                    0x2000015c   Section        4  gui_core.o(.data)
    .data                                    0x20000160   Section        2  gui_core.o(.data)
    .data                                    0x20000162   Section        2  gui_core.o(.data)
    .data                                    0x20000164   Section       36  gui_multibuf.o(.data)
    _UseSingleFrame                          0x20000164   Data           4  gui_multibuf.o(.data)
    _aView                                   0x20000168   Data           8  gui_multibuf.o(.data)
    _aWork                                   0x20000170   Data           8  gui_multibuf.o(.data)
    _aLock                                   0x20000178   Data           8  gui_multibuf.o(.data)
    _aPend                                   0x20000180   Data           8  gui_multibuf.o(.data)
    .data                                    0x20000188   Section        8  gui_selectlayer.o(.data)
    _aCursorLayer                            0x20000188   Data           8  gui_selectlayer.o(.data)
    .data                                    0x20000190   Section        4  lcd.o(.data)
    .data                                    0x20000194   Section       16  lcd_color.o(.data)
    _NumColors                               0x20000194   Data           4  lcd_color.o(.data)
    RegisterExit                             0x2000019c   Data           8  lcd_color.o(.data)
    .data                                    0x200001a4   Section       12  gui_pid.o(.data)
    _pRead                                   0x200001a4   Data           4  gui_pid.o(.data)
    _pWrite                                  0x200001a8   Data           4  gui_pid.o(.data)
    _pfHook                                  0x200001ac   Data           4  gui_pid.o(.data)
    .data                                    0x200001b0   Section      100  wm.o(.data)
    _IsInited                                0x200001b1   Data           1  wm.o(.data)
    iWin                                     0x200001b8   Data           4  wm.o(.data)
    _NextDrawWin                             0x200001e4   Data           4  wm.o(.data)
    _DeleteWindows                           0x200001e8   Data           4  wm.o(.data)
    RegisterExit                             0x200001ec   Data           8  wm.o(.data)
    .data                                    0x20000214   Section        1  wm.o(.data)
    .data                                    0x20000218   Section       12  gui_waitevent.o(.data)
    _pfSignalEvent                           0x20000218   Data           4  gui_waitevent.o(.data)
    _pfWaitEvent                             0x2000021c   Data           4  gui_waitevent.o(.data)
    _pfWaitEventTimed                        0x20000220   Data           4  gui_waitevent.o(.data)
    .data                                    0x20000224   Section        4  wm__sendmessage.o(.data)
    _EntranceCnt                             0x20000224   Data           4  wm__sendmessage.o(.data)
    .data                                    0x20000228   Section       12  wm_touch.o(.data)
    _pcbMotion                               0x2000022c   Data           4  wm_touch.o(.data)
    _pcbToolTip                              0x20000230   Data           4  wm_touch.o(.data)
    .data                                    0x20000234   Section        4  errno.o(.data)
    _errno                                   0x20000234   Data           4  errno.o(.data)
    .bss                                     0x20000238   Section      156  stm32f429i_discovery.o(.bss)
    SpiHandle                                0x2000027c   Data          88  stm32f429i_discovery.o(.bss)
    .bss                                     0x200002d4   Section      184  stm32f429i_discovery_sdram.o(.bss)
    dmaHandle                                0x200002d4   Data          88  stm32f429i_discovery_sdram.o(.bss)
    SdramHandle                              0x2000032c   Data          52  stm32f429i_discovery_sdram.o(.bss)
    Timing                                   0x20000360   Data          28  stm32f429i_discovery_sdram.o(.bss)
    Command                                  0x2000037c   Data          16  stm32f429i_discovery_sdram.o(.bss)
    .bss                                     0x2000038c   Section    12852  lcdconf_stm32f429i_disco_mb1075.o(.bss)
    LUT                                      0x2000038c   Data        1024  lcdconf_stm32f429i_disco_mb1075.o(.bss)
    PeriphClkInitStruct                      0x2000078c   Data          48  lcdconf_stm32f429i_disco_mb1075.o(.bss)
    hdma2d                                   0x20000864   Data          64  lcdconf_stm32f429i_disco_mb1075.o(.bss)
    layer_prop                               0x200008a4   Data          28  lcdconf_stm32f429i_disco_mb1075.o(.bss)
    aBufferDMA2D                             0x200008c0   Data        3840  lcdconf_stm32f429i_disco_mb1075.o(.bss)
    aBuffer_FG                               0x200017c0   Data        3840  lcdconf_stm32f429i_disco_mb1075.o(.bss)
    aBuffer_BG                               0x200026c0   Data        3840  lcdconf_stm32f429i_disco_mb1075.o(.bss)
    .bss                                     0x200035c0   Section       60  main.o(.bss)
    .bss                                     0x200035fc   Section       60  delay.o(.bss)
    .bss                                     0x20003638   Section      120  mstimer.o(.bss)
    .bss                                     0x200036b0   Section    16384  hub75.o(.bss)
    .bss                                     0x200076b0   Section      704  hub75.o(.bss)
    prescaler2N                              0x20007928   Data          36  hub75.o(.bss)
    period1N                                 0x2000794c   Data          36  hub75.o(.bss)
    .bss                                     0x20007970   Section      204  gui_alloc.o(.bss)
    _Config                                  0x20007a30   Data          12  gui_alloc.o(.bss)
    .bss                                     0x20007a3c   Section      112  gui_core.o(.bss)
    GUI__Context                             0x20007a3c   Data         112  gui_core.o(.bss)
    .bss                                     0x20007aac   Section       12  gui_touch.o(.bss)
    _State                                   0x20007aac   Data          12  gui_touch.o(.bss)
    .bss                                     0x20007ab8   Section       72  gui_pid.o(.bss)
    _aState                                  0x20007ab8   Data          72  gui_pid.o(.bss)
    .bss                                     0x20007b00   Section       72  wm_touch.o(.bss)
    _aStateLast                              0x20007b00   Data          24  wm_touch.o(.bss)
    .bss                                     0x20007b48   Section       40  gui_curs1.o(.bss)
    _aCursorContext                          0x20007b48   Data          40  gui_curs1.o(.bss)
    .bss                                     0x20007b70   Section       24  wm_pid__getprevstate.o(.bss)
    _aPrevState                              0x20007b70   Data          24  wm_pid__getprevstate.o(.bss)
    STACK                                    0x20007b88   Section     4096  startup_stm32f429xx.o(STACK)

    Global Symbols

    Symbol Name                              Value     Ov Type        Size  Object(Section)

    BuildAttributes$$THM_ISAv4$E$P$D$K$B$S$7EM$VFPi3$EXTD16$VFPS$VFMA$PE$A:L22UL41UL21$X:L11$S22US41US21$IEEE1$IW$USESV6$~STKCKD$USESV7$~SHL$OTIME$ROPI$IEEEX$EBA8$MICROLIB$REQ8$PRES8$EABIv2 0x00000000   Number         0  anon$$obj.o ABSOLUTE
    __ARM_use_no_argv                        0x00000000   Number         0  main.o ABSOLUTE
    __cpp_initialize__aeabi_                  - Undefined Weak Reference
    __cxa_finalize                            - Undefined Weak Reference
    _clock_init                               - Undefined Weak Reference
    _microlib_exit                            - Undefined Weak Reference
    __Vectors_Size                           0x000001ac   Number         0  startup_stm32f429xx.o ABSOLUTE
    __Vectors                                0x08000000   Data           4  startup_stm32f429xx.o(RESET)
    __Vectors_End                            0x080001ac   Data           0  startup_stm32f429xx.o(RESET)
    __main                                   0x080001ad   Thumb Code     0  entry.o(.ARM.Collect$$$$00000000)
    _main_stk                                0x080001ad   Thumb Code     0  entry2.o(.ARM.Collect$$$$00000001)
    _main_scatterload                        0x080001b1   Thumb Code     0  entry5.o(.ARM.Collect$$$$00000004)
    __main_after_scatterload                 0x080001b5   Thumb Code     0  entry5.o(.ARM.Collect$$$$00000004)
    _main_clock                              0x080001b5   Thumb Code     0  entry7b.o(.ARM.Collect$$$$00000008)
    _main_cpp_init                           0x080001b5   Thumb Code     0  entry8b.o(.ARM.Collect$$$$0000000A)
    _main_init                               0x080001b5   Thumb Code     0  entry9a.o(.ARM.Collect$$$$0000000B)
    __rt_final_cpp                           0x080001bd   Thumb Code     0  entry10a.o(.ARM.Collect$$$$0000000D)
    __rt_final_exit                          0x080001bd   Thumb Code     0  entry11a.o(.ARM.Collect$$$$0000000F)
    Reset_Handler                            0x080001c1   Thumb Code     8  startup_stm32f429xx.o(.text)
    SVC_Handler                              0x080001d3   Thumb Code     2  startup_stm32f429xx.o(.text)
    PendSV_Handler                           0x080001d7   Thumb Code     2  startup_stm32f429xx.o(.text)
    ADC_IRQHandler                           0x080001db   Thumb Code     0  startup_stm32f429xx.o(.text)
    CAN1_RX0_IRQHandler                      0x080001db   Thumb Code     0  startup_stm32f429xx.o(.text)
    CAN1_RX1_IRQHandler                      0x080001db   Thumb Code     0  startup_stm32f429xx.o(.text)
    CAN1_SCE_IRQHandler                      0x080001db   Thumb Code     0  startup_stm32f429xx.o(.text)
    CAN1_TX_IRQHandler                       0x080001db   Thumb Code     0  startup_stm32f429xx.o(.text)
    CAN2_RX0_IRQHandler                      0x080001db   Thumb Code     0  startup_stm32f429xx.o(.text)
    CAN2_RX1_IRQHandler                      0x080001db   Thumb Code     0  startup_stm32f429xx.o(.text)
    CAN2_SCE_IRQHandler                      0x080001db   Thumb Code     0  startup_stm32f429xx.o(.text)
    CAN2_TX_IRQHandler                       0x080001db   Thumb Code     0  startup_stm32f429xx.o(.text)
    DCMI_IRQHandler                          0x080001db   Thumb Code     0  startup_stm32f429xx.o(.text)
    DMA1_Stream0_IRQHandler                  0x080001db   Thumb Code     0  startup_stm32f429xx.o(.text)
    DMA1_Stream1_IRQHandler                  0x080001db   Thumb Code     0  startup_stm32f429xx.o(.text)
    DMA1_Stream2_IRQHandler                  0x080001db   Thumb Code     0  startup_stm32f429xx.o(.text)
    DMA1_Stream3_IRQHandler                  0x080001db   Thumb Code     0  startup_stm32f429xx.o(.text)
    DMA1_Stream4_IRQHandler                  0x080001db   Thumb Code     0  startup_stm32f429xx.o(.text)
    DMA1_Stream5_IRQHandler                  0x080001db   Thumb Code     0  startup_stm32f429xx.o(.text)
    DMA1_Stream6_IRQHandler                  0x080001db   Thumb Code     0  startup_stm32f429xx.o(.text)
    DMA1_Stream7_IRQHandler                  0x080001db   Thumb Code     0  startup_stm32f429xx.o(.text)
    DMA2D_IRQHandler                         0x080001db   Thumb Code     0  startup_stm32f429xx.o(.text)
    DMA2_Stream0_IRQHandler                  0x080001db   Thumb Code     0  startup_stm32f429xx.o(.text)
    DMA2_Stream1_IRQHandler                  0x080001db   Thumb Code     0  startup_stm32f429xx.o(.text)
    DMA2_Stream2_IRQHandler                  0x080001db   Thumb Code     0  startup_stm32f429xx.o(.text)
    DMA2_Stream3_IRQHandler                  0x080001db   Thumb Code     0  startup_stm32f429xx.o(.text)
    DMA2_Stream4_IRQHandler                  0x080001db   Thumb Code     0  startup_stm32f429xx.o(.text)
    DMA2_Stream5_IRQHandler                  0x080001db   Thumb Code     0  startup_stm32f429xx.o(.text)
    DMA2_Stream6_IRQHandler                  0x080001db   Thumb Code     0  startup_stm32f429xx.o(.text)
    DMA2_Stream7_IRQHandler                  0x080001db   Thumb Code     0  startup_stm32f429xx.o(.text)
    ETH_IRQHandler                           0x080001db   Thumb Code     0  startup_stm32f429xx.o(.text)
    ETH_WKUP_IRQHandler                      0x080001db   Thumb Code     0  startup_stm32f429xx.o(.text)
    EXTI0_IRQHandler                         0x080001db   Thumb Code     0  startup_stm32f429xx.o(.text)
    EXTI15_10_IRQHandler                     0x080001db   Thumb Code     0  startup_stm32f429xx.o(.text)
    EXTI1_IRQHandler                         0x080001db   Thumb Code     0  startup_stm32f429xx.o(.text)
    EXTI2_IRQHandler                         0x080001db   Thumb Code     0  startup_stm32f429xx.o(.text)
    EXTI3_IRQHandler                         0x080001db   Thumb Code     0  startup_stm32f429xx.o(.text)
    EXTI4_IRQHandler                         0x080001db   Thumb Code     0  startup_stm32f429xx.o(.text)
    EXTI9_5_IRQHandler                       0x080001db   Thumb Code     0  startup_stm32f429xx.o(.text)
    FLASH_IRQHandler                         0x080001db   Thumb Code     0  startup_stm32f429xx.o(.text)
    FMC_IRQHandler                           0x080001db   Thumb Code     0  startup_stm32f429xx.o(.text)
    FPU_IRQHandler                           0x080001db   Thumb Code     0  startup_stm32f429xx.o(.text)
    HASH_RNG_IRQHandler                      0x080001db   Thumb Code     0  startup_stm32f429xx.o(.text)
    I2C1_ER_IRQHandler                       0x080001db   Thumb Code     0  startup_stm32f429xx.o(.text)
    I2C1_EV_IRQHandler                       0x080001db   Thumb Code     0  startup_stm32f429xx.o(.text)
    I2C2_ER_IRQHandler                       0x080001db   Thumb Code     0  startup_stm32f429xx.o(.text)
    I2C2_EV_IRQHandler                       0x080001db   Thumb Code     0  startup_stm32f429xx.o(.text)
    I2C3_ER_IRQHandler                       0x080001db   Thumb Code     0  startup_stm32f429xx.o(.text)
    I2C3_EV_IRQHandler                       0x080001db   Thumb Code     0  startup_stm32f429xx.o(.text)
    LTDC_ER_IRQHandler                       0x080001db   Thumb Code     0  startup_stm32f429xx.o(.text)
    OTG_FS_IRQHandler                        0x080001db   Thumb Code     0  startup_stm32f429xx.o(.text)
    OTG_FS_WKUP_IRQHandler                   0x080001db   Thumb Code     0  startup_stm32f429xx.o(.text)
    OTG_HS_EP1_IN_IRQHandler                 0x080001db   Thumb Code     0  startup_stm32f429xx.o(.text)
    OTG_HS_EP1_OUT_IRQHandler                0x080001db   Thumb Code     0  startup_stm32f429xx.o(.text)
    OTG_HS_IRQHandler                        0x080001db   Thumb Code     0  startup_stm32f429xx.o(.text)
    OTG_HS_WKUP_IRQHandler                   0x080001db   Thumb Code     0  startup_stm32f429xx.o(.text)
    PVD_IRQHandler                           0x080001db   Thumb Code     0  startup_stm32f429xx.o(.text)
    RCC_IRQHandler                           0x080001db   Thumb Code     0  startup_stm32f429xx.o(.text)
    RTC_Alarm_IRQHandler                     0x080001db   Thumb Code     0  startup_stm32f429xx.o(.text)
    RTC_WKUP_IRQHandler                      0x080001db   Thumb Code     0  startup_stm32f429xx.o(.text)
    SAI1_IRQHandler                          0x080001db   Thumb Code     0  startup_stm32f429xx.o(.text)
    SDIO_IRQHandler                          0x080001db   Thumb Code     0  startup_stm32f429xx.o(.text)
    SPI1_IRQHandler                          0x080001db   Thumb Code     0  startup_stm32f429xx.o(.text)
    SPI2_IRQHandler                          0x080001db   Thumb Code     0  startup_stm32f429xx.o(.text)
    SPI3_IRQHandler                          0x080001db   Thumb Code     0  startup_stm32f429xx.o(.text)
    SPI4_IRQHandler                          0x080001db   Thumb Code     0  startup_stm32f429xx.o(.text)
    SPI5_IRQHandler                          0x080001db   Thumb Code     0  startup_stm32f429xx.o(.text)
    SPI6_IRQHandler                          0x080001db   Thumb Code     0  startup_stm32f429xx.o(.text)
    TAMP_STAMP_IRQHandler                    0x080001db   Thumb Code     0  startup_stm32f429xx.o(.text)
    TIM1_CC_IRQHandler                       0x080001db   Thumb Code     0  startup_stm32f429xx.o(.text)
    TIM1_TRG_COM_TIM11_IRQHandler            0x080001db   Thumb Code     0  startup_stm32f429xx.o(.text)
    TIM1_UP_TIM10_IRQHandler                 0x080001db   Thumb Code     0  startup_stm32f429xx.o(.text)
    TIM5_IRQHandler                          0x080001db   Thumb Code     0  startup_stm32f429xx.o(.text)
    TIM6_DAC_IRQHandler                      0x080001db   Thumb Code     0  startup_stm32f429xx.o(.text)
    TIM7_IRQHandler                          0x080001db   Thumb Code     0  startup_stm32f429xx.o(.text)
    TIM8_BRK_TIM12_IRQHandler                0x080001db   Thumb Code     0  startup_stm32f429xx.o(.text)
    TIM8_CC_IRQHandler                       0x080001db   Thumb Code     0  startup_stm32f429xx.o(.text)
    TIM8_TRG_COM_TIM14_IRQHandler            0x080001db   Thumb Code     0  startup_stm32f429xx.o(.text)
    TIM8_UP_TIM13_IRQHandler                 0x080001db   Thumb Code     0  startup_stm32f429xx.o(.text)
    UART4_IRQHandler                         0x080001db   Thumb Code     0  startup_stm32f429xx.o(.text)
    UART7_IRQHandler                         0x080001db   Thumb Code     0  startup_stm32f429xx.o(.text)
    UART8_IRQHandler                         0x080001db   Thumb Code     0  startup_stm32f429xx.o(.text)
    USART1_IRQHandler                        0x080001db   Thumb Code     0  startup_stm32f429xx.o(.text)
    USART2_IRQHandler                        0x080001db   Thumb Code     0  startup_stm32f429xx.o(.text)
    USART3_IRQHandler                        0x080001db   Thumb Code     0  startup_stm32f429xx.o(.text)
    USART6_IRQHandler                        0x080001db   Thumb Code     0  startup_stm32f429xx.o(.text)
    WWDG_IRQHandler                          0x080001db   Thumb Code     0  startup_stm32f429xx.o(.text)
    __aeabi_uldivmod                         0x080001e5   Thumb Code    98  uldiv.o(.text)
    ___aeabi_memcpy8$move                    0x08000247   Thumb Code     0  memmovea.o(.text)
    __aeabi_memcpy                           0x08000247   Thumb Code    64  memmovea.o(.text)
    __aeabi_memcpy4                          0x08000247   Thumb Code     0  memmovea.o(.text)
    __aeabi_memmove                          0x08000247   Thumb Code     0  memmovea.o(.text)
    __aeabi_memmove4                         0x08000247   Thumb Code     0  memmovea.o(.text)
    __aeabi_memmove8                         0x08000247   Thumb Code     0  memmovea.o(.text)
    __aeabi_memset                           0x08000287   Thumb Code    14  memseta.o(.text)
    __aeabi_memset4                          0x08000287   Thumb Code     0  memseta.o(.text)
    __aeabi_memset8                          0x08000287   Thumb Code     0  memseta.o(.text)
    __aeabi_memclr                           0x08000295   Thumb Code     4  memseta.o(.text)
    __aeabi_memclr4                          0x08000295   Thumb Code     0  memseta.o(.text)
    __aeabi_memclr8                          0x08000295   Thumb Code     0  memseta.o(.text)
    _memset$wrapper                          0x08000299   Thumb Code    18  memseta.o(.text)
    memcmp                                   0x080002ab   Thumb Code    26  memcmp.o(.text)
    __aeabi_dadd                             0x080002c5   Thumb Code   322  dadd.o(.text)
    __aeabi_dsub                             0x08000407   Thumb Code     6  dadd.o(.text)
    __aeabi_drsub                            0x0800040d   Thumb Code     6  dadd.o(.text)
    __aeabi_dmul                             0x08000413   Thumb Code   228  dmul.o(.text)
    __aeabi_f2d                              0x080004f7   Thumb Code    38  f2d.o(.text)
    __aeabi_d2f                              0x0800051d   Thumb Code    56  d2f.o(.text)
    __aeabi_llsl                             0x08000555   Thumb Code    30  llshl.o(.text)
    _ll_shift_l                              0x08000555   Thumb Code     0  llshl.o(.text)
    __aeabi_llsr                             0x08000573   Thumb Code    32  llushr.o(.text)
    _ll_ushift_r                             0x08000573   Thumb Code     0  llushr.o(.text)
    __aeabi_lasr                             0x08000593   Thumb Code    36  llsshr.o(.text)
    _ll_sshift_r                             0x08000593   Thumb Code     0  llsshr.o(.text)
    __I$use$fp                               0x080005b7   Thumb Code     0  iusefp.o(.text)
    _float_round                             0x080005b7   Thumb Code    18  fepilogue.o(.text)
    _float_epilogue                          0x080005c9   Thumb Code    92  fepilogue.o(.text)
    _double_round                            0x08000625   Thumb Code    30  depilogue.o(.text)
    _double_epilogue                         0x08000643   Thumb Code   156  depilogue.o(.text)
    __aeabi_ddiv                             0x080006df   Thumb Code   222  ddiv.o(.text)
    __ARM_scalbn                             0x080007bd   Thumb Code    46  dscalb.o(.text)
    scalbn                                   0x080007bd   Thumb Code     0  dscalb.o(.text)
    __aeabi_i2d                              0x080007eb   Thumb Code    34  dflti.o(.text)
    __aeabi_cdrcmple                         0x0800080d   Thumb Code    48  cdrcmple.o(.text)
    __scatterload                            0x0800083d   Thumb Code    28  init.o(.text)
    __scatterload_rt2                        0x0800083d   Thumb Code     0  init.o(.text)
    _dsqrt                                   0x08000861   Thumb Code   162  dsqrt.o(.text)
    __decompress                             0x08000903   Thumb Code     0  __dczerorl2.o(.text)
    __decompress1                            0x08000903   Thumb Code    86  __dczerorl2.o(.text)
    BSP_LED_Init                             0x08000959   Thumb Code    78  stm32f429i_discovery.o(i.BSP_LED_Init)
    BSP_Pointer_Update                       0x080009b5   Thumb Code   114  main.o(i.BSP_Pointer_Update)
    BSP_SDRAM_Init                           0x08000a31   Thumb Code   398  stm32f429i_discovery_sdram.o(i.BSP_SDRAM_Init)
    BSP_SDRAM_Initialization_sequence        0x08000bed   Thumb Code   138  stm32f429i_discovery_sdram.o(i.BSP_SDRAM_Initialization_sequence)
    BSP_TS_GetState                          0x08000c7d   Thumb Code   174  stm32f429i_discovery_ts.o(i.BSP_TS_GetState)
    BSP_TS_Init                              0x08000d31   Thumb Code    48  stm32f429i_discovery_ts.o(i.BSP_TS_Init)
    BusFault_Handler                         0x08000d69   Thumb Code     2  stm32f4xx_it.o(i.BusFault_Handler)
    DebugMon_Handler                         0x08000d6b   Thumb Code     2  stm32f4xx_it.o(i.DebugMon_Handler)
    FMC_SDRAM_Init                           0x08000d6d   Thumb Code    86  stm32f4xx_ll_fmc.o(i.FMC_SDRAM_Init)
    FMC_SDRAM_ProgramRefreshRate             0x08000dc3   Thumb Code    12  stm32f4xx_ll_fmc.o(i.FMC_SDRAM_ProgramRefreshRate)
    FMC_SDRAM_SendCommand                    0x08000dcf   Thumb Code    82  stm32f4xx_ll_fmc.o(i.FMC_SDRAM_SendCommand)
    FMC_SDRAM_Timing_Init                    0x08000e21   Thumb Code   142  stm32f4xx_ll_fmc.o(i.FMC_SDRAM_Timing_Init)
    GUIMONO_DispChar                         0x08000eb1   Thumb Code   302  gui_charm.o(i.GUIMONO_DispChar)
    GUIMONO_GetCharDistX                     0x08000fe5   Thumb Code    18  gui_charm.o(i.GUIMONO_GetCharDistX)
    GUIMONO_GetFontInfo                      0x08000ffd   Thumb Code     6  gui_charm.o(i.GUIMONO_GetFontInfo)
    GUIMONO_IsInFont                         0x08001003   Thumb Code    56  gui_charm.o(i.GUIMONO_IsInFont)
    GUI_ALLOC_AllocNoInit                    0x0800103b   Thumb Code    10  gui_alloc.o(i.GUI_ALLOC_AllocNoInit)
    GUI_ALLOC_Free                           0x08001045   Thumb Code    50  gui_alloc.o(i.GUI_ALLOC_Free)
    GUI_ALLOC_FreeFixedBlock                 0x0800107d   Thumb Code    18  gui_alloc.o(i.GUI_ALLOC_FreeFixedBlock)
    GUI_ALLOC_GetMaxSize                     0x08001095   Thumb Code    58  gui_alloc.o(i.GUI_ALLOC_GetMaxSize)
    GUI_ALLOC_LockH                          0x080010d5   Thumb Code    24  gui_alloc.o(i.GUI_ALLOC_LockH)
    GUI_ALLOC_UnlockH                        0x080010f1   Thumb Code    42  gui_alloc.o(i.GUI_ALLOC_UnlockH)
    GUI_ALLOC_h2p                            0x08001121   Thumb Code    20  gui_alloc.o(i.GUI_ALLOC_h2p)
    GUI_CURSOR_SetPositionEx                 0x08001139   Thumb Code   106  gui_curs1.o(i.GUI_CURSOR_SetPositionEx)
    GUI_DEVICE_Delete                        0x080011a9   Thumb Code     4  gui_device.o(i.GUI_DEVICE_Delete)
    GUI_DEVICE_Link                          0x080011ad   Thumb Code   130  gui_device.o(i.GUI_DEVICE_Link)
    GUI_DEVICE_Unlink                        0x08001235   Thumb Code     4  gui_device.o(i.GUI_DEVICE_Unlink)
    GUI_DEVICE__GetpDriver                   0x08001239   Thumb Code    32  gui_device.o(i.GUI_DEVICE__GetpDriver)
    GUI_GetBitmapPixelIndex                  0x0800125d   Thumb Code    22  gui_getbitmappixelindex.o(i.GUI_GetBitmapPixelIndex)
    GUI_GetBitmapPixelIndexEx                0x08001273   Thumb Code   138  gui_getbitmappixelindex.o(i.GUI_GetBitmapPixelIndexEx)
    GUI_GetCursorLayer                       0x080012fd   Thumb Code    16  gui_selectlayer.o(i.GUI_GetCursorLayer)
    GUI_GetLayerPosEx                        0x08001311   Thumb Code    22  gui_selectlayer.o(i.GUI_GetLayerPosEx)
    GUI_MEMDEV_Delete                        0x08001329   Thumb Code    58  guidev.o(i.GUI_MEMDEV_Delete)
    GUI_MEMDEV_Select                        0x08001369   Thumb Code    64  guidev.o(i.GUI_MEMDEV_Select)
    GUI_MULTIBUF_ConfirmEx                   0x080013ad   Thumb Code    38  gui_multibuf.o(i.GUI_MULTIBUF_ConfirmEx)
    GUI_MergeRect                            0x080013d9   Thumb Code    88  gui_mergerect.o(i.GUI_MergeRect)
    GUI_MoveRect                             0x08001431   Thumb Code    30  gui_moverect.o(i.GUI_MoveRect)
    GUI_PID_GetState                         0x08001451   Thumb Code    58  gui_pid.o(i.GUI_PID_GetState)
    GUI_PID_IsEmpty                          0x08001495   Thumb Code    18  gui_pid.o(i.GUI_PID_IsEmpty)
    GUI_PID_StoreState                       0x080014ad   Thumb Code    20  gui_pid.o(i.GUI_PID_StoreState)
    GUI_SPRITE_SetPosition                   0x080014c9   Thumb Code    10  gui_sprite.o(i.GUI_SPRITE_SetPosition)
    GUI_SelectLCD                            0x080014d3   Thumb Code    18  gui_selectlcd.o(i.GUI_SelectLCD)
    GUI_SetLayerPosEx                        0x080014e5   Thumb Code     4  gui_selectlayer.o(i.GUI_SetLayerPosEx)
    GUI_SignalEvent                          0x080014e9   Thumb Code    12  gui_waitevent.o(i.GUI_SignalEvent)
    GUI_TOUCH_StoreStateEx                   0x080014f9   Thumb Code    38  gui_touch.o(i.GUI_TOUCH_StoreStateEx)
    GUI_USAGE_DecUseCnt                      0x08001525   Thumb Code    36  guidev_usage.o(i.GUI_USAGE_DecUseCnt)
    GUI_X_ExecIdle                           0x08001549   Thumb Code     2  gui_x.o(i.GUI_X_ExecIdle)
    GUI__CompactPixelIndices                 0x0800154d   Thumb Code   292  gui__compactpixelindices.o(i.GUI__CompactPixelIndices)
    GUI__IntersectRect                       0x08001671   Thumb Code    58  gui__intersectrect.o(i.GUI__IntersectRect)
    GUI__IntersectRects                      0x080016ab   Thumb Code    82  gui__intersectrects.o(i.GUI__IntersectRects)
    GUI__MixColors                           0x080016fd   Thumb Code   102  gui__alpha.o(i.GUI__MixColors)
    GUI__RegisterExit                        0x08001765   Thumb Code    10  gui_core.o(i.GUI__RegisterExit)
    GUI__memset                              0x08001775   Thumb Code    76  gui__memset.o(i.GUI__memset)
    HAL_DMA_DeInit                           0x080017c1   Thumb Code   118  stm32f4xx_hal_dma.o(i.HAL_DMA_DeInit)
    HAL_DMA_Init                             0x08001841   Thumb Code   162  stm32f4xx_hal_dma.o(i.HAL_DMA_Init)
    HAL_Delay                                0x080018f1   Thumb Code    22  stm32f4xx_hal.o(i.HAL_Delay)
    HAL_GPIO_Init                            0x08001909   Thumb Code   544  stm32f4xx_hal_gpio.o(i.HAL_GPIO_Init)
    HAL_GPIO_WritePin                        0x08001b3d   Thumb Code    10  stm32f4xx_hal_gpio.o(i.HAL_GPIO_WritePin)
    HAL_GetTick                              0x08001b49   Thumb Code     6  stm32f4xx_hal.o(i.HAL_GetTick)
    HAL_I2C_DeInit                           0x08001b55   Thumb Code    54  stm32f4xx_hal_i2c.o(i.HAL_I2C_DeInit)
    HAL_I2C_GetState                         0x08001b8b   Thumb Code     6  stm32f4xx_hal_i2c.o(i.HAL_I2C_GetState)
    HAL_I2C_Init                             0x08001b91   Thumb Code   254  stm32f4xx_hal_i2c.o(i.HAL_I2C_Init)
    HAL_I2C_Mem_Read                         0x08001c99   Thumb Code   482  stm32f4xx_hal_i2c.o(i.HAL_I2C_Mem_Read)
    HAL_I2C_Mem_Write                        0x08001e89   Thumb Code   260  stm32f4xx_hal_i2c.o(i.HAL_I2C_Mem_Write)
    HAL_I2C_MspDeInit                        0x08001f95   Thumb Code     2  stm32f4xx_hal_i2c.o(i.HAL_I2C_MspDeInit)
    HAL_I2C_MspInit                          0x08001f97   Thumb Code     2  stm32f4xx_hal_i2c.o(i.HAL_I2C_MspInit)
    HAL_IncTick                              0x08001f99   Thumb Code    10  stm32f4xx_hal.o(i.HAL_IncTick)
    HAL_Init                                 0x08001fa9   Thumb Code    48  stm32f4xx_hal.o(i.HAL_Init)
    HAL_InitTick                             0x08001fdd   Thumb Code    34  stm32f4xx_hal.o(i.HAL_InitTick)
    HAL_LTDC_ErrorCallback                   0x08001fff   Thumb Code     2  stm32f4xx_hal_ltdc.o(i.HAL_LTDC_ErrorCallback)
    HAL_LTDC_IRQHandler                      0x08002001   Thumb Code   174  stm32f4xx_hal_ltdc.o(i.HAL_LTDC_IRQHandler)
    HAL_LTDC_LineEventCallback               0x080020b1   Thumb Code    94  lcdconf_stm32f429i_disco_mb1075.o(i.HAL_LTDC_LineEventCallback)
    HAL_LTDC_ProgramLineEvent                0x08002115   Thumb Code    56  stm32f4xx_hal_ltdc.o(i.HAL_LTDC_ProgramLineEvent)
    HAL_LTDC_SetAddress                      0x08002151   Thumb Code    70  stm32f4xx_hal_ltdc.o(i.HAL_LTDC_SetAddress)
    HAL_MspInit                              0x08002197   Thumb Code     2  stm32f4xx_hal.o(i.HAL_MspInit)
    HAL_NVIC_ClearPendingIRQ                 0x08002199   Thumb Code    24  stm32f4xx_hal_cortex.o(i.HAL_NVIC_ClearPendingIRQ)
    HAL_NVIC_EnableIRQ                       0x080021b1   Thumb Code    24  stm32f4xx_hal_cortex.o(i.HAL_NVIC_EnableIRQ)
    HAL_NVIC_SetPriority                     0x080021c9   Thumb Code    96  stm32f4xx_hal_cortex.o(i.HAL_NVIC_SetPriority)
    HAL_NVIC_SetPriorityGrouping             0x0800222d   Thumb Code    30  stm32f4xx_hal_cortex.o(i.HAL_NVIC_SetPriorityGrouping)
    HAL_PWREx_EnableOverDrive                0x08002251   Thumb Code   146  stm32f4xx_hal_pwr_ex.o(i.HAL_PWREx_EnableOverDrive)
    HAL_RCC_ClockConfig                      0x080022ed   Thumb Code   380  stm32f4xx_hal_rcc.o(i.HAL_RCC_ClockConfig)
    HAL_RCC_GetHCLKFreq                      0x08002475   Thumb Code    38  stm32f4xx_hal_rcc.o(i.HAL_RCC_GetHCLKFreq)
    HAL_RCC_GetPCLK1Freq                     0x080024a9   Thumb Code    64  stm32f4xx_hal_rcc.o(i.HAL_RCC_GetPCLK1Freq)
    HAL_RCC_GetSysClockFreq                  0x080024f5   Thumb Code   128  stm32f4xx_hal_rcc.o(i.HAL_RCC_GetSysClockFreq)
    HAL_RCC_OscConfig                        0x08002585   Thumb Code   826  stm32f4xx_hal_rcc.o(i.HAL_RCC_OscConfig)
    HAL_SDRAM_Init                           0x080028e9   Thumb Code    66  stm32f4xx_hal_sdram.o(i.HAL_SDRAM_Init)
    HAL_SDRAM_MspInit                        0x0800292b   Thumb Code     2  stm32f4xx_hal_sdram.o(i.HAL_SDRAM_MspInit)
    HAL_SDRAM_ProgramRefreshRate             0x0800292d   Thumb Code    36  stm32f4xx_hal_sdram.o(i.HAL_SDRAM_ProgramRefreshRate)
    HAL_SDRAM_SendCommand                    0x08002951   Thumb Code    46  stm32f4xx_hal_sdram.o(i.HAL_SDRAM_SendCommand)
    HAL_SYSTICK_Config                       0x08002981   Thumb Code    38  stm32f4xx_hal_cortex.o(i.HAL_SYSTICK_Config)
    HAL_TIMEx_BreakCallback                  0x080029ad   Thumb Code     2  stm32f4xx_hal_tim_ex.o(i.HAL_TIMEx_BreakCallback)
    HAL_TIMEx_CommutationCallback            0x080029af   Thumb Code     2  stm32f4xx_hal_tim_ex.o(i.HAL_TIMEx_CommutationCallback)
    HAL_TIM_Base_Init                        0x080029b1   Thumb Code    54  stm32f4xx_hal_tim.o(i.HAL_TIM_Base_Init)
    HAL_TIM_Base_MspInit                     0x080029e9   Thumb Code    40  main.o(i.HAL_TIM_Base_MspInit)
    HAL_TIM_Base_Start                       0x08002a15   Thumb Code    26  stm32f4xx_hal_tim.o(i.HAL_TIM_Base_Start)
    HAL_TIM_Base_Start_IT                    0x08002a2f   Thumb Code    24  stm32f4xx_hal_tim.o(i.HAL_TIM_Base_Start_IT)
    HAL_TIM_ConfigClockSource                0x08002a47   Thumb Code   440  stm32f4xx_hal_tim.o(i.HAL_TIM_ConfigClockSource)
    HAL_TIM_IC_CaptureCallback               0x08002bff   Thumb Code     2  stm32f4xx_hal_tim.o(i.HAL_TIM_IC_CaptureCallback)
    HAL_TIM_IRQHandler                       0x08002c01   Thumb Code   364  stm32f4xx_hal_tim.o(i.HAL_TIM_IRQHandler)
    HAL_TIM_OC_ConfigChannel                 0x08002d6d   Thumb Code   248  stm32f4xx_hal_tim.o(i.HAL_TIM_OC_ConfigChannel)
    HAL_TIM_OC_DelayElapsedCallback          0x08002e6d   Thumb Code     2  stm32f4xx_hal_tim.o(i.HAL_TIM_OC_DelayElapsedCallback)
    HAL_TIM_OC_Init                          0x08002e6f   Thumb Code    54  stm32f4xx_hal_tim.o(i.HAL_TIM_OC_Init)
    HAL_TIM_OC_MspInit                       0x08002ea5   Thumb Code     2  stm32f4xx_hal_tim.o(i.HAL_TIM_OC_MspInit)
    HAL_TIM_PWM_PulseFinishedCallback        0x08002ea7   Thumb Code     2  stm32f4xx_hal_tim.o(i.HAL_TIM_PWM_PulseFinishedCallback)
    HAL_TIM_PWM_Start                        0x08002ea9   Thumb Code    56  stm32f4xx_hal_tim.o(i.HAL_TIM_PWM_Start)
    HAL_TIM_PeriodElapsedCallback            0x08002ee1   Thumb Code    14  main.o(i.HAL_TIM_PeriodElapsedCallback)
    HAL_TIM_TriggerCallback                  0x08002ef5   Thumb Code     2  stm32f4xx_hal_tim.o(i.HAL_TIM_TriggerCallback)
    HardFault_Handler                        0x08002ef7   Thumb Code     2  stm32f4xx_it.o(i.HardFault_Handler)
    IOE_Delay                                0x08003425   Thumb Code     4  stm32f429i_discovery.o(i.IOE_Delay)
    IOE_ITConfig                             0x08003429   Thumb Code    68  stm32f429i_discovery.o(i.IOE_ITConfig)
    IOE_Init                                 0x08003479   Thumb Code     4  stm32f429i_discovery.o(i.IOE_Init)
    IOE_Read                                 0x0800347d   Thumb Code    62  stm32f429i_discovery.o(i.IOE_Read)
    IOE_ReadMultiple                         0x080034c5   Thumb Code    56  stm32f429i_discovery.o(i.IOE_ReadMultiple)
    IOE_Write                                0x08003505   Thumb Code    60  stm32f429i_discovery.o(i.IOE_Write)
    LCD_Color2Index                          0x08003549   Thumb Code    18  lcd.o(i.LCD_Color2Index)
    LCD_DrawBitmap                           0x08003565   Thumb Code   504  lcd.o(i.LCD_DrawBitmap)
    LCD_FillRect                             0x08003769   Thumb Code    80  lcd.o(i.LCD_FillRect)
    LCD_GetPosEx                             0x080037c1   Thumb Code    44  lcd_set.o(i.LCD_GetPosEx)
    LCD_GetXSizeEx                           0x080037ed   Thumb Code     6  lcd_getex.o(i.LCD_GetXSizeEx)
    LCD_GetYSizeEx                           0x080037f3   Thumb Code     6  lcd_getex.o(i.LCD_GetYSizeEx)
    LCD_GetpPalConvTableBM                   0x080037f9   Thumb Code     4  lcd_color.o(i.LCD_GetpPalConvTableBM)
    LCD_GetpPalConvTableUncached             0x080037fd   Thumb Code    68  lcd_color.o(i.LCD_GetpPalConvTableUncached)
    LCD_SelectLCD                            0x08003845   Thumb Code    54  lcd_selectlcd.o(i.LCD_SelectLCD)
    LCD_SetBkColorIndex                      0x08003885   Thumb Code    20  lcd.o(i.LCD_SetBkColorIndex)
    LCD_SetClipRectMax                       0x0800389d   Thumb Code    20  lcd.o(i.LCD_SetClipRectMax)
    LCD_SetColorIndex                        0x080038b9   Thumb Code    20  lcd.o(i.LCD_SetColorIndex)
    LCD_SetDrawMode                          0x080038d1   Thumb Code     8  lcd.o(i.LCD_SetDrawMode)
    LCD_SetPosEx                             0x080038dd   Thumb Code    44  lcd_set.o(i.LCD_SetPosEx)
    LCD_UpdateColorIndices                   0x08003909   Thumb Code    32  lcd_updatecolorindices.o(i.LCD_UpdateColorIndices)
    LTDC_IRQHandler                          0x0800392d   Thumb Code     6  stm32f4xx_it.o(i.LTDC_IRQHandler)
    MemManage_Handler                        0x08003af9   Thumb Code     2  stm32f4xx_it.o(i.MemManage_Handler)
    NMI_Handler                              0x08003afb   Thumb Code     2  stm32f4xx_it.o(i.NMI_Handler)
    SysTick_Handler                          0x08003afd   Thumb Code    16  stm32f4xx_it.o(i.SysTick_Handler)
    SystemInit                               0x08003b11   Thumb Code    64  system_stm32f4xx.o(i.SystemInit)
    TIM1_BRK_TIM9_IRQHandler                 0x08003b69   Thumb Code    36  hub75.o(i.TIM1_BRK_TIM9_IRQHandler)
    TIM2_IRQHandler                          0x08003b91   Thumb Code   112  mstimer.o(i.TIM2_IRQHandler)
    TIM3_IRQHandler                          0x08003c09   Thumb Code     6  stm32f4xx_it.o(i.TIM3_IRQHandler)
    TIM4_IRQHandler                          0x08003c15   Thumb Code    34  mstimer.o(i.TIM4_IRQHandler)
    TIM_Base_SetConfig                       0x08003c3d   Thumb Code   176  stm32f4xx_hal_tim.o(i.TIM_Base_SetConfig)
    TIM_CCxChannelCmd                        0x08003d01   Thumb Code    26  stm32f4xx_hal_tim.o(i.TIM_CCxChannelCmd)
    TIM_OC2_SetConfig                        0x08003d7b   Thumb Code   104  stm32f4xx_hal_tim.o(i.TIM_OC2_SetConfig)
    UART5_IRQHandler                         0x08003de3   Thumb Code     2  stm32f4xx_it.o(i.UART5_IRQHandler)
    UsageFault_Handler                       0x08003de5   Thumb Code     2  stm32f4xx_it.o(i.UsageFault_Handler)
    WM_Activate                              0x08003de9   Thumb Code    12  wm.o(i.WM_Activate)
    WM_Deactivate                            0x08003df9   Thumb Code    14  wm.o(i.WM_Deactivate)
    WM_DefaultProc                           0x08003e0d   Thumb Code    70  wm.o(i.WM_DefaultProc)
    WM_GetDesktopWindowEx                    0x08003e55   Thumb Code    16  wm_getdesktopwindowex.o(i.WM_GetDesktopWindowEx)
    WM_GetFirstChild                         0x08003e69   Thumb Code    14  wm_getfirstchild.o(i.WM_GetFirstChild)
    WM_GetParent                             0x08003e77   Thumb Code    14  wm_getparent.o(i.WM_GetParent)
    WM_HandlePID                             0x08003e85   Thumb Code   850  wm_touch.o(i.WM_HandlePID)
    WM_InvalidateRect                        0x080041f5   Thumb Code   118  wm.o(i.WM_InvalidateRect)
    WM_InvalidateWindow                      0x0800426b   Thumb Code     6  wm.o(i.WM_InvalidateWindow)
    WM_InvalidateWindowAndDescsEx            0x08004271   Thumb Code    94  wm.o(i.WM_InvalidateWindowAndDescsEx)
    WM_IsWindow                              0x080042cf   Thumb Code     4  wm_iswindow.o(i.WM_IsWindow)
    WM_PID__SetPrevState                     0x080042d5   Thumb Code    18  wm_pid__getprevstate.o(i.WM_PID__SetPrevState)
    WM_ReleaseCapture                        0x080042ed   Thumb Code     4  wm_setcapture.o(i.WM_ReleaseCapture)
    WM_Screen2hWin                           0x080042f1   Thumb Code    10  wm_screen2win.o(i.WM_Screen2hWin)
    WM_SendToParent                          0x080042fb   Thumb Code    30  wm_sendtoparent.o(i.WM_SendToParent)
    WM__AddCriticalHandle                    0x08004319   Thumb Code    10  wm_criticalhandle.o(i.WM__AddCriticalHandle)
    WM__Client2Screen                        0x08004329   Thumb Code    16  wm.o(i.WM__Client2Screen)
    WM__ClipAtParentBorders                  0x08004339   Thumb Code    78  wm.o(i.WM__ClipAtParentBorders)
    WM__GetClientRectEx                      0x08004387   Thumb Code    32  wm_getclientrect.o(i.WM__GetClientRectEx)
    WM__GetClientRectWin                     0x080043a7   Thumb Code    24  wm.o(i.WM__GetClientRectWin)
    WM__Invalidate1Abs                       0x080043bf   Thumb Code     6  wm.o(i.WM__Invalidate1Abs)
    WM__InvalidateDrawAndDescs               0x080043c5   Thumb Code    78  wm.o(i.WM__InvalidateDrawAndDescs)
    WM__InvalidateRect                       0x08004419   Thumb Code   118  wm.o(i.WM__InvalidateRect)
    WM__InvalidateRectEx                     0x0800448f   Thumb Code     6  wm.o(i.WM__InvalidateRectEx)
    WM__IsAncestor                           0x08004495   Thumb Code    34  wm__isancestor.o(i.WM__IsAncestor)
    WM__IsEnabled                            0x080044b7   Thumb Code    22  wm__isenabled.o(i.WM__IsEnabled)
    WM__IsInModalArea                        0x080044cd   Thumb Code    88  wm_touch.o(i.WM__IsInModalArea)
    WM__IsInWindow                           0x08004535   Thumb Code    48  wm_screen2win.o(i.WM__IsInWindow)
    WM__IsWindow                             0x08004565   Thumb Code    30  wm.o(i.WM__IsWindow)
    WM__RectIsNZ                             0x08004589   Thumb Code    32  wm.o(i.WM__RectIsNZ)
    WM__RemoveCriticalHandle                 0x080045d5   Thumb Code    38  wm_criticalhandle.o(i.WM__RemoveCriticalHandle)
    WM__SendMessage                          0x08004601   Thumb Code    54  wm__sendmessage.o(i.WM__SendMessage)
    WM__SendMessageIfEnabled                 0x0800463d   Thumb Code    28  wm__sendmessageifenabled.o(i.WM__SendMessageIfEnabled)
    WM__SendPIDMessage                       0x08004659   Thumb Code    62  wm_touch.o(i.WM__SendPIDMessage)
    WM__SendTouchMessage                     0x08004697   Thumb Code    54  wm_touch.o(i.WM__SendTouchMessage)
    __ARM_fpclassify                         0x0800554f   Thumb Code    48  fpclassify.o(i.__ARM_fpclassify)
    __hardfp_pow                             0x08005581   Thumb Code  3072  pow.o(i.__hardfp_pow)
    __kernel_poly                            0x080061d1   Thumb Code   248  poly.o(i.__kernel_poly)
    __mathlib_dbl_divzero                    0x080062c9   Thumb Code    28  dunder.o(i.__mathlib_dbl_divzero)
    __mathlib_dbl_infnan2                    0x080062f9   Thumb Code    20  dunder.o(i.__mathlib_dbl_infnan2)
    __mathlib_dbl_invalid                    0x08006311   Thumb Code    24  dunder.o(i.__mathlib_dbl_invalid)
    __mathlib_dbl_overflow                   0x08006331   Thumb Code    24  dunder.o(i.__mathlib_dbl_overflow)
    __mathlib_dbl_underflow                  0x08006351   Thumb Code    24  dunder.o(i.__mathlib_dbl_underflow)
    __scatterload_copy                       0x08006371   Thumb Code    14  handlers.o(i.__scatterload_copy)
    __scatterload_null                       0x0800637f   Thumb Code     2  handlers.o(i.__scatterload_null)
    __scatterload_zeroinit                   0x08006381   Thumb Code    14  handlers.o(i.__scatterload_zeroinit)
    __set_errno                              0x08006391   Thumb Code     6  errno.o(i.__set_errno)
    delayInit                                0x0800639d   Thumb Code    56  delay.o(i.delayInit)
    delayMS                                  0x080063e5   Thumb Code    26  delay.o(i.delayMS)
    fabs                                     0x08006409   Thumb Code    24  fabs.o(i.fabs)
    hiMSTick                                 0x08006421   Thumb Code   110  main_entry.o(i.hiMSTick)
    hubInit                                  0x080064a5   Thumb Code   528  hub75.o(i.hubInit)
    hubLUTInit                               0x080066f1   Thumb Code   200  hub75.o(i.hubLUTInit)
    hubSetOrient                             0x080067e5   Thumb Code    32  hub75.o(i.hubSetOrient)
    loMSTick                                 0x08006b25   Thumb Code     2  main_entry.o(i.loMSTick)
    main                                     0x08006b29   Thumb Code   160  main.o(i.main)
    mainEntry                                0x08006bd5   Thumb Code   150  main_entry.o(i.mainEntry)
    msInit                                   0x08006c81   Thumb Code   196  mstimer.o(i.msInit)
    msSetMSecPerDay                          0x08006d65   Thumb Code    86  mstimer.o(i.msSetMSecPerDay)
    sqrt                                     0x08006e89   Thumb Code   110  sqrt.o(i.sqrt)
    startCountUS                             0x08006ef9   Thumb Code     8  delay.o(i.startCountUS)
    stmpe811_Init                            0x08006f05   Thumb Code   106  stmpe811.o(i.stmpe811_Init)
    stmpe811_ReadID                          0x08006f75   Thumb Code    32  stmpe811.o(i.stmpe811_ReadID)
    stmpe811_Reset                           0x08006f95   Thumb Code    40  stmpe811.o(i.stmpe811_Reset)
    stmpe811_TS_ClearIT                      0x08006fbd   Thumb Code    10  stmpe811.o(i.stmpe811_TS_ClearIT)
    stmpe811_TS_DetectTouch                  0x08006fc7   Thumb Code    56  stmpe811.o(i.stmpe811_TS_DetectTouch)
    stmpe811_TS_DisableIT                    0x08006fff   Thumb Code    48  stmpe811.o(i.stmpe811_TS_DisableIT)
    stmpe811_TS_EnableIT                     0x0800702f   Thumb Code    52  stmpe811.o(i.stmpe811_TS_EnableIT)
    stmpe811_TS_GetXY                        0x08007063   Thumb Code    62  stmpe811.o(i.stmpe811_TS_GetXY)
    stmpe811_TS_ITStatus                     0x080070a1   Thumb Code    16  stmpe811.o(i.stmpe811_TS_ITStatus)
    stmpe811_TS_Start                        0x080070b1   Thumb Code   174  stmpe811.o(i.stmpe811_TS_Start)
    BUTTON_IRQn                              0x0800715e   Data           1  stm32f429i_discovery.o(.constdata)
    BUTTON_PIN                               0x08007160   Data           2  stm32f429i_discovery.o(.constdata)
    GPIO_PIN                                 0x08007162   Data           4  stm32f429i_discovery.o(.constdata)
    testBmp                                  0x08007168   Data        8192  hub75.o(.constdata)
    APBAHBPrescTable                         0x08009168   Data          16  stm32f4xx_hal_rcc.o(.constdata)
    GUI_Font6x8                              0x08009880   Data          36  f6x8.o(.constdata)
    __mathlib_zero                           0x08009930   Data           8  qnan.o(.constdata)
    Region$$Table$$Base                      0x08009938   Number         0  anon$$obj.o(Region$$Table)
    Region$$Table$$Limit                     0x08009958   Number         0  anon$$obj.o(Region$$Table)
    BUTTON_PORT                              0x20000004   Data           4  stm32f429i_discovery.o(.data)
    I2cxTimeout                              0x20000008   Data           4  stm32f429i_discovery.o(.data)
    SpixTimeout                              0x2000000c   Data           4  stm32f429i_discovery.o(.data)
    GPIO_PORT                                0x20000010   Data           8  stm32f429i_discovery.o(.data)
    stmpe811_ts_drv                          0x20000028   Data          40  stmpe811.o(.data)
    stmpe811                                 0x20000050   Data           2  stmpe811.o(.data)
    OS_TimeMS                                0x20000054   Data           4  gui_x.o(.data)
    SystemCoreClock                          0x20000058   Data           4  system_stm32f4xx.o(.data)
    AHBPrescTable                            0x2000005c   Data          16  system_stm32f4xx.o(.data)
    GUI_Initialized                          0x2000006c   Data           1  main.o(.data)
    delayClock                               0x20000078   Data           4  delay.o(.data)
    ms_phase                                 0x2000007c   Data           4  mstimer.o(.data)
    ms_msec                                  0x20000080   Data           4  mstimer.o(.data)
    hiTicksKHz                               0x20000084   Data           4  mstimer.o(.data)
    loTicksMS                                0x20000088   Data           4  mstimer.o(.data)
    ms_msecPerDay                            0x2000008c   Data           4  mstimer.o(.data)
    button                                   0x200000a4   Data           1  main_entry.o(.data)
    button0                                  0x200000a5   Data           1  main_entry.o(.data)
    msec                                     0x200000a8   Data           4  main_entry.o(.data)
    mode                                     0x200000ac   Data           4  main_entry.o(.data)
    hubOrientation                           0x200000b8   Data           1  hub75.o(.data)
    hubNeedRedraw                            0x200000b9   Data           1  hub75.o(.data)
    hubBrightness                            0x200000bc   Data           4  hub75.o(.data)
    hubMinBrightness                         0x200000c0   Data           4  hub75.o(.data)
    screen                                   0x200000c4   Data           4  hub75.o(.data)
    display                                  0x200000c8   Data           4  hub75.o(.data)
    screen_temp                              0x200000cc   Data           4  hub75.o(.data)
    screenW                                  0x200000f8   Data           4  hub75.o(.data)
    screenH                                  0x200000fc   Data           4  hub75.o(.data)
    uwTick                                   0x2000011c   Data           4  stm32f4xx_hal.o(.data)
    GUI_DecChar                              0x20000128   Data           1  gui_core.o(.data)
    GUI_pfGetpPalConvTable                   0x2000012c   Data           4  gui_core.o(.data)
    GUI__pFontDefault                        0x20000130   Data           4  gui_core.o(.data)
    GUI_pContext                             0x20000134   Data           4  gui_core.o(.data)
    GUI_pUC_API                              0x20000138   Data           4  gui_core.o(.data)
    GUI__apDevice                            0x2000014c   Data           8  gui_core.o(.data)
    WM_pfHandlePID                           0x20000154   Data           4  gui_core.o(.data)
    GUI__aNumBuffers                         0x20000158   Data           2  gui_core.o(.data)
    GUI_pLCD_APIList                         0x2000015c   Data           4  gui_core.o(.data)
    GUI_OrgX                                 0x20000160   Data           2  gui_core.o(.data)
    GUI_OrgY                                 0x20000162   Data           2  gui_core.o(.data)
    LCD__pSetColorAPI                        0x20000190   Data           4  lcd.o(.data)
    LCD__aConvTable                          0x20000198   Data           4  lcd_color.o(.data)
    WM__PaintCallbackCnt                     0x200001b0   Data           1  wm.o(.data)
    WM__NumWindows                           0x200001b2   Data           2  wm.o(.data)
    WM__NumInvalidWindows                    0x200001b4   Data           2  wm.o(.data)
    WM__TouchedLayer                         0x200001bc   Data           4  wm.o(.data)
    WM__FirstWin                             0x200001c0   Data           4  wm.o(.data)
    WM__pFirstCriticalHandle                 0x200001c4   Data           4  wm.o(.data)
    WM__CreateFlags                          0x200001c8   Data           4  wm.o(.data)
    WM_pfPollPID                             0x200001cc   Data           4  wm.o(.data)
    WM_MULTIBUF__pAPI                        0x200001d0   Data           4  wm.o(.data)
    WM__TransWindowCnt                       0x200001d4   Data           4  wm.o(.data)
    WM__hATransWindow                        0x200001d8   Data           4  wm.o(.data)
    WM__hCreateStatic                        0x200001dc   Data           4  wm.o(.data)
    WM__pExecGestures                        0x200001e0   Data           4  wm.o(.data)
    WM__ahDesktopWin                         0x200001f4   Data           8  wm.o(.data)
    WM__aBkColor                             0x200001fc   Data           8  wm.o(.data)
    WM__ahCapture                            0x20000204   Data           8  wm.o(.data)
    WM__ahWinFocus                           0x2000020c   Data           8  wm.o(.data)
    WM__CaptureReleaseAuto                   0x20000214   Data           1  wm.o(.data)
    WM__ModalLayer                           0x20000228   Data           4  wm_touch.o(.data)
    I2cHandle                                0x20000238   Data          68  stm32f429i_discovery.o(.bss)
    hltdc                                    0x200007bc   Data         168  lcdconf_stm32f429i_disco_mb1075.o(.bss)
    TimHandle                                0x200035c0   Data          60  main.o(.bss)
    htim5                                    0x200035fc   Data          60  delay.o(.bss)
    htim2                                    0x20003638   Data          60  mstimer.o(.bss)
    htim4                                    0x20003674   Data          60  mstimer.o(.bss)
    matrix                                   0x200036b0   Data       16384  hub75.o(.bss)
    hubLUT                                   0x200076b0   Data         512  hub75.o(.bss)
    hubtim                                   0x200078b0   Data          60  hub75.o(.bss)
    hubtim2                                  0x200078ec   Data          60  hub75.o(.bss)
    GUI_ALLOC__Context                       0x20007970   Data         192  gui_alloc.o(.bss)
    WM__aCHWinModal                          0x20007b18   Data          16  wm_touch.o(.bss)
    WM__aCHWinLast                           0x20007b28   Data          16  wm_touch.o(.bss)
    WM__aCHWinMouseOver                      0x20007b38   Data          16  wm_touch.o(.bss)
    __initial_sp                             0x20008b88   Data           0  startup_stm32f429xx.o(STACK)



==============================================================================

Memory Map of the image

  Image Entry point : 0x080001ad

  Load Region LR_IROM1 (Base: 0x08000000, Size: 0x00009b90, Max: 0x00200000, ABSOLUTE, COMPRESSED[0x000099cc])

    Execution Region ER_IROM1 (Base: 0x08000000, Size: 0x00009958, Max: 0x00200000, ABSOLUTE)

    Base Addr    Size         Type   Attr      Idx    E Section Name        Object

    0x08000000   0x000001ac   Data   RO          787    RESET               startup_stm32f429xx.o
    0x080001ac   0x00000000   Code   RO         7191  * .ARM.Collect$$$$00000000  mc_w.l(entry.o)
    0x080001ac   0x00000004   Code   RO         7253    .ARM.Collect$$$$00000001  mc_w.l(entry2.o)
    0x080001b0   0x00000004   Code   RO         7256    .ARM.Collect$$$$00000004  mc_w.l(entry5.o)
    0x080001b4   0x00000000   Code   RO         7258    .ARM.Collect$$$$00000008  mc_w.l(entry7b.o)
    0x080001b4   0x00000000   Code   RO         7260    .ARM.Collect$$$$0000000A  mc_w.l(entry8b.o)
    0x080001b4   0x00000008   Code   RO         7261    .ARM.Collect$$$$0000000B  mc_w.l(entry9a.o)
    0x080001bc   0x00000000   Code   RO         7263    .ARM.Collect$$$$0000000D  mc_w.l(entry10a.o)
    0x080001bc   0x00000000   Code   RO         7265    .ARM.Collect$$$$0000000F  mc_w.l(entry11a.o)
    0x080001bc   0x00000004   Code   RO         7254    .ARM.Collect$$$$00002712  mc_w.l(entry2.o)
    0x080001c0   0x00000024   Code   RO          788    .text               startup_stm32f429xx.o
    0x080001e4   0x00000062   Code   RO         7194    .text               mc_w.l(uldiv.o)
    0x08000246   0x00000040   Code   RO         7198    .text               mc_w.l(memmovea.o)
    0x08000286   0x00000024   Code   RO         7200    .text               mc_w.l(memseta.o)
    0x080002aa   0x0000001a   Code   RO         7202    .text               mc_w.l(memcmp.o)
    0x080002c4   0x0000014e   Code   RO         7208    .text               mf_w.l(dadd.o)
    0x08000412   0x000000e4   Code   RO         7210    .text               mf_w.l(dmul.o)
    0x080004f6   0x00000026   Code   RO         7212    .text               mf_w.l(f2d.o)
    0x0800051c   0x00000038   Code   RO         7214    .text               mf_w.l(d2f.o)
    0x08000554   0x0000001e   Code   RO         7267    .text               mc_w.l(llshl.o)
    0x08000572   0x00000020   Code   RO         7269    .text               mc_w.l(llushr.o)
    0x08000592   0x00000024   Code   RO         7271    .text               mc_w.l(llsshr.o)
    0x080005b6   0x00000000   Code   RO         7280    .text               mc_w.l(iusefp.o)
    0x080005b6   0x0000006e   Code   RO         7281    .text               mf_w.l(fepilogue.o)
    0x08000624   0x000000ba   Code   RO         7283    .text               mf_w.l(depilogue.o)
    0x080006de   0x000000de   Code   RO         7285    .text               mf_w.l(ddiv.o)
    0x080007bc   0x0000002e   Code   RO         7289    .text               mf_w.l(dscalb.o)
    0x080007ea   0x00000022   Code   RO         7291    .text               mf_w.l(dflti.o)
    0x0800080c   0x00000030   Code   RO         7293    .text               mf_w.l(cdrcmple.o)
    0x0800083c   0x00000024   Code   RO         7295    .text               mc_w.l(init.o)
    0x08000860   0x000000a2   Code   RO         7297    .text               mf_w.l(dsqrt.o)
    0x08000902   0x00000056   Code   RO         7309    .text               mc_w.l(__dczerorl2.o)
    0x08000958   0x0000005c   Code   RO            5    i.BSP_LED_Init      stm32f429i_discovery.o
    0x080009b4   0x0000007c   Code   RO         1503    i.BSP_Pointer_Update  main.o
    0x08000a30   0x000001bc   Code   RO          659    i.BSP_SDRAM_Init    stm32f429i_discovery_sdram.o
    0x08000bec   0x00000090   Code   RO          660    i.BSP_SDRAM_Initialization_sequence  stm32f429i_discovery_sdram.o
    0x08000c7c   0x000000b4   Code   RO          592    i.BSP_TS_GetState   stm32f429i_discovery_ts.o
    0x08000d30   0x00000038   Code   RO          596    i.BSP_TS_Init       stm32f429i_discovery_ts.o
    0x08000d68   0x00000002   Code   RO         1420    i.BusFault_Handler  stm32f4xx_it.o
    0x08000d6a   0x00000002   Code   RO         1421    i.DebugMon_Handler  stm32f4xx_it.o
    0x08000d6c   0x00000056   Code   RO         3566    i.FMC_SDRAM_Init    stm32f4xx_ll_fmc.o
    0x08000dc2   0x0000000c   Code   RO         3567    i.FMC_SDRAM_ProgramRefreshRate  stm32f4xx_ll_fmc.o
    0x08000dce   0x00000052   Code   RO         3568    i.FMC_SDRAM_SendCommand  stm32f4xx_ll_fmc.o
    0x08000e20   0x0000008e   Code   RO         3570    i.FMC_SDRAM_Timing_Init  stm32f4xx_ll_fmc.o
    0x08000eae   0x00000002   PAD
    0x08000eb0   0x00000134   Code   RO         6179    i.GUIMONO_DispChar  STemWin528_CM4_Keil.lib(gui_charm.o)
    0x08000fe4   0x00000018   Code   RO         6180    i.GUIMONO_GetCharDistX  STemWin528_CM4_Keil.lib(gui_charm.o)
    0x08000ffc   0x00000006   Code   RO         6181    i.GUIMONO_GetFontInfo  STemWin528_CM4_Keil.lib(gui_charm.o)
    0x08001002   0x00000038   Code   RO         6182    i.GUIMONO_IsInFont  STemWin528_CM4_Keil.lib(gui_charm.o)
    0x0800103a   0x0000000a   Code   RO         5586    i.GUI_ALLOC_AllocNoInit  STemWin528_CM4_Keil.lib(gui_alloc.o)
    0x08001044   0x00000038   Code   RO         5588    i.GUI_ALLOC_Free    STemWin528_CM4_Keil.lib(gui_alloc.o)
    0x0800107c   0x00000018   Code   RO         5589    i.GUI_ALLOC_FreeFixedBlock  STemWin528_CM4_Keil.lib(gui_alloc.o)
    0x08001094   0x00000040   Code   RO         5593    i.GUI_ALLOC_GetMaxSize  STemWin528_CM4_Keil.lib(gui_alloc.o)
    0x080010d4   0x0000001c   Code   RO         5602    i.GUI_ALLOC_LockH   STemWin528_CM4_Keil.lib(gui_alloc.o)
    0x080010f0   0x00000030   Code   RO         5608    i.GUI_ALLOC_UnlockH  STemWin528_CM4_Keil.lib(gui_alloc.o)
    0x08001120   0x00000018   Code   RO         5609    i.GUI_ALLOC_h2p     STemWin528_CM4_Keil.lib(gui_alloc.o)
    0x08001138   0x00000070   Code   RO         6762    i.GUI_CURSOR_SetPositionEx  STemWin528_CM4_Keil.lib(gui_curs1.o)
    0x080011a8   0x00000004   Code   RO         5699    i.GUI_DEVICE_Delete  STemWin528_CM4_Keil.lib(gui_device.o)
    0x080011ac   0x00000088   Code   RO         5700    i.GUI_DEVICE_Link   STemWin528_CM4_Keil.lib(gui_device.o)
    0x08001234   0x00000004   Code   RO         5702    i.GUI_DEVICE_Unlink  STemWin528_CM4_Keil.lib(gui_device.o)
    0x08001238   0x00000024   Code   RO         5705    i.GUI_DEVICE__GetpDriver  STemWin528_CM4_Keil.lib(gui_device.o)
    0x0800125c   0x00000016   Code   RO         7155    i.GUI_GetBitmapPixelIndex  STemWin528_CM4_Keil.lib(gui_getbitmappixelindex.o)
    0x08001272   0x0000008a   Code   RO         7156    i.GUI_GetBitmapPixelIndexEx  STemWin528_CM4_Keil.lib(gui_getbitmappixelindex.o)
    0x080012fc   0x00000014   Code   RO         5748    i.GUI_GetCursorLayer  STemWin528_CM4_Keil.lib(gui_selectlayer.o)
    0x08001310   0x00000016   Code   RO         5749    i.GUI_GetLayerPosEx  STemWin528_CM4_Keil.lib(gui_selectlayer.o)
    0x08001326   0x00000002   PAD
    0x08001328   0x00000040   Code   RO         6646    i.GUI_MEMDEV_Delete  STemWin528_CM4_Keil.lib(guidev.o)
    0x08001368   0x00000044   Code   RO         6649    i.GUI_MEMDEV_Select  STemWin528_CM4_Keil.lib(guidev.o)
    0x080013ac   0x0000002c   Code   RO         5727    i.GUI_MULTIBUF_ConfirmEx  STemWin528_CM4_Keil.lib(gui_multibuf.o)
    0x080013d8   0x00000058   Code   RO         6573    i.GUI_MergeRect     STemWin528_CM4_Keil.lib(gui_mergerect.o)
    0x08001430   0x0000001e   Code   RO         6575    i.GUI_MoveRect      STemWin528_CM4_Keil.lib(gui_moverect.o)
    0x0800144e   0x00000002   PAD
    0x08001450   0x00000044   Code   RO         6210    i.GUI_PID_GetState  STemWin528_CM4_Keil.lib(gui_pid.o)
    0x08001494   0x00000018   Code   RO         6211    i.GUI_PID_IsEmpty   STemWin528_CM4_Keil.lib(gui_pid.o)
    0x080014ac   0x0000001c   Code   RO         6213    i.GUI_PID_StoreState  STemWin528_CM4_Keil.lib(gui_pid.o)
    0x080014c8   0x0000000a   Code   RO         7049    i.GUI_SPRITE_SetPosition  STemWin528_CM4_Keil.lib(gui_sprite.o)
    0x080014d2   0x00000012   Code   RO         6229    i.GUI_SelectLCD     STemWin528_CM4_Keil.lib(gui_selectlcd.o)
    0x080014e4   0x00000004   Code   RO         5753    i.GUI_SetLayerPosEx  STemWin528_CM4_Keil.lib(gui_selectlayer.o)
    0x080014e8   0x00000010   Code   RO         6626    i.GUI_SignalEvent   STemWin528_CM4_Keil.lib(gui_waitevent.o)
    0x080014f8   0x0000002c   Code   RO         5773    i.GUI_TOUCH_StoreStateEx  STemWin528_CM4_Keil.lib(gui_touch.o)
    0x08001524   0x00000024   Code   RO         6689    i.GUI_USAGE_DecUseCnt  STemWin528_CM4_Keil.lib(guidev_usage.o)
    0x08001548   0x00000002   Code   RO         1065    i.GUI_X_ExecIdle    gui_x.o
    0x0800154a   0x00000002   PAD
    0x0800154c   0x00000124   Code   RO         6747    i.GUI__CompactPixelIndices  STemWin528_CM4_Keil.lib(gui__compactpixelindices.o)
    0x08001670   0x0000003a   Code   RO         6523    i.GUI__IntersectRect  STemWin528_CM4_Keil.lib(gui__intersectrect.o)
    0x080016aa   0x00000052   Code   RO         6525    i.GUI__IntersectRects  STemWin528_CM4_Keil.lib(gui__intersectrects.o)
    0x080016fc   0x00000066   Code   RO         5571    i.GUI__MixColors    STemWin528_CM4_Keil.lib(gui__alpha.o)
    0x08001762   0x00000002   PAD
    0x08001764   0x00000010   Code   RO         5669    i.GUI__RegisterExit  STemWin528_CM4_Keil.lib(gui_core.o)
    0x08001774   0x0000004c   Code   RO         6177    i.GUI__memset       STemWin528_CM4_Keil.lib(gui__memset.o)
    0x080017c0   0x00000080   Code   RO         5425    i.HAL_DMA_DeInit    stm32f4xx_hal_dma.o
    0x08001840   0x000000b0   Code   RO         5429    i.HAL_DMA_Init      stm32f4xx_hal_dma.o
    0x080018f0   0x00000016   Code   RO         2221    i.HAL_Delay         stm32f4xx_hal.o
    0x08001906   0x00000002   PAD
    0x08001908   0x00000234   Code   RO         4384    i.HAL_GPIO_Init     stm32f4xx_hal_gpio.o
    0x08001b3c   0x0000000a   Code   RO         4388    i.HAL_GPIO_WritePin  stm32f4xx_hal_gpio.o
    0x08001b46   0x00000002   PAD
    0x08001b48   0x0000000c   Code   RO         2229    i.HAL_GetTick       stm32f4xx_hal.o
    0x08001b54   0x00000036   Code   RO         1853    i.HAL_I2C_DeInit    stm32f4xx_hal_i2c.o
    0x08001b8a   0x00000006   Code   RO         1861    i.HAL_I2C_GetState  stm32f4xx_hal_i2c.o
    0x08001b90   0x00000108   Code   RO         1862    i.HAL_I2C_Init      stm32f4xx_hal_i2c.o
    0x08001c98   0x000001f0   Code   RO         1878    i.HAL_I2C_Mem_Read  stm32f4xx_hal_i2c.o
    0x08001e88   0x0000010c   Code   RO         1881    i.HAL_I2C_Mem_Write  stm32f4xx_hal_i2c.o
    0x08001f94   0x00000002   Code   RO         1884    i.HAL_I2C_MspDeInit  stm32f4xx_hal_i2c.o
    0x08001f96   0x00000002   Code   RO         1885    i.HAL_I2C_MspInit   stm32f4xx_hal_i2c.o
    0x08001f98   0x00000010   Code   RO         2230    i.HAL_IncTick       stm32f4xx_hal.o
    0x08001fa8   0x00000034   Code   RO         2231    i.HAL_Init          stm32f4xx_hal.o
    0x08001fdc   0x00000022   Code   RO         2232    i.HAL_InitTick      stm32f4xx_hal.o
    0x08001ffe   0x00000002   Code   RO         4218    i.HAL_LTDC_ErrorCallback  stm32f4xx_hal_ltdc.o
    0x08002000   0x000000ae   Code   RO         4221    i.HAL_LTDC_IRQHandler  stm32f4xx_hal_ltdc.o
    0x080020ae   0x00000002   PAD
    0x080020b0   0x00000064   Code   RO         1159    i.HAL_LTDC_LineEventCallback  lcdconf_stm32f429i_disco_mb1075.o
    0x08002114   0x0000003c   Code   RO         4226    i.HAL_LTDC_ProgramLineEvent  stm32f4xx_hal_ltdc.o
    0x08002150   0x00000046   Code   RO         4227    i.HAL_LTDC_SetAddress  stm32f4xx_hal_ltdc.o
    0x08002196   0x00000002   Code   RO         2234    i.HAL_MspInit       stm32f4xx_hal.o
    0x08002198   0x00000018   Code   RO         5020    i.HAL_NVIC_ClearPendingIRQ  stm32f4xx_hal_cortex.o
    0x080021b0   0x00000018   Code   RO         5022    i.HAL_NVIC_EnableIRQ  stm32f4xx_hal_cortex.o
    0x080021c8   0x00000064   Code   RO         5028    i.HAL_NVIC_SetPriority  stm32f4xx_hal_cortex.o
    0x0800222c   0x00000024   Code   RO         5029    i.HAL_NVIC_SetPriorityGrouping  stm32f4xx_hal_cortex.o
    0x08002250   0x0000009c   Code   RO         4953    i.HAL_PWREx_EnableOverDrive  stm32f4xx_hal_pwr_ex.o
    0x080022ec   0x00000188   Code   RO         4448    i.HAL_RCC_ClockConfig  stm32f4xx_hal_rcc.o
    0x08002474   0x00000034   Code   RO         4453    i.HAL_RCC_GetHCLKFreq  stm32f4xx_hal_rcc.o
    0x080024a8   0x0000004c   Code   RO         4455    i.HAL_RCC_GetPCLK1Freq  stm32f4xx_hal_rcc.o
    0x080024f4   0x00000090   Code   RO         4457    i.HAL_RCC_GetSysClockFreq  stm32f4xx_hal_rcc.o
    0x08002584   0x00000364   Code   RO         4460    i.HAL_RCC_OscConfig  stm32f4xx_hal_rcc.o
    0x080028e8   0x00000042   Code   RO         4797    i.HAL_SDRAM_Init    stm32f4xx_hal_sdram.o
    0x0800292a   0x00000002   Code   RO         4799    i.HAL_SDRAM_MspInit  stm32f4xx_hal_sdram.o
    0x0800292c   0x00000024   Code   RO         4800    i.HAL_SDRAM_ProgramRefreshRate  stm32f4xx_hal_sdram.o
    0x08002950   0x0000002e   Code   RO         4806    i.HAL_SDRAM_SendCommand  stm32f4xx_hal_sdram.o
    0x0800297e   0x00000002   PAD
    0x08002980   0x0000002c   Code   RO         5033    i.HAL_SYSTICK_Config  stm32f4xx_hal_cortex.o
    0x080029ac   0x00000002   Code   RO         4552    i.HAL_TIMEx_BreakCallback  stm32f4xx_hal_tim_ex.o
    0x080029ae   0x00000002   Code   RO         4553    i.HAL_TIMEx_CommutationCallback  stm32f4xx_hal_tim_ex.o
    0x080029b0   0x00000036   Code   RO         2375    i.HAL_TIM_Base_Init  stm32f4xx_hal_tim.o
    0x080029e6   0x00000002   PAD
    0x080029e8   0x0000002c   Code   RO         1504    i.HAL_TIM_Base_MspInit  main.o
    0x08002a14   0x0000001a   Code   RO         2378    i.HAL_TIM_Base_Start  stm32f4xx_hal_tim.o
    0x08002a2e   0x00000018   Code   RO         2380    i.HAL_TIM_Base_Start_IT  stm32f4xx_hal_tim.o
    0x08002a46   0x000001b8   Code   RO         2384    i.HAL_TIM_ConfigClockSource  stm32f4xx_hal_tim.o
    0x08002bfe   0x00000002   Code   RO         2404    i.HAL_TIM_IC_CaptureCallback  stm32f4xx_hal_tim.o
    0x08002c00   0x0000016c   Code   RO         2417    i.HAL_TIM_IRQHandler  stm32f4xx_hal_tim.o
    0x08002d6c   0x00000100   Code   RO         2418    i.HAL_TIM_OC_ConfigChannel  stm32f4xx_hal_tim.o
    0x08002e6c   0x00000002   Code   RO         2420    i.HAL_TIM_OC_DelayElapsedCallback  stm32f4xx_hal_tim.o
    0x08002e6e   0x00000036   Code   RO         2422    i.HAL_TIM_OC_Init   stm32f4xx_hal_tim.o
    0x08002ea4   0x00000002   Code   RO         2424    i.HAL_TIM_OC_MspInit  stm32f4xx_hal_tim.o
    0x08002ea6   0x00000002   Code   RO         2447    i.HAL_TIM_PWM_PulseFinishedCallback  stm32f4xx_hal_tim.o
    0x08002ea8   0x00000038   Code   RO         2448    i.HAL_TIM_PWM_Start  stm32f4xx_hal_tim.o
    0x08002ee0   0x00000014   Code   RO         1505    i.HAL_TIM_PeriodElapsedCallback  main.o
    0x08002ef4   0x00000002   Code   RO         2458    i.HAL_TIM_TriggerCallback  stm32f4xx_hal_tim.o
    0x08002ef6   0x00000002   Code   RO         1422    i.HardFault_Handler  stm32f4xx_it.o
    0x08002ef8   0x00000100   Code   RO         1905    i.I2C_RequestMemoryRead  stm32f4xx_hal_i2c.o
    0x08002ff8   0x000000a8   Code   RO         1906    i.I2C_RequestMemoryWrite  stm32f4xx_hal_i2c.o
    0x080030a0   0x000000e6   Code   RO         1907    i.I2C_WaitOnFlagUntilTimeout  stm32f4xx_hal_i2c.o
    0x08003186   0x000000bc   Code   RO         1908    i.I2C_WaitOnMasterAddressFlagUntilTimeout  stm32f4xx_hal_i2c.o
    0x08003242   0x00000076   Code   RO         1909    i.I2C_WaitOnRXNEFlagUntilTimeout  stm32f4xx_hal_i2c.o
    0x080032b8   0x00000080   Code   RO         1911    i.I2C_WaitOnTXEFlagUntilTimeout  stm32f4xx_hal_i2c.o
    0x08003338   0x000000ec   Code   RO           14    i.I2Cx_Init         stm32f429i_discovery.o
    0x08003424   0x00000004   Code   RO           15    i.IOE_Delay         stm32f429i_discovery.o
    0x08003428   0x00000050   Code   RO           16    i.IOE_ITConfig      stm32f429i_discovery.o
    0x08003478   0x00000004   Code   RO           17    i.IOE_Init          stm32f429i_discovery.o
    0x0800347c   0x00000048   Code   RO           18    i.IOE_Read          stm32f429i_discovery.o
    0x080034c4   0x00000040   Code   RO           19    i.IOE_ReadMultiple  stm32f429i_discovery.o
    0x08003504   0x00000044   Code   RO           20    i.IOE_Write         stm32f429i_discovery.o
    0x08003548   0x0000001c   Code   RO         5803    i.LCD_Color2Index   STemWin528_CM4_Keil.lib(lcd.o)
    0x08003564   0x00000204   Code   RO         5804    i.LCD_DrawBitmap    STemWin528_CM4_Keil.lib(lcd.o)
    0x08003768   0x00000058   Code   RO         5808    i.LCD_FillRect      STemWin528_CM4_Keil.lib(lcd.o)
    0x080037c0   0x0000002c   Code   RO         5935    i.LCD_GetPosEx      STemWin528_CM4_Keil.lib(lcd_set.o)
    0x080037ec   0x00000006   Code   RO         5882    i.LCD_GetXSizeEx    STemWin528_CM4_Keil.lib(lcd_getex.o)
    0x080037f2   0x00000006   Code   RO         5887    i.LCD_GetYSizeEx    STemWin528_CM4_Keil.lib(lcd_getex.o)
    0x080037f8   0x00000004   Code   RO         5842    i.LCD_GetpPalConvTableBM  STemWin528_CM4_Keil.lib(lcd_color.o)
    0x080037fc   0x00000048   Code   RO         5843    i.LCD_GetpPalConvTableUncached  STemWin528_CM4_Keil.lib(lcd_color.o)
    0x08003844   0x00000040   Code   RO         6636    i.LCD_SelectLCD     STemWin528_CM4_Keil.lib(lcd_selectlcd.o)
    0x08003884   0x00000018   Code   RO         5811    i.LCD_SetBkColorIndex  STemWin528_CM4_Keil.lib(lcd.o)
    0x0800389c   0x0000001c   Code   RO         5812    i.LCD_SetClipRectMax  STemWin528_CM4_Keil.lib(lcd.o)
    0x080038b8   0x00000018   Code   RO         5814    i.LCD_SetColorIndex  STemWin528_CM4_Keil.lib(lcd.o)
    0x080038d0   0x0000000c   Code   RO         5815    i.LCD_SetDrawMode   STemWin528_CM4_Keil.lib(lcd.o)
    0x080038dc   0x0000002c   Code   RO         5950    i.LCD_SetPosEx      STemWin528_CM4_Keil.lib(lcd_set.o)
    0x08003908   0x00000024   Code   RO         6640    i.LCD_UpdateColorIndices  STemWin528_CM4_Keil.lib(lcd_updatecolorindices.o)
    0x0800392c   0x0000000c   Code   RO         1423    i.LTDC_IRQHandler   stm32f4xx_it.o
    0x08003938   0x000001c0   Code   RO         4233    i.LTDC_SetConfig    stm32f4xx_hal_ltdc.o
    0x08003af8   0x00000002   Code   RO         1424    i.MemManage_Handler  stm32f4xx_it.o
    0x08003afa   0x00000002   Code   RO         1425    i.NMI_Handler       stm32f4xx_it.o
    0x08003afc   0x00000014   Code   RO         1426    i.SysTick_Handler   stm32f4xx_it.o
    0x08003b10   0x00000058   Code   RO         1373    i.SystemInit        system_stm32f4xx.o
    0x08003b68   0x00000028   Code   RO         1759    i.TIM1_BRK_TIM9_IRQHandler  hub75.o
    0x08003b90   0x00000078   Code   RO         1635    i.TIM2_IRQHandler   mstimer.o
    0x08003c08   0x0000000c   Code   RO         1427    i.TIM3_IRQHandler   stm32f4xx_it.o
    0x08003c14   0x00000028   Code   RO         1636    i.TIM4_IRQHandler   mstimer.o
    0x08003c3c   0x000000c4   Code   RO         2459    i.TIM_Base_SetConfig  stm32f4xx_hal_tim.o
    0x08003d00   0x0000001a   Code   RO         2460    i.TIM_CCxChannelCmd  stm32f4xx_hal_tim.o
    0x08003d1a   0x00000060   Code   RO         2466    i.TIM_OC1_SetConfig  stm32f4xx_hal_tim.o
    0x08003d7a   0x00000068   Code   RO         2467    i.TIM_OC2_SetConfig  stm32f4xx_hal_tim.o
    0x08003de2   0x00000002   Code   RO         1428    i.UART5_IRQHandler  stm32f4xx_it.o
    0x08003de4   0x00000002   Code   RO         1429    i.UsageFault_Handler  stm32f4xx_it.o
    0x08003de6   0x00000002   PAD
    0x08003de8   0x00000010   Code   RO         6407    i.WM_Activate       STemWin528_CM4_Keil.lib(wm.o)
    0x08003df8   0x00000014   Code   RO         6410    i.WM_Deactivate     STemWin528_CM4_Keil.lib(wm.o)
    0x08003e0c   0x00000046   Code   RO         6411    i.WM_DefaultProc    STemWin528_CM4_Keil.lib(wm.o)
    0x08003e52   0x00000002   PAD
    0x08003e54   0x00000014   Code   RO         7148    i.WM_GetDesktopWindowEx  STemWin528_CM4_Keil.lib(wm_getdesktopwindowex.o)
    0x08003e68   0x0000000e   Code   RO         6711    i.WM_GetFirstChild  STemWin528_CM4_Keil.lib(wm_getfirstchild.o)
    0x08003e76   0x0000000e   Code   RO         6997    i.WM_GetParent      STemWin528_CM4_Keil.lib(wm_getparent.o)
    0x08003e84   0x00000370   Code   RO         6731    i.WM_HandlePID      STemWin528_CM4_Keil.lib(wm_touch.o)
    0x080041f4   0x00000076   Code   RO         6417    i.WM_InvalidateRect  STemWin528_CM4_Keil.lib(wm.o)
    0x0800426a   0x00000006   Code   RO         6418    i.WM_InvalidateWindow  STemWin528_CM4_Keil.lib(wm.o)
    0x08004270   0x0000005e   Code   RO         6419    i.WM_InvalidateWindowAndDescsEx  STemWin528_CM4_Keil.lib(wm.o)
    0x080042ce   0x00000004   Code   RO         7003    i.WM_IsWindow       STemWin528_CM4_Keil.lib(wm_iswindow.o)
    0x080042d2   0x00000002   PAD
    0x080042d4   0x00000018   Code   RO         7008    i.WM_PID__SetPrevState  STemWin528_CM4_Keil.lib(wm_pid__getprevstate.o)
    0x080042ec   0x00000004   Code   RO         7022    i.WM_ReleaseCapture  STemWin528_CM4_Keil.lib(wm_setcapture.o)
    0x080042f0   0x0000000a   Code   RO         7012    i.WM_Screen2hWin    STemWin528_CM4_Keil.lib(wm_screen2win.o)
    0x080042fa   0x0000001e   Code   RO         6717    i.WM_SendToParent   STemWin528_CM4_Keil.lib(wm_sendtoparent.o)
    0x08004318   0x00000010   Code   RO         6701    i.WM__AddCriticalHandle  STemWin528_CM4_Keil.lib(wm_criticalhandle.o)
    0x08004328   0x00000010   Code   RO         6424    i.WM__Client2Screen  STemWin528_CM4_Keil.lib(wm.o)
    0x08004338   0x0000004e   Code   RO         6425    i.WM__ClipAtParentBorders  STemWin528_CM4_Keil.lib(wm.o)
    0x08004386   0x00000020   Code   RO         6707    i.WM__GetClientRectEx  STemWin528_CM4_Keil.lib(wm_getclientrect.o)
    0x080043a6   0x00000018   Code   RO         6428    i.WM__GetClientRectWin  STemWin528_CM4_Keil.lib(wm.o)
    0x080043be   0x00000006   Code   RO         6433    i.WM__Invalidate1Abs  STemWin528_CM4_Keil.lib(wm.o)
    0x080043c4   0x00000054   Code   RO         6434    i.WM__InvalidateDrawAndDescs  STemWin528_CM4_Keil.lib(wm.o)
    0x08004418   0x00000076   Code   RO         6436    i.WM__InvalidateRect  STemWin528_CM4_Keil.lib(wm.o)
    0x0800448e   0x00000006   Code   RO         6437    i.WM__InvalidateRectEx  STemWin528_CM4_Keil.lib(wm.o)
    0x08004494   0x00000022   Code   RO         6979    i.WM__IsAncestor    STemWin528_CM4_Keil.lib(wm__isancestor.o)
    0x080044b6   0x00000016   Code   RO         6983    i.WM__IsEnabled     STemWin528_CM4_Keil.lib(wm__isenabled.o)
    0x080044cc   0x00000068   Code   RO         6732    i.WM__IsInModalArea  STemWin528_CM4_Keil.lib(wm_touch.o)
    0x08004534   0x00000030   Code   RO         7014    i.WM__IsInWindow    STemWin528_CM4_Keil.lib(wm_screen2win.o)
    0x08004564   0x00000024   Code   RO         6438    i.WM__IsWindow      STemWin528_CM4_Keil.lib(wm.o)
    0x08004588   0x00000020   Code   RO         6442    i.WM__RectIsNZ      STemWin528_CM4_Keil.lib(wm.o)
    0x080045a8   0x0000002c   Code   RO         7024    i.WM__ReleaseCapture  STemWin528_CM4_Keil.lib(wm_setcapture.o)
    0x080045d4   0x0000002c   Code   RO         6702    i.WM__RemoveCriticalHandle  STemWin528_CM4_Keil.lib(wm_criticalhandle.o)
    0x08004600   0x0000003c   Code   RO         6696    i.WM__SendMessage   STemWin528_CM4_Keil.lib(wm__sendmessage.o)
    0x0800463c   0x0000001c   Code   RO         6985    i.WM__SendMessageIfEnabled  STemWin528_CM4_Keil.lib(wm__sendmessageifenabled.o)
    0x08004658   0x0000003e   Code   RO         6733    i.WM__SendPIDMessage  STemWin528_CM4_Keil.lib(wm_touch.o)
    0x08004696   0x00000036   Code   RO         6734    i.WM__SendTouchMessage  STemWin528_CM4_Keil.lib(wm_touch.o)
    0x080046cc   0x0000008c   Code   RO         5611    i._AddFreeMemory    STemWin528_CM4_Keil.lib(gui_alloc.o)
    0x08004758   0x000000bc   Code   RO         5612    i._Alloc            STemWin528_CM4_Keil.lib(gui_alloc.o)
    0x08004814   0x000000a2   Code   RO         7054    i._CreateBuffer     STemWin528_CM4_Keil.lib(gui_sprite.o)
    0x080048b6   0x00000002   PAD
    0x080048b8   0x00000014   Code   RO         6215    i._DecPointer       STemWin528_CM4_Keil.lib(gui_pid.o)
    0x080048cc   0x00000020   Code   RO         6447    i._DesktopHandle2Index  STemWin528_CM4_Keil.lib(wm.o)
    0x080048ec   0x00000098   Code   RO         5613    i._EnlargeBlocks    STemWin528_CM4_Keil.lib(gui_alloc.o)
    0x08004984   0x00000074   Code   RO         7060    i._FlushBuffer      STemWin528_CM4_Keil.lib(gui_sprite.o)
    0x080049f8   0x0000006c   Code   RO         7061    i._GetBkIndex       STemWin528_CM4_Keil.lib(gui_sprite.o)
    0x08004a64   0x00000080   Code   RO         7062    i._GetBkIndexAlpha  STemWin528_CM4_Keil.lib(gui_sprite.o)
    0x08004ae4   0x0000001e   Code   RO         5893    i._GetDevProp       STemWin528_CM4_Keil.lib(lcd_getex.o)
    0x08004b02   0x00000002   PAD
    0x08004b04   0x00000040   Code   RO         7068    i._GetDeviceRect    STemWin528_CM4_Keil.lib(gui_sprite.o)
    0x08004b44   0x0000001c   Code   RO         5614    i._GetMinIndex      STemWin528_CM4_Keil.lib(gui_alloc.o)
    0x08004b60   0x00000014   Code   RO         6216    i._IncPointer       STemWin528_CM4_Keil.lib(gui_pid.o)
    0x08004b74   0x000000a8   Code   RO         5615    i._InitOnce         STemWin528_CM4_Keil.lib(gui_alloc.o)
    0x08004c1c   0x00000080   Code   RO         6454    i._Invalidate1Abs   STemWin528_CM4_Keil.lib(wm.o)
    0x08004c9c   0x00000034   Code   RO         5616    i._OnExit           STemWin528_CM4_Keil.lib(gui_alloc.o)
    0x08004cd0   0x00000040   Code   RO         5617    i._PopFreeBlock     STemWin528_CM4_Keil.lib(gui_alloc.o)
    0x08004d10   0x00000028   Code   RO         5618    i._PushFreeBlock    STemWin528_CM4_Keil.lib(gui_alloc.o)
    0x08004d38   0x0000001c   Code   RO         7073    i._ReleaseBuffer    STemWin528_CM4_Keil.lib(gui_sprite.o)
    0x08004d54   0x00000034   Code   RO         5619    i._RemoveFreeBlock  STemWin528_CM4_Keil.lib(gui_alloc.o)
    0x08004d88   0x000000a0   Code   RO         5620    i._RemoveHoles      STemWin528_CM4_Keil.lib(gui_alloc.o)
    0x08004e28   0x0000005a   Code   RO         7015    i._Screen2hWin      STemWin528_CM4_Keil.lib(wm_screen2win.o)
    0x08004e82   0x00000002   PAD
    0x08004e84   0x00000024   Code   RO         7016    i._Screen2hWinStop  STemWin528_CM4_Keil.lib(wm_screen2win.o)
    0x08004ea8   0x00000020   Code   RO         5817    i._SetBkColor       STemWin528_CM4_Keil.lib(lcd.o)
    0x08004ec8   0x0000004a   Code   RO         7076    i._SetBkIndexBuffered  STemWin528_CM4_Keil.lib(gui_sprite.o)
    0x08004f12   0x00000002   PAD
    0x08004f14   0x00000020   Code   RO         5818    i._SetColor         STemWin528_CM4_Keil.lib(lcd.o)
    0x08004f34   0x0000002c   Code   RO         5819    i._SetDrawMode      STemWin528_CM4_Keil.lib(lcd.o)
    0x08004f60   0x0000045c   Code   RO         7079    i._SetPosition      STemWin528_CM4_Keil.lib(gui_sprite.o)
    0x080053bc   0x00000068   Code   RO         6217    i._StoreState       STemWin528_CM4_Keil.lib(gui_pid.o)
    0x08005424   0x000000ea   Code   RO         5621    i._TestRAM          STemWin528_CM4_Keil.lib(gui_alloc.o)
    0x0800550e   0x00000002   PAD
    0x08005510   0x00000030   Code   RO         5706    i._UnlinkDevice     STemWin528_CM4_Keil.lib(gui_device.o)
    0x08005540   0x0000000e   Code   RO         5622    i._WriteTagData     STemWin528_CM4_Keil.lib(gui_alloc.o)
    0x0800554e   0x00000030   Code   RO         7236    i.__ARM_fpclassify  m_wm.l(fpclassify.o)
    0x0800557e   0x00000002   PAD
    0x08005580   0x00000c50   Code   RO         7177    i.__hardfp_pow      m_wm.l(pow.o)
    0x080061d0   0x000000f8   Code   RO         7238    i.__kernel_poly     m_wm.l(poly.o)
    0x080062c8   0x00000030   Code   RO         7216    i.__mathlib_dbl_divzero  m_wm.l(dunder.o)
    0x080062f8   0x00000014   Code   RO         7218    i.__mathlib_dbl_infnan2  m_wm.l(dunder.o)
    0x0800630c   0x00000004   PAD
    0x08006310   0x00000020   Code   RO         7219    i.__mathlib_dbl_invalid  m_wm.l(dunder.o)
    0x08006330   0x00000020   Code   RO         7220    i.__mathlib_dbl_overflow  m_wm.l(dunder.o)
    0x08006350   0x00000020   Code   RO         7222    i.__mathlib_dbl_underflow  m_wm.l(dunder.o)
    0x08006370   0x0000000e   Code   RO         7303    i.__scatterload_copy  mc_w.l(handlers.o)
    0x0800637e   0x00000002   Code   RO         7304    i.__scatterload_null  mc_w.l(handlers.o)
    0x08006380   0x0000000e   Code   RO         7305    i.__scatterload_zeroinit  mc_w.l(handlers.o)
    0x0800638e   0x00000002   PAD
    0x08006390   0x0000000c   Code   RO         7275    i.__set_errno       mc_w.l(errno.o)
    0x0800639c   0x00000048   Code   RO         1572    i.delayInit         delay.o
    0x080063e4   0x00000024   Code   RO         1573    i.delayMS           delay.o
    0x08006408   0x00000018   Code   RO         7232    i.fabs              m_wm.l(fabs.o)
    0x08006420   0x00000084   Code   RO         1702    i.hiMSTick          main_entry.o
    0x080064a4   0x0000024c   Code   RO         1761    i.hubInit           hub75.o
    0x080066f0   0x000000f4   Code   RO         1762    i.hubLUTInit        hub75.o
    0x080067e4   0x00000024   Code   RO         1763    i.hubSetOrient      hub75.o
    0x08006808   0x0000031c   Code   RO         1764    i.hubTask           hub75.o
    0x08006b24   0x00000002   Code   RO         1704    i.loMSTick          main_entry.o
    0x08006b26   0x00000002   PAD
    0x08006b28   0x000000ac   Code   RO         1506    i.main              main.o
    0x08006bd4   0x000000ac   Code   RO         1705    i.mainEntry         main_entry.o
    0x08006c80   0x000000e4   Code   RO         1639    i.msInit            mstimer.o
    0x08006d64   0x00000064   Code   RO         1640    i.msSetMSecPerDay   mstimer.o
    0x08006dc8   0x000000c0   Code   RO         1765    i.setBrightness     hub75.o
    0x08006e88   0x0000006e   Code   RO         7243    i.sqrt              m_wm.l(sqrt.o)
    0x08006ef6   0x00000002   PAD
    0x08006ef8   0x0000000c   Code   RO         1577    i.startCountUS      delay.o
    0x08006f04   0x00000070   Code   RO          812    i.stmpe811_Init     stmpe811.o
    0x08006f74   0x00000020   Code   RO          814    i.stmpe811_ReadID   stmpe811.o
    0x08006f94   0x00000028   Code   RO          815    i.stmpe811_Reset    stmpe811.o
    0x08006fbc   0x0000000a   Code   RO          818    i.stmpe811_TS_ClearIT  stmpe811.o
    0x08006fc6   0x00000038   Code   RO          819    i.stmpe811_TS_DetectTouch  stmpe811.o
    0x08006ffe   0x00000030   Code   RO          820    i.stmpe811_TS_DisableIT  stmpe811.o
    0x0800702e   0x00000034   Code   RO          821    i.stmpe811_TS_EnableIT  stmpe811.o
    0x08007062   0x0000003e   Code   RO          822    i.stmpe811_TS_GetXY  stmpe811.o
    0x080070a0   0x00000010   Code   RO          823    i.stmpe811_TS_ITStatus  stmpe811.o
    0x080070b0   0x000000ae   Code   RO          824    i.stmpe811_TS_Start  stmpe811.o
    0x0800715e   0x00000008   Data   RO           29    .constdata          stm32f429i_discovery.o
    0x08007166   0x00000002   PAD
    0x08007168   0x00002000   Data   RO         1782    .constdata          hub75.o
    0x08009168   0x00000010   Data   RO         4461    .constdata          stm32f4xx_hal_rcc.o
    0x08009178   0x00000008   Data   RO         5433    .constdata          stm32f4xx_hal_dma.o
    0x08009180   0x0000000c   Data   RO         5821    .constdata          STemWin528_CM4_Keil.lib(lcd.o)
    0x0800918c   0x00000518   Data   RO         6055    .constdata          STemWin528_CM4_Keil.lib(f6x8.o)
    0x080096a4   0x000001c0   Data   RO         6056    .constdata          STemWin528_CM4_Keil.lib(f6x8.o)
    0x08009864   0x00000008   Data   RO         6057    .constdata          STemWin528_CM4_Keil.lib(f6x8.o)
    0x0800986c   0x00000014   Data   RO         6058    .constdata          STemWin528_CM4_Keil.lib(f6x8.o)
    0x08009880   0x00000024   Data   RO         6059    .constdata          STemWin528_CM4_Keil.lib(f6x8.o)
    0x080098a4   0x00000004   PAD
    0x080098a8   0x00000088   Data   RO         7180    .constdata          m_wm.l(pow.o)
    0x08009930   0x00000008   Data   RO         7240    .constdata          m_wm.l(qnan.o)
    0x08009938   0x00000020   Data   RO         7301    Region$$Table       anon$$obj.o


    Execution Region RW_IRAM1 (Base: 0x20000000, Size: 0x00008b88, Max: 0x00030000, ABSOLUTE, COMPRESSED[0x00000074])

    Base Addr    Size         Type   Attr      Idx    E Section Name        Object

    0x20000000   0x00000018   Data   RW           30    .data               stm32f429i_discovery.o
    0x20000018   0x00000010   Data   RW          597    .data               stm32f429i_discovery_ts.o
    0x20000028   0x00000028   Data   RW          825    .data               stmpe811.o
    0x20000050   0x00000002   Data   RW          827    .data               stmpe811.o
    0x20000052   0x00000002   PAD
    0x20000054   0x00000004   Data   RW         1070    .data               gui_x.o
    0x20000058   0x00000014   Data   RW         1374    .data               system_stm32f4xx.o
    0x2000006c   0x0000000a   Data   RW         1508    .data               main.o
    0x20000076   0x00000002   PAD
    0x20000078   0x00000004   Data   RW         1580    .data               delay.o
    0x2000007c   0x00000028   Data   RW         1644    .data               mstimer.o
    0x200000a4   0x00000014   Data   RW         1710    .data               main_entry.o
    0x200000b8   0x00000064   Data   RW         1783    .data               hub75.o
    0x2000011c   0x00000004   Data   RW         2237    .data               stm32f4xx_hal.o
    0x20000120   0x00000008   Data   RW         5624    .data               STemWin528_CM4_Keil.lib(gui_alloc.o)
    0x20000128   0x0000002c   Data   RW         5674    .data               STemWin528_CM4_Keil.lib(gui_core.o)
    0x20000154   0x00000004   Data   RW         5678    .data               STemWin528_CM4_Keil.lib(gui_core.o)
    0x20000158   0x00000002   Data   RW         5682    .data               STemWin528_CM4_Keil.lib(gui_core.o)
    0x2000015a   0x00000002   PAD
    0x2000015c   0x00000004   Data   RW         5683    .data               STemWin528_CM4_Keil.lib(gui_core.o)
    0x20000160   0x00000002   Data   RW         5684    .data               STemWin528_CM4_Keil.lib(gui_core.o)
    0x20000162   0x00000002   Data   RW         5685    .data               STemWin528_CM4_Keil.lib(gui_core.o)
    0x20000164   0x00000024   Data   RW         5735    .data               STemWin528_CM4_Keil.lib(gui_multibuf.o)
    0x20000188   0x00000008   Data   RW         5756    .data               STemWin528_CM4_Keil.lib(gui_selectlayer.o)
    0x20000190   0x00000004   Data   RW         5822    .data               STemWin528_CM4_Keil.lib(lcd.o)
    0x20000194   0x00000010   Data   RW         5848    .data               STemWin528_CM4_Keil.lib(lcd_color.o)
    0x200001a4   0x0000000c   Data   RW         6219    .data               STemWin528_CM4_Keil.lib(gui_pid.o)
    0x200001b0   0x00000064   Data   RW         6464    .data               STemWin528_CM4_Keil.lib(wm.o)
    0x20000214   0x00000001   Data   RW         6465    .data               STemWin528_CM4_Keil.lib(wm.o)
    0x20000215   0x00000003   PAD
    0x20000218   0x0000000c   Data   RW         6629    .data               STemWin528_CM4_Keil.lib(gui_waitevent.o)
    0x20000224   0x00000004   Data   RW         6697    .data               STemWin528_CM4_Keil.lib(wm__sendmessage.o)
    0x20000228   0x0000000c   Data   RW         6739    .data               STemWin528_CM4_Keil.lib(wm_touch.o)
    0x20000234   0x00000004   Data   RW         7276    .data               mc_w.l(errno.o)
    0x20000238   0x0000009c   Zero   RW           28    .bss                stm32f429i_discovery.o
    0x200002d4   0x000000b8   Zero   RW          666    .bss                stm32f429i_discovery_sdram.o
    0x2000038c   0x00003234   Zero   RW         1172    .bss                lcdconf_stm32f429i_disco_mb1075.o
    0x200035c0   0x0000003c   Zero   RW         1507    .bss                main.o
    0x200035fc   0x0000003c   Zero   RW         1578    .bss                delay.o
    0x20003638   0x00000078   Zero   RW         1641    .bss                mstimer.o
    0x200036b0   0x00004000   Zero   RW         1766    .bss                hub75.o
    0x200076b0   0x000002c0   Zero   RW         1767    .bss                hub75.o
    0x20007970   0x000000cc   Zero   RW         5623    .bss                STemWin528_CM4_Keil.lib(gui_alloc.o)
    0x20007a3c   0x00000070   Zero   RW         5672    .bss                STemWin528_CM4_Keil.lib(gui_core.o)
    0x20007aac   0x0000000c   Zero   RW         5774    .bss                STemWin528_CM4_Keil.lib(gui_touch.o)
    0x20007ab8   0x00000048   Zero   RW         6218    .bss                STemWin528_CM4_Keil.lib(gui_pid.o)
    0x20007b00   0x00000048   Zero   RW         6738    .bss                STemWin528_CM4_Keil.lib(wm_touch.o)
    0x20007b48   0x00000028   Zero   RW         6769    .bss                STemWin528_CM4_Keil.lib(gui_curs1.o)
    0x20007b70   0x00000018   Zero   RW         7009    .bss                STemWin528_CM4_Keil.lib(wm_pid__getprevstate.o)
    0x20007b88   0x00001000   Zero   RW          785    STACK               startup_stm32f429xx.o


==============================================================================

Image component sizes


      Code (inc. data)   RO Data    RW Data    ZI Data      Debug   Object Name

       120         30          0          4         60       1995   delay.o
         2          0          0          4          0      49021   gui_x.o
      1896        186       8192        100      17088      10239   hub75.o
       100          6          0          0      12852       4001   lcdconf_stm32f429i_disco_mb1075.o
       360         32          0         10         60       4127   main.o
       306         44          0         20          0       2536   main_entry.o
       488         60          0         40        120       3227   mstimer.o
        36          8        428          0       4096        780   startup_stm32f429xx.o
       620         84          8         24        156     456061   stm32f429i_discovery.o
       588         52          0          0        184       2961   stm32f429i_discovery_sdram.o
       236         14          0         16          0       4036   stm32f429i_discovery_ts.o
       138         16          0          4          0       5069   stm32f4xx_hal.o
       228         16          0          0          0      31146   stm32f4xx_hal_cortex.o
       304         24          8          0          0       2580   stm32f4xx_hal_dma.o
       574         20          0          0          0       2820   stm32f4xx_hal_gpio.o
      2180         40          0          0          0      14748   stm32f4xx_hal_i2c.o
       754          4          0          0          0       4505   stm32f4xx_hal_ltdc.o
       156         10          0          0          0       1436   stm32f4xx_hal_pwr_ex.o
      1532         96         16          0          0       5960   stm32f4xx_hal_rcc.o
       150          0          0          0          0       3592   stm32f4xx_hal_sdram.o
      1706         28          0          0          0      15842   stm32f4xx_hal_tim.o
         4          0          0          0          0       1834   stm32f4xx_hal_tim_ex.o
        58         16          0          0          0       4362   stm32f4xx_it.o
       322          0          0          0          0       3948   stm32f4xx_ll_fmc.o
       602          6          0         42          0      12114   stmpe811.o
        88         24          0         20          0       1149   system_stm32f4xx.o

    ----------------------------------------------------------------------
     13566        816       8686        288      34616     650089   Object Totals
         0          0         32          0          0          0   (incl. Generated)
        18          0          2          4          0          0   (incl. Padding)

    ----------------------------------------------------------------------

      Code (inc. data)   RO Data    RW Data    ZI Data      Debug   Library Member Name

         0          0       1816          0          0          0   f6x8.o
       102          0          0          0          0        128   gui__alpha.o
       292          0          0          0          0        124   gui__compactpixelindices.o
        58          0          0          0          0        116   gui__intersectrect.o
        82          0          0          0          0        128   gui__intersectrects.o
        76          0          0          0          0        124   gui__memset.o
      1546         88          0          8        204       2380   gui_alloc.o
       394         12          0          0          0        492   gui_charm.o
        16          6          0         58        112        116   gui_core.o
       112          6          0          0         40        140   gui_curs1.o
       228         16          0          0          0        592   gui_device.o
       160          0          0          0          0        248   gui_getbitmappixelindex.o
        88          0          0          0          0        124   gui_mergerect.o
        30          0          0          0          0        116   gui_moverect.o
        44          6          0         36          0        116   gui_multibuf.o
       264         38          0         12         72        744   gui_pid.o
        46          4          0          8          0        360   gui_selectlayer.o
        18          0          0          0          0        128   gui_selectlcd.o
      1806         20          0          0          0       1240   gui_sprite.o
        44          6          0          0         12        132   gui_touch.o
        16          4          0         12          0        116   gui_waitevent.o
       132         10          0          0          0        260   guidev.o
        36          0          0          0          0        128   guidev_usage.o
       828         62         12          4          0       1248   lcd.o
        76          4          0         16          0        248   lcd_color.o
        42          0          0          0          0        360   lcd_getex.o
        64         10          0          0          0        128   lcd_selectlcd.o
        88          0          0          0          0        264   lcd_set.o
        36          4          0          0          0        128   lcd_updatecolorindices.o
       884         32          0        101          0       2092   wm.o
        34          0          0          0          0        128   wm__isancestor.o
        22          0          0          0          0        124   wm__isenabled.o
        60          6          0          4          0        136   wm__sendmessage.o
        28          0          0          0          0        140   wm__sendmessageifenabled.o
        60         12          0          0          0        232   wm_criticalhandle.o
        32          0          0          0          0        128   wm_getclientrect.o
        20          4          0          0          0        116   wm_getdesktopwindowex.o
        14          0          0          0          0        124   wm_getfirstchild.o
        14          0          0          0          0        124   wm_getparent.o
         4          0          0          0          0        116   wm_iswindow.o
        24          6          0          0         24        116   wm_pid__getprevstate.o
       184          6          0          0          0        504   wm_screen2win.o
        30          0          0          0          0        140   wm_sendtoparent.o
        48          8          0          0          0        244   wm_setcapture.o
      1100         46          0         12         72        536   wm_touch.o
       164         44          0          0          0        620   dunder.o
        24          0          0          0          0        124   fabs.o
        48          0          0          0          0        124   fpclassify.o
       248          0          0          0          0        152   poly.o
      3152        296        136          0          0        352   pow.o
         0          0          8          0          0          0   qnan.o
       110          0          0          0          0        148   sqrt.o
        86          0          0          0          0          0   __dczerorl2.o
         0          0          0          0          0          0   entry.o
         0          0          0          0          0          0   entry10a.o
         0          0          0          0          0          0   entry11a.o
         8          4          0          0          0          0   entry2.o
         4          0          0          0          0          0   entry5.o
         0          0          0          0          0          0   entry7b.o
         0          0          0          0          0          0   entry8b.o
         8          4          0          0          0          0   entry9a.o
        12          6          0          4          0         68   errno.o
        30          0          0          0          0          0   handlers.o
        36          8          0          0          0         68   init.o
         0          0          0          0          0          0   iusefp.o
        30          0          0          0          0         68   llshl.o
        36          0          0          0          0         68   llsshr.o
        32          0          0          0          0         68   llushr.o
        26          0          0          0          0         80   memcmp.o
        64          0          0          0          0         76   memmovea.o
        36          0          0          0          0        108   memseta.o
        98          0          0          0          0         92   uldiv.o
        48          0          0          0          0         68   cdrcmple.o
        56          0          0          0          0         88   d2f.o
       334          0          0          0          0        148   dadd.o
       222          0          0          0          0        100   ddiv.o
       186          0          0          0          0        176   depilogue.o
        34          0          0          0          0         76   dflti.o
       228          0          0          0          0         96   dmul.o
        46          0          0          0          0         80   dscalb.o
       162          0          0          0          0        100   dsqrt.o
        38          0          0          0          0         68   f2d.o
       110          0          0          0          0        168   fepilogue.o

    ----------------------------------------------------------------------
     15028        778       1976        280        536      18812   Library Totals
        30          0          4          5          0          0   (incl. Padding)

    ----------------------------------------------------------------------

      Code (inc. data)   RO Data    RW Data    ZI Data      Debug   Library Name

      9282        416       1828        271        536      15428   STemWin528_CM4_Keil.lib
      3746        340        144          0          0       1520   m_wm.l
       506         22          0          4          0        696   mc_w.l
      1464          0          0          0          0       1168   mf_w.l

    ----------------------------------------------------------------------
     15028        778       1976        280        536      18812   Library Totals

    ----------------------------------------------------------------------

==============================================================================


      Code (inc. data)   RO Data    RW Data    ZI Data      Debug   

     28594       1594      10662        568      35152     643701   Grand Totals
     28594       1594      10662        116      35152     643701   ELF Image Totals (compressed)
     28594       1594      10662        116          0          0   ROM Totals

==============================================================================

    Total RO  Size (Code + RO Data)                39256 (  38.34kB)
    Total RW  Size (RW Data + ZI Data)             35720 (  34.88kB)
    Total ROM Size (Code + RO Data + RW Data)      39372 (  38.45kB)

==============================================================================

